{
  "contracts/MeshMind.sol": {
    "MeshMind": {
      "abi": [
        {
          "inputs": [
            {
              "internalType": "address",
              "name": "_tokenContract",
              "type": "address"
            },
            {
              "internalType": "address",
              "name": "_automationBot",
              "type": "address"
            }
          ],
          "stateMutability": "nonpayable",
          "type": "constructor"
        },
        {
          "anonymous": false,
          "inputs": [
            {
              "indexed": false,
              "internalType": "uint256",
              "name": "oldReward",
              "type": "uint256"
            },
            {
              "indexed": false,
              "internalType": "uint256",
              "name": "newReward",
              "type": "uint256"
            }
          ],
          "name": "BotRewardUpdated",
          "type": "event"
        },
        {
          "anonymous": false,
          "inputs": [
            {
              "indexed": true,
              "internalType": "address",
              "name": "oldBot",
              "type": "address"
            },
            {
              "indexed": true,
              "internalType": "address",
              "name": "newBot",
              "type": "address"
            }
          ],
          "name": "BotUpdated",
          "type": "event"
        },
        {
          "anonymous": false,
          "inputs": [
            {
              "indexed": true,
              "internalType": "uint256",
              "name": "deviceId",
              "type": "uint256"
            },
            {
              "indexed": false,
              "internalType": "uint256",
              "name": "newPrice",
              "type": "uint256"
            }
          ],
          "name": "DevicePriceUpdated",
          "type": "event"
        },
        {
          "anonymous": false,
          "inputs": [
            {
              "indexed": true,
              "internalType": "uint256",
              "name": "deviceId",
              "type": "uint256"
            },
            {
              "indexed": false,
              "internalType": "bool",
              "name": "isReady",
              "type": "bool"
            }
          ],
          "name": "DeviceReadinessUpdated",
          "type": "event"
        },
        {
          "anonymous": false,
          "inputs": [
            {
              "indexed": true,
              "internalType": "uint256",
              "name": "deviceId",
              "type": "uint256"
            },
            {
              "indexed": true,
              "internalType": "address",
              "name": "owner",
              "type": "address"
            },
            {
              "indexed": false,
              "internalType": "string",
              "name": "deviceName",
              "type": "string"
            },
            {
              "indexed": false,
              "internalType": "string",
              "name": "deviceIP",
              "type": "string"
            }
          ],
          "name": "DeviceRegistered",
          "type": "event"
        },
        {
          "anonymous": false,
          "inputs": [
            {
              "indexed": true,
              "internalType": "uint256",
              "name": "deviceId",
              "type": "uint256"
            },
            {
              "indexed": false,
              "internalType": "uint256",
              "name": "newReputation",
              "type": "uint256"
            }
          ],
          "name": "DeviceReputationUpdated",
          "type": "event"
        },
        {
          "anonymous": false,
          "inputs": [
            {
              "indexed": true,
              "internalType": "uint256",
              "name": "deviceId",
              "type": "uint256"
            },
            {
              "indexed": false,
              "internalType": "bool",
              "name": "isActive",
              "type": "bool"
            }
          ],
          "name": "DeviceStatusUpdated",
          "type": "event"
        },
        {
          "anonymous": false,
          "inputs": [
            {
              "indexed": true,
              "internalType": "uint256",
              "name": "orderId",
              "type": "uint256"
            },
            {
              "indexed": true,
              "internalType": "address",
              "name": "deviceOwner",
              "type": "address"
            }
          ],
          "name": "OrderAutoAccepted",
          "type": "event"
        },
        {
          "anonymous": false,
          "inputs": [
            {
              "indexed": true,
              "internalType": "uint256",
              "name": "orderId",
              "type": "uint256"
            },
            {
              "indexed": true,
              "internalType": "address",
              "name": "bot",
              "type": "address"
            },
            {
              "indexed": false,
              "internalType": "uint256",
              "name": "botReward",
              "type": "uint256"
            }
          ],
          "name": "OrderAutoCompleted",
          "type": "event"
        },
        {
          "anonymous": false,
          "inputs": [
            {
              "indexed": true,
              "internalType": "uint256",
              "name": "orderId",
              "type": "uint256"
            },
            {
              "indexed": false,
              "internalType": "string",
              "name": "reason",
              "type": "string"
            }
          ],
          "name": "OrderCancelled",
          "type": "event"
        },
        {
          "anonymous": false,
          "inputs": [
            {
              "indexed": true,
              "internalType": "uint256",
              "name": "orderId",
              "type": "uint256"
            },
            {
              "indexed": false,
              "internalType": "uint256",
              "name": "paymentAmount",
              "type": "uint256"
            }
          ],
          "name": "OrderCompleted",
          "type": "event"
        },
        {
          "anonymous": false,
          "inputs": [
            {
              "indexed": true,
              "internalType": "uint256",
              "name": "orderId",
              "type": "uint256"
            },
            {
              "indexed": false,
              "internalType": "string",
              "name": "reason",
              "type": "string"
            }
          ],
          "name": "OrderDisputed",
          "type": "event"
        },
        {
          "anonymous": false,
          "inputs": [
            {
              "indexed": true,
              "internalType": "uint256",
              "name": "orderId",
              "type": "uint256"
            },
            {
              "indexed": true,
              "internalType": "address",
              "name": "user",
              "type": "address"
            },
            {
              "indexed": true,
              "internalType": "uint256",
              "name": "deviceId",
              "type": "uint256"
            },
            {
              "indexed": false,
              "internalType": "string",
              "name": "action",
              "type": "string"
            },
            {
              "indexed": false,
              "internalType": "uint256",
              "name": "amount",
              "type": "uint256"
            }
          ],
          "name": "OrderPlaced",
          "type": "event"
        },
        {
          "anonymous": false,
          "inputs": [
            {
              "indexed": true,
              "internalType": "uint256",
              "name": "orderId",
              "type": "uint256"
            }
          ],
          "name": "OrderStarted",
          "type": "event"
        },
        {
          "anonymous": false,
          "inputs": [
            {
              "indexed": true,
              "internalType": "uint256",
              "name": "orderId",
              "type": "uint256"
            },
            {
              "indexed": true,
              "internalType": "address",
              "name": "recipient",
              "type": "address"
            },
            {
              "indexed": false,
              "internalType": "uint256",
              "name": "amount",
              "type": "uint256"
            }
          ],
          "name": "PaymentReleased",
          "type": "event"
        },
        {
          "anonymous": false,
          "inputs": [
            {
              "indexed": true,
              "internalType": "address",
              "name": "user",
              "type": "address"
            },
            {
              "indexed": false,
              "internalType": "uint256",
              "name": "newReputation",
              "type": "uint256"
            }
          ],
          "name": "ReputationUpdated",
          "type": "event"
        },
        {
          "anonymous": false,
          "inputs": [
            {
              "indexed": true,
              "internalType": "address",
              "name": "user",
              "type": "address"
            },
            {
              "indexed": false,
              "internalType": "string",
              "name": "username",
              "type": "string"
            },
            {
              "indexed": false,
              "internalType": "string",
              "name": "contactInfo",
              "type": "string"
            }
          ],
          "name": "UserRegistered",
          "type": "event"
        },
        {
          "inputs": [],
          "name": "admin",
          "outputs": [
            {
              "internalType": "address",
              "name": "",
              "type": "address"
            }
          ],
          "stateMutability": "view",
          "type": "function"
        },
        {
          "inputs": [
            {
              "internalType": "uint256",
              "name": "orderId",
              "type": "uint256"
            }
          ],
          "name": "autoCompleteOrder",
          "outputs": [],
          "stateMutability": "nonpayable",
          "type": "function"
        },
        {
          "inputs": [],
          "name": "automationBot",
          "outputs": [
            {
              "internalType": "address",
              "name": "",
              "type": "address"
            }
          ],
          "stateMutability": "view",
          "type": "function"
        },
        {
          "inputs": [],
          "name": "botRewardPercentage",
          "outputs": [
            {
              "internalType": "uint256",
              "name": "",
              "type": "uint256"
            }
          ],
          "stateMutability": "view",
          "type": "function"
        },
        {
          "inputs": [
            {
              "internalType": "uint256",
              "name": "orderId",
              "type": "uint256"
            },
            {
              "internalType": "string",
              "name": "reason",
              "type": "string"
            }
          ],
          "name": "cancelOrder",
          "outputs": [],
          "stateMutability": "nonpayable",
          "type": "function"
        },
        {
          "inputs": [
            {
              "internalType": "uint256",
              "name": "",
              "type": "uint256"
            },
            {
              "internalType": "uint256",
              "name": "",
              "type": "uint256"
            }
          ],
          "name": "deviceOrders",
          "outputs": [
            {
              "internalType": "uint256",
              "name": "",
              "type": "uint256"
            }
          ],
          "stateMutability": "view",
          "type": "function"
        },
        {
          "inputs": [
            {
              "internalType": "uint256",
              "name": "",
              "type": "uint256"
            }
          ],
          "name": "devices",
          "outputs": [
            {
              "internalType": "string",
              "name": "deviceName",
              "type": "string"
            },
            {
              "internalType": "string",
              "name": "deviceIP",
              "type": "string"
            },
            {
              "internalType": "address",
              "name": "owner",
              "type": "address"
            },
            {
              "internalType": "bool",
              "name": "isActive",
              "type": "bool"
            },
            {
              "internalType": "bool",
              "name": "isReady",
              "type": "bool"
            },
            {
              "internalType": "uint256",
              "name": "pricePerHour",
              "type": "uint256"
            },
            {
              "internalType": "uint256",
              "name": "totalOrders",
              "type": "uint256"
            },
            {
              "internalType": "uint256",
              "name": "completedOrders",
              "type": "uint256"
            }
          ],
          "stateMutability": "view",
          "type": "function"
        },
        {
          "inputs": [
            {
              "internalType": "uint256",
              "name": "",
              "type": "uint256"
            }
          ],
          "name": "disputedOrders",
          "outputs": [
            {
              "internalType": "bool",
              "name": "",
              "type": "bool"
            }
          ],
          "stateMutability": "view",
          "type": "function"
        },
        {
          "inputs": [
            {
              "internalType": "uint256",
              "name": "amount",
              "type": "uint256"
            }
          ],
          "name": "emergencyWithdraw",
          "outputs": [],
          "stateMutability": "nonpayable",
          "type": "function"
        },
        {
          "inputs": [],
          "name": "gasCompensation",
          "outputs": [
            {
              "internalType": "uint256",
              "name": "",
              "type": "uint256"
            }
          ],
          "stateMutability": "view",
          "type": "function"
        },
        {
          "inputs": [],
          "name": "getActiveDevices",
          "outputs": [
            {
              "internalType": "uint256[]",
              "name": "",
              "type": "uint256[]"
            }
          ],
          "stateMutability": "view",
          "type": "function"
        },
        {
          "inputs": [
            {
              "internalType": "uint256",
              "name": "deviceId",
              "type": "uint256"
            }
          ],
          "name": "getDevice",
          "outputs": [
            {
              "components": [
                {
                  "internalType": "string",
                  "name": "deviceName",
                  "type": "string"
                },
                {
                  "internalType": "string",
                  "name": "deviceIP",
                  "type": "string"
                },
                {
                  "internalType": "address",
                  "name": "owner",
                  "type": "address"
                },
                {
                  "internalType": "bool",
                  "name": "isActive",
                  "type": "bool"
                },
                {
                  "internalType": "bool",
                  "name": "isReady",
                  "type": "bool"
                },
                {
                  "internalType": "uint256",
                  "name": "pricePerHour",
                  "type": "uint256"
                },
                {
                  "internalType": "string[]",
                  "name": "capabilities",
                  "type": "string[]"
                },
                {
                  "internalType": "uint256",
                  "name": "totalOrders",
                  "type": "uint256"
                },
                {
                  "internalType": "uint256",
                  "name": "completedOrders",
                  "type": "uint256"
                }
              ],
              "internalType": "struct MeshMind.Device",
              "name": "",
              "type": "tuple"
            }
          ],
          "stateMutability": "view",
          "type": "function"
        },
        {
          "inputs": [
            {
              "internalType": "uint256",
              "name": "deviceId",
              "type": "uint256"
            }
          ],
          "name": "getDeviceOrders",
          "outputs": [
            {
              "internalType": "uint256[]",
              "name": "",
              "type": "uint256[]"
            }
          ],
          "stateMutability": "view",
          "type": "function"
        },
        {
          "inputs": [],
          "name": "getExpiredOrders",
          "outputs": [
            {
              "internalType": "uint256[]",
              "name": "",
              "type": "uint256[]"
            }
          ],
          "stateMutability": "view",
          "type": "function"
        },
        {
          "inputs": [
            {
              "internalType": "uint256",
              "name": "orderId",
              "type": "uint256"
            }
          ],
          "name": "getOrder",
          "outputs": [
            {
              "components": [
                {
                  "internalType": "uint256",
                  "name": "id",
                  "type": "uint256"
                },
                {
                  "internalType": "address",
                  "name": "user",
                  "type": "address"
                },
                {
                  "internalType": "string",
                  "name": "action",
                  "type": "string"
                },
                {
                  "internalType": "uint256",
                  "name": "deviceId",
                  "type": "uint256"
                },
                {
                  "internalType": "uint256",
                  "name": "amount",
                  "type": "uint256"
                },
                {
                  "internalType": "uint256",
                  "name": "timestamp",
                  "type": "uint256"
                },
                {
                  "internalType": "string",
                  "name": "publicKey",
                  "type": "string"
                },
                {
                  "internalType": "enum MeshMind.OrderStatus",
                  "name": "status",
                  "type": "uint8"
                },
                {
                  "internalType": "uint256",
                  "name": "completionTimestamp",
                  "type": "uint256"
                },
                {
                  "internalType": "uint256",
                  "name": "durationHours",
                  "type": "uint256"
                },
                {
                  "internalType": "string",
                  "name": "taskDetails",
                  "type": "string"
                }
              ],
              "internalType": "struct MeshMind.Order",
              "name": "",
              "type": "tuple"
            }
          ],
          "stateMutability": "view",
          "type": "function"
        },
        {
          "inputs": [
            {
              "internalType": "uint256",
              "name": "orderId",
              "type": "uint256"
            }
          ],
          "name": "getOrderEscrow",
          "outputs": [
            {
              "internalType": "uint256",
              "name": "",
              "type": "uint256"
            }
          ],
          "stateMutability": "view",
          "type": "function"
        },
        {
          "inputs": [],
          "name": "getReadyDevices",
          "outputs": [
            {
              "internalType": "uint256[]",
              "name": "",
              "type": "uint256[]"
            }
          ],
          "stateMutability": "view",
          "type": "function"
        },
        {
          "inputs": [
            {
              "internalType": "address",
              "name": "user",
              "type": "address"
            }
          ],
          "name": "getUserDevices",
          "outputs": [
            {
              "internalType": "uint256[]",
              "name": "",
              "type": "uint256[]"
            }
          ],
          "stateMutability": "view",
          "type": "function"
        },
        {
          "inputs": [
            {
              "internalType": "address",
              "name": "user",
              "type": "address"
            }
          ],
          "name": "getUserOrders",
          "outputs": [
            {
              "internalType": "uint256[]",
              "name": "",
              "type": "uint256[]"
            }
          ],
          "stateMutability": "view",
          "type": "function"
        },
        {
          "inputs": [
            {
              "internalType": "address",
              "name": "user",
              "type": "address"
            }
          ],
          "name": "getUserProfile",
          "outputs": [
            {
              "components": [
                {
                  "internalType": "string",
                  "name": "username",
                  "type": "string"
                },
                {
                  "internalType": "string",
                  "name": "contactInfo",
                  "type": "string"
                },
                {
                  "internalType": "bool",
                  "name": "isRegistered",
                  "type": "bool"
                }
              ],
              "internalType": "struct MeshMind.UserProfile",
              "name": "",
              "type": "tuple"
            }
          ],
          "stateMutability": "view",
          "type": "function"
        },
        {
          "inputs": [],
          "name": "nextDeviceId",
          "outputs": [
            {
              "internalType": "uint256",
              "name": "",
              "type": "uint256"
            }
          ],
          "stateMutability": "view",
          "type": "function"
        },
        {
          "inputs": [],
          "name": "nextOrderId",
          "outputs": [
            {
              "internalType": "uint256",
              "name": "",
              "type": "uint256"
            }
          ],
          "stateMutability": "view",
          "type": "function"
        },
        {
          "inputs": [
            {
              "internalType": "uint256",
              "name": "",
              "type": "uint256"
            }
          ],
          "name": "orderEscrow",
          "outputs": [
            {
              "internalType": "uint256",
              "name": "",
              "type": "uint256"
            }
          ],
          "stateMutability": "view",
          "type": "function"
        },
        {
          "inputs": [
            {
              "internalType": "uint256",
              "name": "",
              "type": "uint256"
            }
          ],
          "name": "orders",
          "outputs": [
            {
              "internalType": "uint256",
              "name": "id",
              "type": "uint256"
            },
            {
              "internalType": "address",
              "name": "user",
              "type": "address"
            },
            {
              "internalType": "string",
              "name": "action",
              "type": "string"
            },
            {
              "internalType": "uint256",
              "name": "deviceId",
              "type": "uint256"
            },
            {
              "internalType": "uint256",
              "name": "amount",
              "type": "uint256"
            },
            {
              "internalType": "uint256",
              "name": "timestamp",
              "type": "uint256"
            },
            {
              "internalType": "string",
              "name": "publicKey",
              "type": "string"
            },
            {
              "internalType": "enum MeshMind.OrderStatus",
              "name": "status",
              "type": "uint8"
            },
            {
              "internalType": "uint256",
              "name": "completionTimestamp",
              "type": "uint256"
            },
            {
              "internalType": "uint256",
              "name": "durationHours",
              "type": "uint256"
            },
            {
              "internalType": "string",
              "name": "taskDetails",
              "type": "string"
            }
          ],
          "stateMutability": "view",
          "type": "function"
        },
        {
          "inputs": [
            {
              "internalType": "uint256",
              "name": "deviceId",
              "type": "uint256"
            },
            {
              "internalType": "string",
              "name": "action",
              "type": "string"
            },
            {
              "internalType": "uint256",
              "name": "durationHours",
              "type": "uint256"
            },
            {
              "internalType": "string",
              "name": "taskDetails",
              "type": "string"
            },
            {
              "internalType": "string",
              "name": "publicKey",
              "type": "string"
            }
          ],
          "name": "placeOrder",
          "outputs": [],
          "stateMutability": "nonpayable",
          "type": "function"
        },
        {
          "inputs": [
            {
              "internalType": "string",
              "name": "deviceName",
              "type": "string"
            },
            {
              "internalType": "string",
              "name": "deviceIP",
              "type": "string"
            },
            {
              "internalType": "uint256",
              "name": "pricePerHour",
              "type": "uint256"
            },
            {
              "internalType": "string[]",
              "name": "capabilities",
              "type": "string[]"
            }
          ],
          "name": "registerDevice",
          "outputs": [],
          "stateMutability": "nonpayable",
          "type": "function"
        },
        {
          "inputs": [
            {
              "internalType": "string",
              "name": "username",
              "type": "string"
            },
            {
              "internalType": "string",
              "name": "contactInfo",
              "type": "string"
            }
          ],
          "name": "registerUser",
          "outputs": [],
          "stateMutability": "nonpayable",
          "type": "function"
        },
        {
          "inputs": [
            {
              "internalType": "address",
              "name": "_newBot",
              "type": "address"
            }
          ],
          "name": "setAutomationBot",
          "outputs": [],
          "stateMutability": "nonpayable",
          "type": "function"
        },
        {
          "inputs": [],
          "name": "tokenContract",
          "outputs": [
            {
              "internalType": "contract TokenTransfer",
              "name": "",
              "type": "address"
            }
          ],
          "stateMutability": "view",
          "type": "function"
        },
        {
          "inputs": [
            {
              "internalType": "uint256",
              "name": "deviceId",
              "type": "uint256"
            },
            {
              "internalType": "string[]",
              "name": "capabilities",
              "type": "string[]"
            }
          ],
          "name": "updateDeviceCapabilities",
          "outputs": [],
          "stateMutability": "nonpayable",
          "type": "function"
        },
        {
          "inputs": [
            {
              "internalType": "uint256",
              "name": "deviceId",
              "type": "uint256"
            },
            {
              "internalType": "uint256",
              "name": "newPrice",
              "type": "uint256"
            }
          ],
          "name": "updateDevicePricing",
          "outputs": [],
          "stateMutability": "nonpayable",
          "type": "function"
        },
        {
          "inputs": [
            {
              "internalType": "uint256",
              "name": "deviceId",
              "type": "uint256"
            },
            {
              "internalType": "bool",
              "name": "isReady",
              "type": "bool"
            }
          ],
          "name": "updateDeviceReadiness",
          "outputs": [],
          "stateMutability": "nonpayable",
          "type": "function"
        },
        {
          "inputs": [
            {
              "internalType": "uint256",
              "name": "deviceId",
              "type": "uint256"
            },
            {
              "internalType": "bool",
              "name": "isActive",
              "type": "bool"
            }
          ],
          "name": "updateDeviceStatus",
          "outputs": [],
          "stateMutability": "nonpayable",
          "type": "function"
        },
        {
          "inputs": [
            {
              "internalType": "address",
              "name": "newTokenContract",
              "type": "address"
            }
          ],
          "name": "updateTokenContract",
          "outputs": [],
          "stateMutability": "nonpayable",
          "type": "function"
        },
        {
          "inputs": [
            {
              "internalType": "address",
              "name": "",
              "type": "address"
            },
            {
              "internalType": "uint256",
              "name": "",
              "type": "uint256"
            }
          ],
          "name": "userDevices",
          "outputs": [
            {
              "internalType": "uint256",
              "name": "",
              "type": "uint256"
            }
          ],
          "stateMutability": "view",
          "type": "function"
        },
        {
          "inputs": [
            {
              "internalType": "address",
              "name": "",
              "type": "address"
            },
            {
              "internalType": "uint256",
              "name": "",
              "type": "uint256"
            }
          ],
          "name": "userOrders",
          "outputs": [
            {
              "internalType": "uint256",
              "name": "",
              "type": "uint256"
            }
          ],
          "stateMutability": "view",
          "type": "function"
        },
        {
          "inputs": [
            {
              "internalType": "address",
              "name": "",
              "type": "address"
            }
          ],
          "name": "users",
          "outputs": [
            {
              "internalType": "string",
              "name": "username",
              "type": "string"
            },
            {
              "internalType": "string",
              "name": "contactInfo",
              "type": "string"
            },
            {
              "internalType": "bool",
              "name": "isRegistered",
              "type": "bool"
            }
          ],
          "stateMutability": "view",
          "type": "function"
        },
        {
          "inputs": [
            {
              "internalType": "uint256",
              "name": "amount",
              "type": "uint256"
            }
          ],
          "name": "withdraw",
          "outputs": [],
          "stateMutability": "nonpayable",
          "type": "function"
        },
        {
          "stateMutability": "payable",
          "type": "receive"
        }
      ],
      "evm": {
        "bytecode": {
          "linkReferences": {},
          "object": "60806040526005805566038d7ea4c6800060065534801561001f57600080fd5b5060405161605f38038061605f8339818101604052810190610041919061016d565b33600160006101000a81548173ffffffffffffffffffffffffffffffffffffffff021916908373ffffffffffffffffffffffffffffffffffffffff160217905550816000806101000a81548173ffffffffffffffffffffffffffffffffffffffff021916908373ffffffffffffffffffffffffffffffffffffffff16021790555080600260006101000a81548173ffffffffffffffffffffffffffffffffffffffff021916908373ffffffffffffffffffffffffffffffffffffffff16021790555050506101ad565b600080fd5b600073ffffffffffffffffffffffffffffffffffffffff82169050919050565b600061013a8261010f565b9050919050565b61014a8161012f565b811461015557600080fd5b50565b60008151905061016781610141565b92915050565b600080604083850312156101845761018361010a565b5b600061019285828601610158565b92505060206101a385828601610158565b9150509250929050565b615ea3806101bc6000396000f3fe6080604052600436106102295760003560e01c8063856652e911610123578063b91459e9116100ab578063d7719ad21161006f578063d7719ad2146108b7578063db362817146108e0578063eb780f421461090b578063f851a44014610936578063fefa9ba91461096157610230565b8063b91459e9146107ae578063c010a064146107eb578063d09ef24114610814578063d4e3305514610851578063d5928be91461087a57610230565b80639e147f78116100f25780639e147f7814610685578063a85c38ef146106c2578063a87430ba14610709578063ad7e218114610748578063b5c139b61461077157610230565b8063856652e9146105b95780638fa0c57b146105f6578063987ee1561461061f578063989ced261461065c57610230565b80632a58b330116101b157806355a373d61161017557806355a373d6146104be578063567d107e146104e957806363c69f081461052657806382fe9f7d1461056357806384f5c2d21461058e57610230565b80632a58b330146103ed5780632e1a7d4d14610418578063341fc1101461044157806340746c831461046a5780635312ea8e1461049557610230565b806310ff8e31116101f857806310ff8e31146103035780631d2e4afd14610347578063243718d814610370578063245982ae1461039b57806325a5a754146103c457610230565b8063050730691461023557806305f395321461026057806309f110b11461029d5780630c54c392146102da57610230565b3661023057005b600080fd5b34801561024157600080fd5b5061024a61099e565b604051610257919061403f565b60405180910390f35b34801561026c57600080fd5b50610287600480360381019061028291906140d3565b610b5e565b604051610294919061403f565b60405180910390f35b3480156102a957600080fd5b506102c460048036038101906102bf919061412c565b610bf5565b6040516102d191906143a8565b60405180910390f35b3480156102e657600080fd5b5061030160048036038101906102fc91906140d3565b610eca565b005b34801561030f57600080fd5b5061032a6004803603810190610325919061412c565b611020565b60405161033e989796959493929190614441565b60405180910390f35b34801561035357600080fd5b5061036e60048036038101906103699190614602565b6111b2565b005b34801561037c57600080fd5b50610385611386565b604051610392919061403f565b60405180910390f35b3480156103a757600080fd5b506103c260048036038101906103bd919061467a565b611529565b005b3480156103d057600080fd5b506103eb60048036038101906103e691906146ba565b611669565b005b3480156103f957600080fd5b50610402611e2a565b60405161040f9190614789565b60405180910390f35b34801561042457600080fd5b5061043f600480360381019061043a919061412c565b611e30565b005b34801561044d57600080fd5b50610468600480360381019061046391906147d0565b611f6f565b005b34801561047657600080fd5b5061047f61207f565b60405161048c9190614789565b60405180910390f35b3480156104a157600080fd5b506104bc60048036038101906104b7919061412c565b612085565b005b3480156104ca57600080fd5b506104d3612217565b6040516104e0919061486f565b60405180910390f35b3480156104f557600080fd5b50610510600480360381019061050b919061467a565b61223b565b60405161051d9190614789565b60405180910390f35b34801561053257600080fd5b5061054d600480360381019061054891906140d3565b61226c565b60405161055a919061403f565b60405180910390f35b34801561056f57600080fd5b50610578612303565b604051610585919061403f565b60405180910390f35b34801561059a57600080fd5b506105a361247a565b6040516105b09190614789565b60405180910390f35b3480156105c557600080fd5b506105e060048036038101906105db919061488a565b612480565b6040516105ed9190614789565b60405180910390f35b34801561060257600080fd5b5061061d600480360381019061061891906149b0565b6124b1565b005b34801561062b57600080fd5b50610646600480360381019061064191906140d3565b61277b565b6040516106539190614ac2565b60405180910390f35b34801561066857600080fd5b50610683600480360381019061067e91906140d3565b612913565b005b34801561069157600080fd5b506106ac60048036038101906106a7919061412c565b6129e6565b6040516106b9919061403f565b60405180910390f35b3480156106ce57600080fd5b506106e960048036038101906106e4919061412c565b612a51565b6040516107009b9a99989796959493929190614b5b565b60405180910390f35b34801561071557600080fd5b50610730600480360381019061072b91906140d3565b612c70565b60405161073f93929190614c1b565b60405180910390f35b34801561075457600080fd5b5061076f600480360381019061076a9190614c60565b612db7565b005b34801561077d57600080fd5b506107986004803603810190610793919061412c565b6131f0565b6040516107a59190614789565b60405180910390f35b3480156107ba57600080fd5b506107d560048036038101906107d0919061412c565b613208565b6040516107e29190614cbc565b60405180910390f35b3480156107f757600080fd5b50610812600480360381019061080d919061412c565b613228565b005b34801561082057600080fd5b5061083b6004803603810190610836919061412c565b61385c565b6040516108489190614de3565b60405180910390f35b34801561085d57600080fd5b50610878600480360381019061087391906147d0565b613b0d565b005b34801561088657600080fd5b506108a1600480360381019061089c919061488a565b613c1d565b6040516108ae9190614789565b60405180910390f35b3480156108c357600080fd5b506108de60048036038101906108d99190614e05565b613c4e565b005b3480156108ec57600080fd5b506108f5613d23565b6040516109029190614e61565b60405180910390f35b34801561091757600080fd5b50610920613d49565b60405161092d9190614789565b60405180910390f35b34801561094257600080fd5b5061094b613d4f565b6040516109589190614e61565b60405180910390f35b34801561096d57600080fd5b506109886004803603810190610983919061412c565b613d75565b6040516109959190614789565b60405180910390f35b6060600060045467ffffffffffffffff8111156109be576109bd6144d7565b5b6040519080825280602002602001820160405280156109ec5781602001602082028036833780820191505090505b509050600080600190505b6004548111610ab45760006002811115610a1457610a13614ae4565b5b600c600083815260200190815260200160002060070160009054906101000a900460ff166002811115610a4a57610a49614ae4565b5b148015610a6d5750600c6000828152602001908152602001600020600801544210155b15610aa15780838381518110610a8657610a85614e7c565b5b6020026020010181815250508180610a9d90614eda565b9250505b8080610aac90614eda565b9150506109f7565b5060008167ffffffffffffffff811115610ad157610ad06144d7565b5b604051908082528060200260200182016040528015610aff5781602001602082028036833780820191505090505b50905060005b82811015610b5457838181518110610b2057610b1f614e7c565b5b6020026020010151828281518110610b3b57610b3a614e7c565b5b6020026020010181815250508080600101915050610b05565b5080935050505090565b6060600960008373ffffffffffffffffffffffffffffffffffffffff1673ffffffffffffffffffffffffffffffffffffffff168152602001908152602001600020805480602002602001604051908101604052809291908181526020018280548015610be957602002820191906000526020600020905b815481526020019060010190808311610bd5575b50505050509050919050565b610bfd613d92565b6008600083815260200190815260200160002060405180610120016040529081600082018054610c2c90614f51565b80601f0160208091040260200160405190810160405280929190818152602001828054610c5890614f51565b8015610ca55780601f10610c7a57610100808354040283529160200191610ca5565b820191906000526020600020905b815481529060010190602001808311610c8857829003601f168201915b50505050508152602001600182018054610cbe90614f51565b80601f0160208091040260200160405190810160405280929190818152602001828054610cea90614f51565b8015610d375780601f10610d0c57610100808354040283529160200191610d37565b820191906000526020600020905b815481529060010190602001808311610d1a57829003601f168201915b505050505081526020016002820160009054906101000a900473ffffffffffffffffffffffffffffffffffffffff1673ffffffffffffffffffffffffffffffffffffffff1673ffffffffffffffffffffffffffffffffffffffff1681526020016002820160149054906101000a900460ff161515151581526020016002820160159054906101000a900460ff161515151581526020016003820154815260200160048201805480602002602001604051908101604052809291908181526020016000905b82821015610ea7578382906000526020600020018054610e1a90614f51565b80601f0160208091040260200160405190810160405280929190818152602001828054610e4690614f51565b8015610e935780601f10610e6857610100808354040283529160200191610e93565b820191906000526020600020905b815481529060010190602001808311610e7657829003601f168201915b505050505081526020019060010190610dfb565b505050508152602001600582015481526020016006820154815250509050919050565b600160009054906101000a900473ffffffffffffffffffffffffffffffffffffffff1673ffffffffffffffffffffffffffffffffffffffff163373ffffffffffffffffffffffffffffffffffffffff1614610f5a576040517f08c379a0000000000000000000000000000000000000000000000000000000008152600401610f5190614fce565b60405180910390fd5b6000600260009054906101000a900473ffffffffffffffffffffffffffffffffffffffff16905081600260006101000a81548173ffffffffffffffffffffffffffffffffffffffff021916908373ffffffffffffffffffffffffffffffffffffffff1602179055508173ffffffffffffffffffffffffffffffffffffffff168173ffffffffffffffffffffffffffffffffffffffff167fc9e7d530d582d3d5b6157650000f66e1c1e15182323ec64d987298660b77251e60405160405180910390a35050565b600860205280600052604060002060009150905080600001805461104390614f51565b80601f016020809104026020016040519081016040528092919081815260200182805461106f90614f51565b80156110bc5780601f10611091576101008083540402835291602001916110bc565b820191906000526020600020905b81548152906001019060200180831161109f57829003601f168201915b5050505050908060010180546110d190614f51565b80601f01602080910402602001604051908101604052809291908181526020018280546110fd90614f51565b801561114a5780601f1061111f5761010080835404028352916020019161114a565b820191906000526020600020905b81548152906001019060200180831161112d57829003601f168201915b5050505050908060020160009054906101000a900473ffffffffffffffffffffffffffffffffffffffff16908060020160149054906101000a900460ff16908060020160159054906101000a900460ff16908060030154908060050154908060060154905088565b600760003373ffffffffffffffffffffffffffffffffffffffff1673ffffffffffffffffffffffffffffffffffffffff16815260200190815260200160002060020160009054906101000a900460ff1615611242576040517f08c379a00000000000000000000000000000000000000000000000000000000081526004016112399061503a565b60405180910390fd5b6000825111611286576040517f08c379a000000000000000000000000000000000000000000000000000000000815260040161127d906150a6565b60405180910390fd5b604051806060016040528083815260200182815260200160011515815250600760003373ffffffffffffffffffffffffffffffffffffffff1673ffffffffffffffffffffffffffffffffffffffff16815260200190815260200160002060008201518160000190816112f89190615268565b50602082015181600101908161130e9190615268565b5060408201518160020160006101000a81548160ff0219169083151502179055509050503373ffffffffffffffffffffffffffffffffffffffff167f92822564bab8864c3a47b34e8d23fbce5c46234eb5da261f94087b995ac0f33b838360405161137a92919061533a565b60405180910390a25050565b6060600060035467ffffffffffffffff8111156113a6576113a56144d7565b5b6040519080825280602002602001820160405280156113d45781602001602082028036833780820191505090505b509050600080600190505b600354811161147f576008600082815260200190815260200160002060020160149054906101000a900460ff16801561143857506008600082815260200190815260200160002060020160159054906101000a900460ff165b1561146c578083838151811061145157611450614e7c565b5b602002602001018181525050818061146890614eda565b9250505b808061147790614eda565b9150506113df565b5060008167ffffffffffffffff81111561149c5761149b6144d7565b5b6040519080825280602002602001820160405280156114ca5781602001602082028036833780820191505090505b50905060005b8281101561151f578381815181106114eb576114ea614e7c565b5b602002602001015182828151811061150657611505614e7c565b5b60200260200101818152505080806001019150506114d0565b5080935050505090565b813373ffffffffffffffffffffffffffffffffffffffff166008600083815260200190815260200160002060020160009054906101000a900473ffffffffffffffffffffffffffffffffffffffff1673ffffffffffffffffffffffffffffffffffffffff16146115ce576040517f08c379a00000000000000000000000000000000000000000000000000000000081526004016115c5906153bd565b60405180910390fd5b60008211611611576040517f08c379a000000000000000000000000000000000000000000000000000000000815260040161160890615429565b60405180910390fd5b816008600085815260200190815260200160002060030181905550827f43906d8f4c58ab6e431478557af705438610b39d3ca659c00d9450b0fac19f9d8360405161165c9190614789565b60405180910390a2505050565b33600760008273ffffffffffffffffffffffffffffffffffffffff1673ffffffffffffffffffffffffffffffffffffffff16815260200190815260200160002060020160009054906101000a900460ff166116f9576040517f08c379a00000000000000000000000000000000000000000000000000000000081526004016116f090615495565b60405180910390fd5b6008600087815260200190815260200160002060020160149054906101000a900460ff1661175c576040517f08c379a000000000000000000000000000000000000000000000000000000000815260040161175390615501565b60405180910390fd5b6008600087815260200190815260200160002060020160159054906101000a900460ff166117bf576040517f08c379a00000000000000000000000000000000000000000000000000000000081526004016117b690615593565b60405180910390fd5b60008411611802576040517f08c379a00000000000000000000000000000000000000000000000000000000081526004016117f9906155ff565b60405180910390fd5b6000825111611846576040517f08c379a000000000000000000000000000000000000000000000000000000000815260040161183d9061566b565b60405180910390fd5b600084600860008981526020019081526020016000206003015461186a919061568b565b90508060008054906101000a900473ffffffffffffffffffffffffffffffffffffffff1673ffffffffffffffffffffffffffffffffffffffff166370a08231336040518263ffffffff1660e01b81526004016118c69190614e61565b602060405180830381865afa1580156118e3573d6000803e3d6000fd5b505050506040513d601f19601f8201168201806040525081019061190791906156e2565b1015611948576040517f08c379a000000000000000000000000000000000000000000000000000000000815260040161193f9061575b565b60405180910390fd5b60008054906101000a900473ffffffffffffffffffffffffffffffffffffffff1673ffffffffffffffffffffffffffffffffffffffff166323b872dd3330846040518463ffffffff1660e01b81526004016119a59392919061577b565b6020604051808303816000875af11580156119c4573d6000803e3d6000fd5b505050506040513d601f19601f820116820180604052508101906119e891906157c7565b611a27576040517f08c379a0000000000000000000000000000000000000000000000000000000008152600401611a1e90615840565b60405180910390fd5b6000600460008154611a3890614eda565b91905081905590506040518061016001604052808281526020013373ffffffffffffffffffffffffffffffffffffffff16815260200188815260200189815260200183815260200142815260200185815260200160006002811115611aa057611a9f614ae4565b5b8152602001610e1088611ab3919061568b565b42611abe9190615860565b815260200187815260200186815250600c60008381526020019081526020016000206000820151816000015560208201518160010160006101000a81548173ffffffffffffffffffffffffffffffffffffffff021916908373ffffffffffffffffffffffffffffffffffffffff1602179055506040820151816002019081611b469190615268565b50606082015181600301556080820151816004015560a0820151816005015560c0820151816006019081611b7a9190615268565b5060e08201518160070160006101000a81548160ff02191690836002811115611ba657611ba5614ae4565b5b02179055506101008201518160080155610120820151816009015561014082015181600a019081611bd79190615268565b5090505081600d600083815260200190815260200160002081905550600a6000898152602001908152602001600020819080600181540180825580915050600190039060005260206000200160009091909190915055600b60003373ffffffffffffffffffffffffffffffffffffffff1673ffffffffffffffffffffffffffffffffffffffff168152602001908152602001600020819080600181540180825580915050600190039060005260206000200160009091909190915055600860008981526020019081526020016000206005016000815480929190611cba90614eda565b91905055506000600860008a815260200190815260200160002060020160156101000a81548160ff021916908315150217905550873373ffffffffffffffffffffffffffffffffffffffff16827fcfbbec2971098ff70cd66aa56048d46bdaca6bcfad3231164f23416c323fb62e8a86604051611d38929190615894565b60405180910390a46008600089815260200190815260200160002060020160009054906101000a900473ffffffffffffffffffffffffffffffffffffffff1673ffffffffffffffffffffffffffffffffffffffff16817fb7b620164792660fedf119f0852d9ab61696a836cc986d988af14d2a5a46002c60405160405180910390a3807f47bcc645b6943f52356a519ca40878cc505371af5b73b2457595edfe969e1ae660405160405180910390a2877f31bf9276bfbeeb0264279506da13ffbd75afa6ed8d082ebf3e0e8612c0b158666000604051611e189190614cbc565b60405180910390a25050505050505050565b60045481565b600160009054906101000a900473ffffffffffffffffffffffffffffffffffffffff1673ffffffffffffffffffffffffffffffffffffffff163373ffffffffffffffffffffffffffffffffffffffff1614611ec0576040517f08c379a0000000000000000000000000000000000000000000000000000000008152600401611eb790614fce565b60405180910390fd5b80471015611f03576040517f08c379a0000000000000000000000000000000000000000000000000000000008152600401611efa90615910565b60405180910390fd5b600160009054906101000a900473ffffffffffffffffffffffffffffffffffffffff1673ffffffffffffffffffffffffffffffffffffffff166108fc829081150290604051600060405180830381858888f19350505050158015611f6b573d6000803e3d6000fd5b5050565b813373ffffffffffffffffffffffffffffffffffffffff166008600083815260200190815260200160002060020160009054906101000a900473ffffffffffffffffffffffffffffffffffffffff1673ffffffffffffffffffffffffffffffffffffffff1614612014576040517f08c379a000000000000000000000000000000000000000000000000000000000815260040161200b906153bd565b60405180910390fd5b816008600085815260200190815260200160002060020160156101000a81548160ff021916908315150217905550827f31bf9276bfbeeb0264279506da13ffbd75afa6ed8d082ebf3e0e8612c0b15866836040516120729190614cbc565b60405180910390a2505050565b60055481565b600160009054906101000a900473ffffffffffffffffffffffffffffffffffffffff1673ffffffffffffffffffffffffffffffffffffffff163373ffffffffffffffffffffffffffffffffffffffff1614612115576040517f08c379a000000000000000000000000000000000000000000000000000000000815260040161210c90614fce565b60405180910390fd5b60008054906101000a900473ffffffffffffffffffffffffffffffffffffffff1673ffffffffffffffffffffffffffffffffffffffff1663a9059cbb600160009054906101000a900473ffffffffffffffffffffffffffffffffffffffff16836040518363ffffffff1660e01b8152600401612192929190615930565b6020604051808303816000875af11580156121b1573d6000803e3d6000fd5b505050506040513d601f19601f820116820180604052508101906121d591906157c7565b612214576040517f08c379a000000000000000000000000000000000000000000000000000000000815260040161220b906159a5565b60405180910390fd5b50565b60008054906101000a900473ffffffffffffffffffffffffffffffffffffffff1681565b600a602052816000526040600020818154811061225757600080fd5b90600052602060002001600091509150505481565b6060600b60008373ffffffffffffffffffffffffffffffffffffffff1673ffffffffffffffffffffffffffffffffffffffff1681526020019081526020016000208054806020026020016040519081016040528092919081815260200182805480156122f757602002820191906000526020600020905b8154815260200190600101908083116122e3575b50505050509050919050565b6060600060035467ffffffffffffffff811115612323576123226144d7565b5b6040519080825280602002602001820160405280156123515781602001602082028036833780820191505090505b509050600080600190505b60035481116123d0576008600082815260200190815260200160002060020160149054906101000a900460ff16156123bd57808383815181106123a2576123a1614e7c565b5b60200260200101818152505081806123b990614eda565b9250505b80806123c890614eda565b91505061235c565b5060008167ffffffffffffffff8111156123ed576123ec6144d7565b5b60405190808252806020026020018201604052801561241b5781602001602082028036833780820191505090505b50905060005b828110156124705783818151811061243c5761243b614e7c565b5b602002602001015182828151811061245757612456614e7c565b5b6020026020010181815250508080600101915050612421565b5080935050505090565b60065481565b600b602052816000526040600020818154811061249c57600080fd5b90600052602060002001600091509150505481565b33600760008273ffffffffffffffffffffffffffffffffffffffff1673ffffffffffffffffffffffffffffffffffffffff16815260200190815260200160002060020160009054906101000a900460ff16612541576040517f08c379a000000000000000000000000000000000000000000000000000000000815260040161253890615495565b60405180910390fd5b6000855111612585576040517f08c379a000000000000000000000000000000000000000000000000000000000815260040161257c90615a11565b60405180910390fd5b600083116125c8576040517f08c379a00000000000000000000000000000000000000000000000000000000081526004016125bf90615429565b60405180910390fd5b60006003600081546125d990614eda565b91905081905590506000600860008381526020019081526020016000209050868160000190816126099190615268565b508581600101908161261b9190615268565b50338160020160006101000a81548173ffffffffffffffffffffffffffffffffffffffff021916908373ffffffffffffffffffffffffffffffffffffffff16021790555060018160020160146101000a81548160ff02191690831515021790555060018160020160156101000a81548160ff021916908315150217905550848160030181905550838160040190805190602001906126ba929190613df8565b50600960003373ffffffffffffffffffffffffffffffffffffffff1673ffffffffffffffffffffffffffffffffffffffff1681526020019081526020016000208290806001815401808255809150506001900390600052602060002001600090919091909150553373ffffffffffffffffffffffffffffffffffffffff16827f4249929f0f688701e8330582f47182dce84e7842e59a08ad806666fc1a535537898960405161276a92919061533a565b60405180910390a350505050505050565b612783613e51565b600760008373ffffffffffffffffffffffffffffffffffffffff1673ffffffffffffffffffffffffffffffffffffffff1681526020019081526020016000206040518060600160405290816000820180546127dd90614f51565b80601f016020809104026020016040519081016040528092919081815260200182805461280990614f51565b80156128565780601f1061282b57610100808354040283529160200191612856565b820191906000526020600020905b81548152906001019060200180831161283957829003601f168201915b5050505050815260200160018201805461286f90614f51565b80601f016020809104026020016040519081016040528092919081815260200182805461289b90614f51565b80156128e85780601f106128bd576101008083540402835291602001916128e8565b820191906000526020600020905b8154815290600101906020018083116128cb57829003601f168201915b505050505081526020016002820160009054906101000a900460ff1615151515815250509050919050565b600160009054906101000a900473ffffffffffffffffffffffffffffffffffffffff1673ffffffffffffffffffffffffffffffffffffffff163373ffffffffffffffffffffffffffffffffffffffff16146129a3576040517f08c379a000000000000000000000000000000000000000000000000000000000815260040161299a90614fce565b60405180910390fd5b806000806101000a81548173ffffffffffffffffffffffffffffffffffffffff021916908373ffffffffffffffffffffffffffffffffffffffff16021790555050565b6060600a6000838152602001908152602001600020805480602002602001604051908101604052809291908181526020018280548015612a4557602002820191906000526020600020905b815481526020019060010190808311612a31575b50505050509050919050565b600c6020528060005260406000206000915090508060000154908060010160009054906101000a900473ffffffffffffffffffffffffffffffffffffffff1690806002018054612aa090614f51565b80601f0160208091040260200160405190810160405280929190818152602001828054612acc90614f51565b8015612b195780601f10612aee57610100808354040283529160200191612b19565b820191906000526020600020905b815481529060010190602001808311612afc57829003601f168201915b505050505090806003015490806004015490806005015490806006018054612b4090614f51565b80601f0160208091040260200160405190810160405280929190818152602001828054612b6c90614f51565b8015612bb95780601f10612b8e57610100808354040283529160200191612bb9565b820191906000526020600020905b815481529060010190602001808311612b9c57829003601f168201915b5050505050908060070160009054906101000a900460ff169080600801549080600901549080600a018054612bed90614f51565b80601f0160208091040260200160405190810160405280929190818152602001828054612c1990614f51565b8015612c665780601f10612c3b57610100808354040283529160200191612c66565b820191906000526020600020905b815481529060010190602001808311612c4957829003601f168201915b505050505090508b565b6007602052806000526040600020600091509050806000018054612c9390614f51565b80601f0160208091040260200160405190810160405280929190818152602001828054612cbf90614f51565b8015612d0c5780601f10612ce157610100808354040283529160200191612d0c565b820191906000526020600020905b815481529060010190602001808311612cef57829003601f168201915b505050505090806001018054612d2190614f51565b80601f0160208091040260200160405190810160405280929190818152602001828054612d4d90614f51565b8015612d9a5780601f10612d6f57610100808354040283529160200191612d9a565b820191906000526020600020905b815481529060010190602001808311612d7d57829003601f168201915b5050505050908060020160009054906101000a900460ff16905083565b813373ffffffffffffffffffffffffffffffffffffffff16600c600083815260200190815260200160002060010160009054906101000a900473ffffffffffffffffffffffffffffffffffffffff1673ffffffffffffffffffffffffffffffffffffffff161480612e9f57503373ffffffffffffffffffffffffffffffffffffffff1660086000600c600085815260200190815260200160002060030154815260200190815260200160002060020160009054906101000a900473ffffffffffffffffffffffffffffffffffffffff1673ffffffffffffffffffffffffffffffffffffffff16145b612ede576040517f08c379a0000000000000000000000000000000000000000000000000000000008152600401612ed590615a7d565b60405180910390fd5b6000600c600085815260200190815260200160002060070160009054906101000a900460ff16905060006002811115612f1a57612f19614ae4565b5b816002811115612f2d57612f2c614ae4565b5b14612f6d576040517f08c379a0000000000000000000000000000000000000000000000000000000008152600401612f6490615b0f565b60405180910390fd5b6002600c600086815260200190815260200160002060070160006101000a81548160ff02191690836002811115612fa757612fa6614ae4565b5b021790555060006002811115612fc057612fbf614ae4565b5b816002811115612fd357612fd2614ae4565b5b0361306d57600160086000600c600088815260200190815260200160002060030154815260200190815260200160002060020160156101000a81548160ff021916908315150217905550600c6000858152602001908152602001600020600301547f31bf9276bfbeeb0264279506da13ffbd75afa6ed8d082ebf3e0e8612c0b1586660016040516130649190614cbc565b60405180910390a25b6000600d60008681526020019081526020016000205490506000600d60008781526020019081526020016000208190555060008054906101000a900473ffffffffffffffffffffffffffffffffffffffff1673ffffffffffffffffffffffffffffffffffffffff1663a9059cbb600c600088815260200190815260200160002060010160009054906101000a900473ffffffffffffffffffffffffffffffffffffffff16836040518363ffffffff1660e01b815260040161312f929190615930565b6020604051808303816000875af115801561314e573d6000803e3d6000fd5b505050506040513d601f19601f8201168201806040525081019061317291906157c7565b6131b1576040517f08c379a00000000000000000000000000000000000000000000000000000000081526004016131a890615b7b565b60405180910390fd5b847f56d64c06f67a0a2c80b38a9cd2b031e911c22a2c176bea4219adc7f5e3366a92856040516131e19190615b9b565b60405180910390a25050505050565b600d6020528060005260406000206000915090505481565b600e6020528060005260406000206000915054906101000a900460ff1681565b600260009054906101000a900473ffffffffffffffffffffffffffffffffffffffff1673ffffffffffffffffffffffffffffffffffffffff163373ffffffffffffffffffffffffffffffffffffffff16146132b8576040517f08c379a00000000000000000000000000000000000000000000000000000000081526004016132af90615c09565b60405180910390fd5b8060008060028111156132ce576132cd614ae4565b5b600c600084815260200190815260200160002060070160009054906101000a900460ff16600281111561330457613303614ae4565b5b14613344576040517f08c379a000000000000000000000000000000000000000000000000000000000815260040161333b90615c75565b60405180910390fd5b6000600c6000858152602001908152602001600020905080600801544210156133a2576040517f08c379a000000000000000000000000000000000000000000000000000000000815260040161339990615ce1565b60405180910390fd5b60018160070160006101000a81548160ff021916908360028111156133ca576133c9614ae4565b5b02179055506000816003015490506008600082815260200190815260200160002060060160008154809291906133ff90614eda565b91905055506000600d6000878152602001908152602001600020549050600060646005548361342e919061568b565b6134389190615d30565b9050600081836134489190615d61565b90506000600d60008a815260200190815260200160002081905550600082111561356c5760008054906101000a900473ffffffffffffffffffffffffffffffffffffffff1673ffffffffffffffffffffffffffffffffffffffff1663a9059cbb600260009054906101000a900473ffffffffffffffffffffffffffffffffffffffff16846040518363ffffffff1660e01b81526004016134e9929190615930565b6020604051808303816000875af1158015613508573d6000803e3d6000fd5b505050506040513d601f19601f8201168201806040525081019061352c91906157c7565b61356b576040517f08c379a000000000000000000000000000000000000000000000000000000000815260040161356290615de1565b60405180910390fd5b5b60008054906101000a900473ffffffffffffffffffffffffffffffffffffffff1673ffffffffffffffffffffffffffffffffffffffff1663a9059cbb6008600087815260200190815260200160002060020160009054906101000a900473ffffffffffffffffffffffffffffffffffffffff16836040518363ffffffff1660e01b81526004016135fd929190615930565b6020604051808303816000875af115801561361c573d6000803e3d6000fd5b505050506040513d601f19601f8201168201806040525081019061364091906157c7565b61367f576040517f08c379a000000000000000000000000000000000000000000000000000000000815260040161367690615e4d565b60405180910390fd5b60065447106136f457600260009054906101000a900473ffffffffffffffffffffffffffffffffffffffff1673ffffffffffffffffffffffffffffffffffffffff166108fc6006549081150290604051600060405180830381858888f193505050501580156136f2573d6000803e3d6000fd5b505b60016008600086815260200190815260200160002060020160156101000a81548160ff021916908315150217905550600260009054906101000a900473ffffffffffffffffffffffffffffffffffffffff1673ffffffffffffffffffffffffffffffffffffffff16887f2a08a3f5f5fb5be26ad2f474b5b872881ff778103ab2d960d78b3c4a7eee19238460405161378c9190614789565b60405180910390a36008600085815260200190815260200160002060020160009054906101000a900473ffffffffffffffffffffffffffffffffffffffff1673ffffffffffffffffffffffffffffffffffffffff16887f21d71db5be59bb9fa133895586b7404307dd33fb93b16db09dc6f1d9d7d231b0836040516138119190614789565b60405180910390a3837f31bf9276bfbeeb0264279506da13ffbd75afa6ed8d082ebf3e0e8612c0b15866600160405161384a9190614cbc565b60405180910390a25050505050505050565b613864613e74565b600c600083815260200190815260200160002060405180610160016040529081600082015481526020016001820160009054906101000a900473ffffffffffffffffffffffffffffffffffffffff1673ffffffffffffffffffffffffffffffffffffffff1673ffffffffffffffffffffffffffffffffffffffff1681526020016002820180546138f390614f51565b80601f016020809104026020016040519081016040528092919081815260200182805461391f90614f51565b801561396c5780601f106139415761010080835404028352916020019161396c565b820191906000526020600020905b81548152906001019060200180831161394f57829003601f168201915b505050505081526020016003820154815260200160048201548152602001600582015481526020016006820180546139a390614f51565b80601f01602080910402602001604051908101604052809291908181526020018280546139cf90614f51565b8015613a1c5780601f106139f157610100808354040283529160200191613a1c565b820191906000526020600020905b8154815290600101906020018083116139ff57829003601f168201915b505050505081526020016007820160009054906101000a900460ff166002811115613a4a57613a49614ae4565b5b6002811115613a5c57613a5b614ae4565b5b81526020016008820154815260200160098201548152602001600a82018054613a8490614f51565b80601f0160208091040260200160405190810160405280929190818152602001828054613ab090614f51565b8015613afd5780601f10613ad257610100808354040283529160200191613afd565b820191906000526020600020905b815481529060010190602001808311613ae057829003601f168201915b5050505050815250509050919050565b813373ffffffffffffffffffffffffffffffffffffffff166008600083815260200190815260200160002060020160009054906101000a900473ffffffffffffffffffffffffffffffffffffffff1673ffffffffffffffffffffffffffffffffffffffff1614613bb2576040517f08c379a0000000000000000000000000000000000000000000000000000000008152600401613ba9906153bd565b60405180910390fd5b816008600085815260200190815260200160002060020160146101000a81548160ff021916908315150217905550827f5e973c889ee216f2a77725af957b9e59773d22adc2f5858803c7b794cba64d5783604051613c109190614cbc565b60405180910390a2505050565b60096020528160005260406000208181548110613c3957600080fd5b90600052602060002001600091509150505481565b813373ffffffffffffffffffffffffffffffffffffffff166008600083815260200190815260200160002060020160009054906101000a900473ffffffffffffffffffffffffffffffffffffffff1673ffffffffffffffffffffffffffffffffffffffff1614613cf3576040517f08c379a0000000000000000000000000000000000000000000000000000000008152600401613cea906153bd565b60405180910390fd5b81600860008581526020019081526020016000206004019080519060200190613d1d929190613df8565b50505050565b600260009054906101000a900473ffffffffffffffffffffffffffffffffffffffff1681565b60035481565b600160009054906101000a900473ffffffffffffffffffffffffffffffffffffffff1681565b6000600d6000838152602001908152602001600020549050919050565b6040518061012001604052806060815260200160608152602001600073ffffffffffffffffffffffffffffffffffffffff168152602001600015158152602001600015158152602001600081526020016060815260200160008152602001600081525090565b828054828255906000526020600020908101928215613e40579160200282015b82811115613e3f578251829081613e2f9190615268565b5091602001919060010190613e18565b5b509050613e4d9190613ef6565b5090565b604051806060016040528060608152602001606081526020016000151581525090565b60405180610160016040528060008152602001600073ffffffffffffffffffffffffffffffffffffffff168152602001606081526020016000815260200160008152602001600081526020016060815260200160006002811115613edb57613eda614ae4565b5b81526020016000815260200160008152602001606081525090565b5b80821115613f165760008181613f0d9190613f1a565b50600101613ef7565b5090565b508054613f2690614f51565b6000825580601f10613f385750613f57565b601f016020900490600052602060002090810190613f569190613f5a565b5b50565b5b80821115613f73576000816000905550600101613f5b565b5090565b600081519050919050565b600082825260208201905092915050565b6000819050602082019050919050565b6000819050919050565b613fb681613fa3565b82525050565b6000613fc88383613fad565b60208301905092915050565b6000602082019050919050565b6000613fec82613f77565b613ff68185613f82565b935061400183613f93565b8060005b838110156140325781516140198882613fbc565b975061402483613fd4565b925050600181019050614005565b5085935050505092915050565b600060208201905081810360008301526140598184613fe1565b905092915050565b6000604051905090565b600080fd5b600080fd5b600073ffffffffffffffffffffffffffffffffffffffff82169050919050565b60006140a082614075565b9050919050565b6140b081614095565b81146140bb57600080fd5b50565b6000813590506140cd816140a7565b92915050565b6000602082840312156140e9576140e861406b565b5b60006140f7848285016140be565b91505092915050565b61410981613fa3565b811461411457600080fd5b50565b60008135905061412681614100565b92915050565b6000602082840312156141425761414161406b565b5b600061415084828501614117565b91505092915050565b600081519050919050565b600082825260208201905092915050565b60005b83811015614193578082015181840152602081019050614178565b60008484015250505050565b6000601f19601f8301169050919050565b60006141bb82614159565b6141c58185614164565b93506141d5818560208601614175565b6141de8161419f565b840191505092915050565b6141f281614095565b82525050565b60008115159050919050565b61420d816141f8565b82525050565b600081519050919050565b600082825260208201905092915050565b6000819050602082019050919050565b600061424b83836141b0565b905092915050565b6000602082019050919050565b600061426b82614213565b614275818561421e565b9350836020820285016142878561422f565b8060005b858110156142c357848403895281516142a4858261423f565b94506142af83614253565b925060208a0199505060018101905061428b565b50829750879550505050505092915050565b60006101208301600083015184820360008601526142f382826141b0565b9150506020830151848203602086015261430d82826141b0565b915050604083015161432260408601826141e9565b5060608301516143356060860182614204565b5060808301516143486080860182614204565b5060a083015161435b60a0860182613fad565b5060c083015184820360c08601526143738282614260565b91505060e083015161438860e0860182613fad565b5061010083015161439d610100860182613fad565b508091505092915050565b600060208201905081810360008301526143c281846142d5565b905092915050565b600082825260208201905092915050565b60006143e682614159565b6143f081856143ca565b9350614400818560208601614175565b6144098161419f565b840191505092915050565b61441d81614095565b82525050565b61442c816141f8565b82525050565b61443b81613fa3565b82525050565b600061010082019050818103600083015261445c818b6143db565b90508181036020830152614470818a6143db565b905061447f6040830189614414565b61448c6060830188614423565b6144996080830187614423565b6144a660a0830186614432565b6144b360c0830185614432565b6144c060e0830184614432565b9998505050505050505050565b600080fd5b600080fd5b7f4e487b7100000000000000000000000000000000000000000000000000000000600052604160045260246000fd5b61450f8261419f565b810181811067ffffffffffffffff8211171561452e5761452d6144d7565b5b80604052505050565b6000614541614061565b905061454d8282614506565b919050565b600067ffffffffffffffff82111561456d5761456c6144d7565b5b6145768261419f565b9050602081019050919050565b82818337600083830152505050565b60006145a56145a084614552565b614537565b9050828152602081018484840111156145c1576145c06144d2565b5b6145cc848285614583565b509392505050565b600082601f8301126145e9576145e86144cd565b5b81356145f9848260208601614592565b91505092915050565b600080604083850312156146195761461861406b565b5b600083013567ffffffffffffffff81111561463757614636614070565b5b614643858286016145d4565b925050602083013567ffffffffffffffff81111561466457614663614070565b5b614670858286016145d4565b9150509250929050565b600080604083850312156146915761469061406b565b5b600061469f85828601614117565b92505060206146b085828601614117565b9150509250929050565b600080600080600060a086880312156146d6576146d561406b565b5b60006146e488828901614117565b955050602086013567ffffffffffffffff81111561470557614704614070565b5b614711888289016145d4565b945050604061472288828901614117565b935050606086013567ffffffffffffffff81111561474357614742614070565b5b61474f888289016145d4565b925050608086013567ffffffffffffffff8111156147705761476f614070565b5b61477c888289016145d4565b9150509295509295909350565b600060208201905061479e6000830184614432565b92915050565b6147ad816141f8565b81146147b857600080fd5b50565b6000813590506147ca816147a4565b92915050565b600080604083850312156147e7576147e661406b565b5b60006147f585828601614117565b9250506020614806858286016147bb565b9150509250929050565b6000819050919050565b600061483561483061482b84614075565b614810565b614075565b9050919050565b60006148478261481a565b9050919050565b60006148598261483c565b9050919050565b6148698161484e565b82525050565b60006020820190506148846000830184614860565b92915050565b600080604083850312156148a1576148a061406b565b5b60006148af858286016140be565b92505060206148c085828601614117565b9150509250929050565b600067ffffffffffffffff8211156148e5576148e46144d7565b5b602082029050602081019050919050565b600080fd5b600061490e614909846148ca565b614537565b90508083825260208201905060208402830185811115614931576149306148f6565b5b835b8181101561497857803567ffffffffffffffff811115614956576149556144cd565b5b80860161496389826145d4565b85526020850194505050602081019050614933565b5050509392505050565b600082601f830112614997576149966144cd565b5b81356149a78482602086016148fb565b91505092915050565b600080600080608085870312156149ca576149c961406b565b5b600085013567ffffffffffffffff8111156149e8576149e7614070565b5b6149f4878288016145d4565b945050602085013567ffffffffffffffff811115614a1557614a14614070565b5b614a21878288016145d4565b9350506040614a3287828801614117565b925050606085013567ffffffffffffffff811115614a5357614a52614070565b5b614a5f87828801614982565b91505092959194509250565b60006060830160008301518482036000860152614a8882826141b0565b91505060208301518482036020860152614aa282826141b0565b9150506040830151614ab76040860182614204565b508091505092915050565b60006020820190508181036000830152614adc8184614a6b565b905092915050565b7f4e487b7100000000000000000000000000000000000000000000000000000000600052602160045260246000fd5b60038110614b2457614b23614ae4565b5b50565b6000819050614b3582614b13565b919050565b6000614b4582614b27565b9050919050565b614b5581614b3a565b82525050565b600061016082019050614b71600083018e614432565b614b7e602083018d614414565b8181036040830152614b90818c6143db565b9050614b9f606083018b614432565b614bac608083018a614432565b614bb960a0830189614432565b81810360c0830152614bcb81886143db565b9050614bda60e0830187614b4c565b614be8610100830186614432565b614bf6610120830185614432565b818103610140830152614c0981846143db565b90509c9b505050505050505050505050565b60006060820190508181036000830152614c3581866143db565b90508181036020830152614c4981856143db565b9050614c586040830184614423565b949350505050565b60008060408385031215614c7757614c7661406b565b5b6000614c8585828601614117565b925050602083013567ffffffffffffffff811115614ca657614ca5614070565b5b614cb2858286016145d4565b9150509250929050565b6000602082019050614cd16000830184614423565b92915050565b614ce081614b3a565b82525050565b600061016083016000830151614cff6000860182613fad565b506020830151614d1260208601826141e9565b5060408301518482036040860152614d2a82826141b0565b9150506060830151614d3f6060860182613fad565b506080830151614d526080860182613fad565b5060a0830151614d6560a0860182613fad565b5060c083015184820360c0860152614d7d82826141b0565b91505060e0830151614d9260e0860182614cd7565b50610100830151614da7610100860182613fad565b50610120830151614dbc610120860182613fad565b50610140830151848203610140860152614dd682826141b0565b9150508091505092915050565b60006020820190508181036000830152614dfd8184614ce6565b905092915050565b60008060408385031215614e1c57614e1b61406b565b5b6000614e2a85828601614117565b925050602083013567ffffffffffffffff811115614e4b57614e4a614070565b5b614e5785828601614982565b9150509250929050565b6000602082019050614e766000830184614414565b92915050565b7f4e487b7100000000000000000000000000000000000000000000000000000000600052603260045260246000fd5b7f4e487b7100000000000000000000000000000000000000000000000000000000600052601160045260246000fd5b6000614ee582613fa3565b91507fffffffffffffffffffffffffffffffffffffffffffffffffffffffffffffffff8203614f1757614f16614eab565b5b600182019050919050565b7f4e487b7100000000000000000000000000000000000000000000000000000000600052602260045260246000fd5b60006002820490506001821680614f6957607f821691505b602082108103614f7c57614f7b614f22565b5b50919050565b7f4f6e6c792061646d696e00000000000000000000000000000000000000000000600082015250565b6000614fb8600a836143ca565b9150614fc382614f82565b602082019050919050565b60006020820190508181036000830152614fe781614fab565b9050919050565b7f416c726561647920726567697374657265640000000000000000000000000000600082015250565b60006150246012836143ca565b915061502f82614fee565b602082019050919050565b6000602082019050818103600083015261505381615017565b9050919050565b7f557365726e616d652063616e6e6f7420626520656d7074790000000000000000600082015250565b60006150906018836143ca565b915061509b8261505a565b602082019050919050565b600060208201905081810360008301526150bf81615083565b9050919050565b60008190508160005260206000209050919050565b60006020601f8301049050919050565b600082821b905092915050565b6000600883026151287fffffffffffffffffffffffffffffffffffffffffffffffffffffffffffffffff826150eb565b61513286836150eb565b95508019841693508086168417925050509392505050565b600061516561516061515b84613fa3565b614810565b613fa3565b9050919050565b6000819050919050565b61517f8361514a565b61519361518b8261516c565b8484546150f8565b825550505050565b600090565b6151a861519b565b6151b3818484615176565b505050565b5b818110156151d7576151cc6000826151a0565b6001810190506151b9565b5050565b601f82111561521c576151ed816150c6565b6151f6846150db565b81016020851015615205578190505b615219615211856150db565b8301826151b8565b50505b505050565b600082821c905092915050565b600061523f60001984600802615221565b1980831691505092915050565b6000615258838361522e565b9150826002028217905092915050565b61527182614159565b67ffffffffffffffff81111561528a576152896144d7565b5b6152948254614f51565b61529f8282856151db565b600060209050601f8311600181146152d257600084156152c0578287015190505b6152ca858261524c565b865550615332565b601f1984166152e0866150c6565b60005b82811015615308578489015182556001820191506020850194506020810190506152e3565b868310156153255784890151615321601f89168261522e565b8355505b6001600288020188555050505b505050505050565b6000604082019050818103600083015261535481856143db565b9050818103602083015261536881846143db565b90509392505050565b7f4e6f7420646576696365206f776e657200000000000000000000000000000000600082015250565b60006153a76010836143ca565b91506153b282615371565b602082019050919050565b600060208201905081810360008301526153d68161539a565b9050919050565b7f5072696365206d7573742062652067726561746572207468616e203000000000600082015250565b6000615413601c836143ca565b915061541e826153dd565b602082019050919050565b6000602082019050818103600083015261544281615406565b9050919050565b7f55736572206e6f74207265676973746572656400000000000000000000000000600082015250565b600061547f6013836143ca565b915061548a82615449565b602082019050919050565b600060208201905081810360008301526154ae81615472565b9050919050565b7f446576696365206973206e6f7420616374697665000000000000000000000000600082015250565b60006154eb6014836143ca565b91506154f6826154b5565b602082019050919050565b6000602082019050818103600083015261551a816154de565b9050919050565b7f446576696365206973206e6f7420726561647920746f20616363657074206f7260008201527f6465727300000000000000000000000000000000000000000000000000000000602082015250565b600061557d6024836143ca565b915061558882615521565b604082019050919050565b600060208201905081810360008301526155ac81615570565b9050919050565b7f4475726174696f6e206d7573742062652067726561746572207468616e203000600082015250565b60006155e9601f836143ca565b91506155f4826155b3565b602082019050919050565b60006020820190508181036000830152615618816155dc565b9050919050565b7f5075626c6963206b65792063616e6e6f7420626520656d707479000000000000600082015250565b6000615655601a836143ca565b91506156608261561f565b602082019050919050565b6000602082019050818103600083015261568481615648565b9050919050565b600061569682613fa3565b91506156a183613fa3565b92508282026156af81613fa3565b915082820484148315176156c6576156c5614eab565b5b5092915050565b6000815190506156dc81614100565b92915050565b6000602082840312156156f8576156f761406b565b5b6000615706848285016156cd565b91505092915050565b7f496e73756666696369656e7420746f6b656e2062616c616e6365000000000000600082015250565b6000615745601a836143ca565b91506157508261570f565b602082019050919050565b6000602082019050818103600083015261577481615738565b9050919050565b60006060820190506157906000830186614414565b61579d6020830185614414565b6157aa6040830184614432565b949350505050565b6000815190506157c1816147a4565b92915050565b6000602082840312156157dd576157dc61406b565b5b60006157eb848285016157b2565b91505092915050565b7f546f6b656e207472616e73666572206661696c65640000000000000000000000600082015250565b600061582a6015836143ca565b9150615835826157f4565b602082019050919050565b600060208201905081810360008301526158598161581d565b9050919050565b600061586b82613fa3565b915061587683613fa3565b925082820190508082111561588e5761588d614eab565b5b92915050565b600060408201905081810360008301526158ae81856143db565b90506158bd6020830184614432565b9392505050565b7f496e73756666696369656e742062616c616e6365000000000000000000000000600082015250565b60006158fa6014836143ca565b9150615905826158c4565b602082019050919050565b60006020820190508181036000830152615929816158ed565b9050919050565b60006040820190506159456000830185614414565b6159526020830184614432565b9392505050565b7f456d657267656e6379207769746864726177616c206661696c65640000000000600082015250565b600061598f601b836143ca565b915061599a82615959565b602082019050919050565b600060208201905081810360008301526159be81615982565b9050919050565b7f446576696365206e616d652063616e6e6f7420626520656d7074790000000000600082015250565b60006159fb601b836143ca565b9150615a06826159c5565b602082019050919050565b60006020820190508181036000830152615a2a816159ee565b9050919050565b7f4e6f74206f72646572207061727469636970616e740000000000000000000000600082015250565b6000615a676015836143ca565b9150615a7282615a31565b602082019050919050565b60006020820190508181036000830152615a9681615a5a565b9050919050565b7f43616e6e6f742063616e63656c206f7264657220696e2063757272656e74207360008201527f7461747573000000000000000000000000000000000000000000000000000000602082015250565b6000615af96025836143ca565b9150615b0482615a9d565b604082019050919050565b60006020820190508181036000830152615b2881615aec565b9050919050565b7f526566756e64206661696c656400000000000000000000000000000000000000600082015250565b6000615b65600d836143ca565b9150615b7082615b2f565b602082019050919050565b60006020820190508181036000830152615b9481615b58565b9050919050565b60006020820190508181036000830152615bb581846143db565b905092915050565b7f4f6e6c79206175746f6d6174696f6e20626f7400000000000000000000000000600082015250565b6000615bf36013836143ca565b9150615bfe82615bbd565b602082019050919050565b60006020820190508181036000830152615c2281615be6565b9050919050565b7f496e76616c6964206f7264657220737461747573000000000000000000000000600082015250565b6000615c5f6014836143ca565b9150615c6a82615c29565b602082019050919050565b60006020820190508181036000830152615c8e81615c52565b9050919050565b7f4f72646572206e6f742079657420657870697265640000000000000000000000600082015250565b6000615ccb6015836143ca565b9150615cd682615c95565b602082019050919050565b60006020820190508181036000830152615cfa81615cbe565b9050919050565b7f4e487b7100000000000000000000000000000000000000000000000000000000600052601260045260246000fd5b6000615d3b82613fa3565b9150615d4683613fa3565b925082615d5657615d55615d01565b5b828204905092915050565b6000615d6c82613fa3565b9150615d7783613fa3565b9250828203905081811115615d8f57615d8e614eab565b5b92915050565b7f426f7420726577617264207472616e73666572206661696c6564000000000000600082015250565b6000615dcb601a836143ca565b9150615dd682615d95565b602082019050919050565b60006020820190508181036000830152615dfa81615dbe565b9050919050565b7f5061796d656e7420746f20646576696365206f776e6572206661696c65640000600082015250565b6000615e37601e836143ca565b9150615e4282615e01565b602082019050919050565b60006020820190508181036000830152615e6681615e2a565b905091905056fea2646970667358221220c850f3c486b2818ef7c2809f19e793c2ca738d3ac995c02b975dd7957274b19264736f6c634300081c0033",
          "opcodes": "PUSH1 0x80 PUSH1 0x40 MSTORE PUSH1 0x5 DUP1 SSTORE PUSH7 0x38D7EA4C68000 PUSH1 0x6 SSTORE CALLVALUE DUP1 ISZERO PUSH2 0x1F JUMPI PUSH1 0x0 DUP1 REVERT JUMPDEST POP PUSH1 0x40 MLOAD PUSH2 0x605F CODESIZE SUB DUP1 PUSH2 0x605F DUP4 CODECOPY DUP2 DUP2 ADD PUSH1 0x40 MSTORE DUP2 ADD SWAP1 PUSH2 0x41 SWAP2 SWAP1 PUSH2 0x16D JUMP JUMPDEST CALLER PUSH1 0x1 PUSH1 0x0 PUSH2 0x100 EXP DUP2 SLOAD DUP2 PUSH20 0xFFFFFFFFFFFFFFFFFFFFFFFFFFFFFFFFFFFFFFFF MUL NOT AND SWAP1 DUP4 PUSH20 0xFFFFFFFFFFFFFFFFFFFFFFFFFFFFFFFFFFFFFFFF AND MUL OR SWAP1 SSTORE POP DUP2 PUSH1 0x0 DUP1 PUSH2 0x100 EXP DUP2 SLOAD DUP2 PUSH20 0xFFFFFFFFFFFFFFFFFFFFFFFFFFFFFFFFFFFFFFFF MUL NOT AND SWAP1 DUP4 PUSH20 0xFFFFFFFFFFFFFFFFFFFFFFFFFFFFFFFFFFFFFFFF AND MUL OR SWAP1 SSTORE POP DUP1 PUSH1 0x2 PUSH1 0x0 PUSH2 0x100 EXP DUP2 SLOAD DUP2 PUSH20 0xFFFFFFFFFFFFFFFFFFFFFFFFFFFFFFFFFFFFFFFF MUL NOT AND SWAP1 DUP4 PUSH20 0xFFFFFFFFFFFFFFFFFFFFFFFFFFFFFFFFFFFFFFFF AND MUL OR SWAP1 SSTORE POP POP POP PUSH2 0x1AD JUMP JUMPDEST PUSH1 0x0 DUP1 REVERT JUMPDEST PUSH1 0x0 PUSH20 0xFFFFFFFFFFFFFFFFFFFFFFFFFFFFFFFFFFFFFFFF DUP3 AND SWAP1 POP SWAP2 SWAP1 POP JUMP JUMPDEST PUSH1 0x0 PUSH2 0x13A DUP3 PUSH2 0x10F JUMP JUMPDEST SWAP1 POP SWAP2 SWAP1 POP JUMP JUMPDEST PUSH2 0x14A DUP2 PUSH2 0x12F JUMP JUMPDEST DUP2 EQ PUSH2 0x155 JUMPI PUSH1 0x0 DUP1 REVERT JUMPDEST POP JUMP JUMPDEST PUSH1 0x0 DUP2 MLOAD SWAP1 POP PUSH2 0x167 DUP2 PUSH2 0x141 JUMP JUMPDEST SWAP3 SWAP2 POP POP JUMP JUMPDEST PUSH1 0x0 DUP1 PUSH1 0x40 DUP4 DUP6 SUB SLT ISZERO PUSH2 0x184 JUMPI PUSH2 0x183 PUSH2 0x10A JUMP JUMPDEST JUMPDEST PUSH1 0x0 PUSH2 0x192 DUP6 DUP3 DUP7 ADD PUSH2 0x158 JUMP JUMPDEST SWAP3 POP POP PUSH1 0x20 PUSH2 0x1A3 DUP6 DUP3 DUP7 ADD PUSH2 0x158 JUMP JUMPDEST SWAP2 POP POP SWAP3 POP SWAP3 SWAP1 POP JUMP JUMPDEST PUSH2 0x5EA3 DUP1 PUSH2 0x1BC PUSH1 0x0 CODECOPY PUSH1 0x0 RETURN INVALID PUSH1 0x80 PUSH1 0x40 MSTORE PUSH1 0x4 CALLDATASIZE LT PUSH2 0x229 JUMPI PUSH1 0x0 CALLDATALOAD PUSH1 0xE0 SHR DUP1 PUSH4 0x856652E9 GT PUSH2 0x123 JUMPI DUP1 PUSH4 0xB91459E9 GT PUSH2 0xAB JUMPI DUP1 PUSH4 0xD7719AD2 GT PUSH2 0x6F JUMPI DUP1 PUSH4 0xD7719AD2 EQ PUSH2 0x8B7 JUMPI DUP1 PUSH4 0xDB362817 EQ PUSH2 0x8E0 JUMPI DUP1 PUSH4 0xEB780F42 EQ PUSH2 0x90B JUMPI DUP1 PUSH4 0xF851A440 EQ PUSH2 0x936 JUMPI DUP1 PUSH4 0xFEFA9BA9 EQ PUSH2 0x961 JUMPI PUSH2 0x230 JUMP JUMPDEST DUP1 PUSH4 0xB91459E9 EQ PUSH2 0x7AE JUMPI DUP1 PUSH4 0xC010A064 EQ PUSH2 0x7EB JUMPI DUP1 PUSH4 0xD09EF241 EQ PUSH2 0x814 JUMPI DUP1 PUSH4 0xD4E33055 EQ PUSH2 0x851 JUMPI DUP1 PUSH4 0xD5928BE9 EQ PUSH2 0x87A JUMPI PUSH2 0x230 JUMP JUMPDEST DUP1 PUSH4 0x9E147F78 GT PUSH2 0xF2 JUMPI DUP1 PUSH4 0x9E147F78 EQ PUSH2 0x685 JUMPI DUP1 PUSH4 0xA85C38EF EQ PUSH2 0x6C2 JUMPI DUP1 PUSH4 0xA87430BA EQ PUSH2 0x709 JUMPI DUP1 PUSH4 0xAD7E2181 EQ PUSH2 0x748 JUMPI DUP1 PUSH4 0xB5C139B6 EQ PUSH2 0x771 JUMPI PUSH2 0x230 JUMP JUMPDEST DUP1 PUSH4 0x856652E9 EQ PUSH2 0x5B9 JUMPI DUP1 PUSH4 0x8FA0C57B EQ PUSH2 0x5F6 JUMPI DUP1 PUSH4 0x987EE156 EQ PUSH2 0x61F JUMPI DUP1 PUSH4 0x989CED26 EQ PUSH2 0x65C JUMPI PUSH2 0x230 JUMP JUMPDEST DUP1 PUSH4 0x2A58B330 GT PUSH2 0x1B1 JUMPI DUP1 PUSH4 0x55A373D6 GT PUSH2 0x175 JUMPI DUP1 PUSH4 0x55A373D6 EQ PUSH2 0x4BE JUMPI DUP1 PUSH4 0x567D107E EQ PUSH2 0x4E9 JUMPI DUP1 PUSH4 0x63C69F08 EQ PUSH2 0x526 JUMPI DUP1 PUSH4 0x82FE9F7D EQ PUSH2 0x563 JUMPI DUP1 PUSH4 0x84F5C2D2 EQ PUSH2 0x58E JUMPI PUSH2 0x230 JUMP JUMPDEST DUP1 PUSH4 0x2A58B330 EQ PUSH2 0x3ED JUMPI DUP1 PUSH4 0x2E1A7D4D EQ PUSH2 0x418 JUMPI DUP1 PUSH4 0x341FC110 EQ PUSH2 0x441 JUMPI DUP1 PUSH4 0x40746C83 EQ PUSH2 0x46A JUMPI DUP1 PUSH4 0x5312EA8E EQ PUSH2 0x495 JUMPI PUSH2 0x230 JUMP JUMPDEST DUP1 PUSH4 0x10FF8E31 GT PUSH2 0x1F8 JUMPI DUP1 PUSH4 0x10FF8E31 EQ PUSH2 0x303 JUMPI DUP1 PUSH4 0x1D2E4AFD EQ PUSH2 0x347 JUMPI DUP1 PUSH4 0x243718D8 EQ PUSH2 0x370 JUMPI DUP1 PUSH4 0x245982AE EQ PUSH2 0x39B JUMPI DUP1 PUSH4 0x25A5A754 EQ PUSH2 0x3C4 JUMPI PUSH2 0x230 JUMP JUMPDEST DUP1 PUSH4 0x5073069 EQ PUSH2 0x235 JUMPI DUP1 PUSH4 0x5F39532 EQ PUSH2 0x260 JUMPI DUP1 PUSH4 0x9F110B1 EQ PUSH2 0x29D JUMPI DUP1 PUSH4 0xC54C392 EQ PUSH2 0x2DA JUMPI PUSH2 0x230 JUMP JUMPDEST CALLDATASIZE PUSH2 0x230 JUMPI STOP JUMPDEST PUSH1 0x0 DUP1 REVERT JUMPDEST CALLVALUE DUP1 ISZERO PUSH2 0x241 JUMPI PUSH1 0x0 DUP1 REVERT JUMPDEST POP PUSH2 0x24A PUSH2 0x99E JUMP JUMPDEST PUSH1 0x40 MLOAD PUSH2 0x257 SWAP2 SWAP1 PUSH2 0x403F JUMP JUMPDEST PUSH1 0x40 MLOAD DUP1 SWAP2 SUB SWAP1 RETURN JUMPDEST CALLVALUE DUP1 ISZERO PUSH2 0x26C JUMPI PUSH1 0x0 DUP1 REVERT JUMPDEST POP PUSH2 0x287 PUSH1 0x4 DUP1 CALLDATASIZE SUB DUP2 ADD SWAP1 PUSH2 0x282 SWAP2 SWAP1 PUSH2 0x40D3 JUMP JUMPDEST PUSH2 0xB5E JUMP JUMPDEST PUSH1 0x40 MLOAD PUSH2 0x294 SWAP2 SWAP1 PUSH2 0x403F JUMP JUMPDEST PUSH1 0x40 MLOAD DUP1 SWAP2 SUB SWAP1 RETURN JUMPDEST CALLVALUE DUP1 ISZERO PUSH2 0x2A9 JUMPI PUSH1 0x0 DUP1 REVERT JUMPDEST POP PUSH2 0x2C4 PUSH1 0x4 DUP1 CALLDATASIZE SUB DUP2 ADD SWAP1 PUSH2 0x2BF SWAP2 SWAP1 PUSH2 0x412C JUMP JUMPDEST PUSH2 0xBF5 JUMP JUMPDEST PUSH1 0x40 MLOAD PUSH2 0x2D1 SWAP2 SWAP1 PUSH2 0x43A8 JUMP JUMPDEST PUSH1 0x40 MLOAD DUP1 SWAP2 SUB SWAP1 RETURN JUMPDEST CALLVALUE DUP1 ISZERO PUSH2 0x2E6 JUMPI PUSH1 0x0 DUP1 REVERT JUMPDEST POP PUSH2 0x301 PUSH1 0x4 DUP1 CALLDATASIZE SUB DUP2 ADD SWAP1 PUSH2 0x2FC SWAP2 SWAP1 PUSH2 0x40D3 JUMP JUMPDEST PUSH2 0xECA JUMP JUMPDEST STOP JUMPDEST CALLVALUE DUP1 ISZERO PUSH2 0x30F JUMPI PUSH1 0x0 DUP1 REVERT JUMPDEST POP PUSH2 0x32A PUSH1 0x4 DUP1 CALLDATASIZE SUB DUP2 ADD SWAP1 PUSH2 0x325 SWAP2 SWAP1 PUSH2 0x412C JUMP JUMPDEST PUSH2 0x1020 JUMP JUMPDEST PUSH1 0x40 MLOAD PUSH2 0x33E SWAP9 SWAP8 SWAP7 SWAP6 SWAP5 SWAP4 SWAP3 SWAP2 SWAP1 PUSH2 0x4441 JUMP JUMPDEST PUSH1 0x40 MLOAD DUP1 SWAP2 SUB SWAP1 RETURN JUMPDEST CALLVALUE DUP1 ISZERO PUSH2 0x353 JUMPI PUSH1 0x0 DUP1 REVERT JUMPDEST POP PUSH2 0x36E PUSH1 0x4 DUP1 CALLDATASIZE SUB DUP2 ADD SWAP1 PUSH2 0x369 SWAP2 SWAP1 PUSH2 0x4602 JUMP JUMPDEST PUSH2 0x11B2 JUMP JUMPDEST STOP JUMPDEST CALLVALUE DUP1 ISZERO PUSH2 0x37C JUMPI PUSH1 0x0 DUP1 REVERT JUMPDEST POP PUSH2 0x385 PUSH2 0x1386 JUMP JUMPDEST PUSH1 0x40 MLOAD PUSH2 0x392 SWAP2 SWAP1 PUSH2 0x403F JUMP JUMPDEST PUSH1 0x40 MLOAD DUP1 SWAP2 SUB SWAP1 RETURN JUMPDEST CALLVALUE DUP1 ISZERO PUSH2 0x3A7 JUMPI PUSH1 0x0 DUP1 REVERT JUMPDEST POP PUSH2 0x3C2 PUSH1 0x4 DUP1 CALLDATASIZE SUB DUP2 ADD SWAP1 PUSH2 0x3BD SWAP2 SWAP1 PUSH2 0x467A JUMP JUMPDEST PUSH2 0x1529 JUMP JUMPDEST STOP JUMPDEST CALLVALUE DUP1 ISZERO PUSH2 0x3D0 JUMPI PUSH1 0x0 DUP1 REVERT JUMPDEST POP PUSH2 0x3EB PUSH1 0x4 DUP1 CALLDATASIZE SUB DUP2 ADD SWAP1 PUSH2 0x3E6 SWAP2 SWAP1 PUSH2 0x46BA JUMP JUMPDEST PUSH2 0x1669 JUMP JUMPDEST STOP JUMPDEST CALLVALUE DUP1 ISZERO PUSH2 0x3F9 JUMPI PUSH1 0x0 DUP1 REVERT JUMPDEST POP PUSH2 0x402 PUSH2 0x1E2A JUMP JUMPDEST PUSH1 0x40 MLOAD PUSH2 0x40F SWAP2 SWAP1 PUSH2 0x4789 JUMP JUMPDEST PUSH1 0x40 MLOAD DUP1 SWAP2 SUB SWAP1 RETURN JUMPDEST CALLVALUE DUP1 ISZERO PUSH2 0x424 JUMPI PUSH1 0x0 DUP1 REVERT JUMPDEST POP PUSH2 0x43F PUSH1 0x4 DUP1 CALLDATASIZE SUB DUP2 ADD SWAP1 PUSH2 0x43A SWAP2 SWAP1 PUSH2 0x412C JUMP JUMPDEST PUSH2 0x1E30 JUMP JUMPDEST STOP JUMPDEST CALLVALUE DUP1 ISZERO PUSH2 0x44D JUMPI PUSH1 0x0 DUP1 REVERT JUMPDEST POP PUSH2 0x468 PUSH1 0x4 DUP1 CALLDATASIZE SUB DUP2 ADD SWAP1 PUSH2 0x463 SWAP2 SWAP1 PUSH2 0x47D0 JUMP JUMPDEST PUSH2 0x1F6F JUMP JUMPDEST STOP JUMPDEST CALLVALUE DUP1 ISZERO PUSH2 0x476 JUMPI PUSH1 0x0 DUP1 REVERT JUMPDEST POP PUSH2 0x47F PUSH2 0x207F JUMP JUMPDEST PUSH1 0x40 MLOAD PUSH2 0x48C SWAP2 SWAP1 PUSH2 0x4789 JUMP JUMPDEST PUSH1 0x40 MLOAD DUP1 SWAP2 SUB SWAP1 RETURN JUMPDEST CALLVALUE DUP1 ISZERO PUSH2 0x4A1 JUMPI PUSH1 0x0 DUP1 REVERT JUMPDEST POP PUSH2 0x4BC PUSH1 0x4 DUP1 CALLDATASIZE SUB DUP2 ADD SWAP1 PUSH2 0x4B7 SWAP2 SWAP1 PUSH2 0x412C JUMP JUMPDEST PUSH2 0x2085 JUMP JUMPDEST STOP JUMPDEST CALLVALUE DUP1 ISZERO PUSH2 0x4CA JUMPI PUSH1 0x0 DUP1 REVERT JUMPDEST POP PUSH2 0x4D3 PUSH2 0x2217 JUMP JUMPDEST PUSH1 0x40 MLOAD PUSH2 0x4E0 SWAP2 SWAP1 PUSH2 0x486F JUMP JUMPDEST PUSH1 0x40 MLOAD DUP1 SWAP2 SUB SWAP1 RETURN JUMPDEST CALLVALUE DUP1 ISZERO PUSH2 0x4F5 JUMPI PUSH1 0x0 DUP1 REVERT JUMPDEST POP PUSH2 0x510 PUSH1 0x4 DUP1 CALLDATASIZE SUB DUP2 ADD SWAP1 PUSH2 0x50B SWAP2 SWAP1 PUSH2 0x467A JUMP JUMPDEST PUSH2 0x223B JUMP JUMPDEST PUSH1 0x40 MLOAD PUSH2 0x51D SWAP2 SWAP1 PUSH2 0x4789 JUMP JUMPDEST PUSH1 0x40 MLOAD DUP1 SWAP2 SUB SWAP1 RETURN JUMPDEST CALLVALUE DUP1 ISZERO PUSH2 0x532 JUMPI PUSH1 0x0 DUP1 REVERT JUMPDEST POP PUSH2 0x54D PUSH1 0x4 DUP1 CALLDATASIZE SUB DUP2 ADD SWAP1 PUSH2 0x548 SWAP2 SWAP1 PUSH2 0x40D3 JUMP JUMPDEST PUSH2 0x226C JUMP JUMPDEST PUSH1 0x40 MLOAD PUSH2 0x55A SWAP2 SWAP1 PUSH2 0x403F JUMP JUMPDEST PUSH1 0x40 MLOAD DUP1 SWAP2 SUB SWAP1 RETURN JUMPDEST CALLVALUE DUP1 ISZERO PUSH2 0x56F JUMPI PUSH1 0x0 DUP1 REVERT JUMPDEST POP PUSH2 0x578 PUSH2 0x2303 JUMP JUMPDEST PUSH1 0x40 MLOAD PUSH2 0x585 SWAP2 SWAP1 PUSH2 0x403F JUMP JUMPDEST PUSH1 0x40 MLOAD DUP1 SWAP2 SUB SWAP1 RETURN JUMPDEST CALLVALUE DUP1 ISZERO PUSH2 0x59A JUMPI PUSH1 0x0 DUP1 REVERT JUMPDEST POP PUSH2 0x5A3 PUSH2 0x247A JUMP JUMPDEST PUSH1 0x40 MLOAD PUSH2 0x5B0 SWAP2 SWAP1 PUSH2 0x4789 JUMP JUMPDEST PUSH1 0x40 MLOAD DUP1 SWAP2 SUB SWAP1 RETURN JUMPDEST CALLVALUE DUP1 ISZERO PUSH2 0x5C5 JUMPI PUSH1 0x0 DUP1 REVERT JUMPDEST POP PUSH2 0x5E0 PUSH1 0x4 DUP1 CALLDATASIZE SUB DUP2 ADD SWAP1 PUSH2 0x5DB SWAP2 SWAP1 PUSH2 0x488A JUMP JUMPDEST PUSH2 0x2480 JUMP JUMPDEST PUSH1 0x40 MLOAD PUSH2 0x5ED SWAP2 SWAP1 PUSH2 0x4789 JUMP JUMPDEST PUSH1 0x40 MLOAD DUP1 SWAP2 SUB SWAP1 RETURN JUMPDEST CALLVALUE DUP1 ISZERO PUSH2 0x602 JUMPI PUSH1 0x0 DUP1 REVERT JUMPDEST POP PUSH2 0x61D PUSH1 0x4 DUP1 CALLDATASIZE SUB DUP2 ADD SWAP1 PUSH2 0x618 SWAP2 SWAP1 PUSH2 0x49B0 JUMP JUMPDEST PUSH2 0x24B1 JUMP JUMPDEST STOP JUMPDEST CALLVALUE DUP1 ISZERO PUSH2 0x62B JUMPI PUSH1 0x0 DUP1 REVERT JUMPDEST POP PUSH2 0x646 PUSH1 0x4 DUP1 CALLDATASIZE SUB DUP2 ADD SWAP1 PUSH2 0x641 SWAP2 SWAP1 PUSH2 0x40D3 JUMP JUMPDEST PUSH2 0x277B JUMP JUMPDEST PUSH1 0x40 MLOAD PUSH2 0x653 SWAP2 SWAP1 PUSH2 0x4AC2 JUMP JUMPDEST PUSH1 0x40 MLOAD DUP1 SWAP2 SUB SWAP1 RETURN JUMPDEST CALLVALUE DUP1 ISZERO PUSH2 0x668 JUMPI PUSH1 0x0 DUP1 REVERT JUMPDEST POP PUSH2 0x683 PUSH1 0x4 DUP1 CALLDATASIZE SUB DUP2 ADD SWAP1 PUSH2 0x67E SWAP2 SWAP1 PUSH2 0x40D3 JUMP JUMPDEST PUSH2 0x2913 JUMP JUMPDEST STOP JUMPDEST CALLVALUE DUP1 ISZERO PUSH2 0x691 JUMPI PUSH1 0x0 DUP1 REVERT JUMPDEST POP PUSH2 0x6AC PUSH1 0x4 DUP1 CALLDATASIZE SUB DUP2 ADD SWAP1 PUSH2 0x6A7 SWAP2 SWAP1 PUSH2 0x412C JUMP JUMPDEST PUSH2 0x29E6 JUMP JUMPDEST PUSH1 0x40 MLOAD PUSH2 0x6B9 SWAP2 SWAP1 PUSH2 0x403F JUMP JUMPDEST PUSH1 0x40 MLOAD DUP1 SWAP2 SUB SWAP1 RETURN JUMPDEST CALLVALUE DUP1 ISZERO PUSH2 0x6CE JUMPI PUSH1 0x0 DUP1 REVERT JUMPDEST POP PUSH2 0x6E9 PUSH1 0x4 DUP1 CALLDATASIZE SUB DUP2 ADD SWAP1 PUSH2 0x6E4 SWAP2 SWAP1 PUSH2 0x412C JUMP JUMPDEST PUSH2 0x2A51 JUMP JUMPDEST PUSH1 0x40 MLOAD PUSH2 0x700 SWAP12 SWAP11 SWAP10 SWAP9 SWAP8 SWAP7 SWAP6 SWAP5 SWAP4 SWAP3 SWAP2 SWAP1 PUSH2 0x4B5B JUMP JUMPDEST PUSH1 0x40 MLOAD DUP1 SWAP2 SUB SWAP1 RETURN JUMPDEST CALLVALUE DUP1 ISZERO PUSH2 0x715 JUMPI PUSH1 0x0 DUP1 REVERT JUMPDEST POP PUSH2 0x730 PUSH1 0x4 DUP1 CALLDATASIZE SUB DUP2 ADD SWAP1 PUSH2 0x72B SWAP2 SWAP1 PUSH2 0x40D3 JUMP JUMPDEST PUSH2 0x2C70 JUMP JUMPDEST PUSH1 0x40 MLOAD PUSH2 0x73F SWAP4 SWAP3 SWAP2 SWAP1 PUSH2 0x4C1B JUMP JUMPDEST PUSH1 0x40 MLOAD DUP1 SWAP2 SUB SWAP1 RETURN JUMPDEST CALLVALUE DUP1 ISZERO PUSH2 0x754 JUMPI PUSH1 0x0 DUP1 REVERT JUMPDEST POP PUSH2 0x76F PUSH1 0x4 DUP1 CALLDATASIZE SUB DUP2 ADD SWAP1 PUSH2 0x76A SWAP2 SWAP1 PUSH2 0x4C60 JUMP JUMPDEST PUSH2 0x2DB7 JUMP JUMPDEST STOP JUMPDEST CALLVALUE DUP1 ISZERO PUSH2 0x77D JUMPI PUSH1 0x0 DUP1 REVERT JUMPDEST POP PUSH2 0x798 PUSH1 0x4 DUP1 CALLDATASIZE SUB DUP2 ADD SWAP1 PUSH2 0x793 SWAP2 SWAP1 PUSH2 0x412C JUMP JUMPDEST PUSH2 0x31F0 JUMP JUMPDEST PUSH1 0x40 MLOAD PUSH2 0x7A5 SWAP2 SWAP1 PUSH2 0x4789 JUMP JUMPDEST PUSH1 0x40 MLOAD DUP1 SWAP2 SUB SWAP1 RETURN JUMPDEST CALLVALUE DUP1 ISZERO PUSH2 0x7BA JUMPI PUSH1 0x0 DUP1 REVERT JUMPDEST POP PUSH2 0x7D5 PUSH1 0x4 DUP1 CALLDATASIZE SUB DUP2 ADD SWAP1 PUSH2 0x7D0 SWAP2 SWAP1 PUSH2 0x412C JUMP JUMPDEST PUSH2 0x3208 JUMP JUMPDEST PUSH1 0x40 MLOAD PUSH2 0x7E2 SWAP2 SWAP1 PUSH2 0x4CBC JUMP JUMPDEST PUSH1 0x40 MLOAD DUP1 SWAP2 SUB SWAP1 RETURN JUMPDEST CALLVALUE DUP1 ISZERO PUSH2 0x7F7 JUMPI PUSH1 0x0 DUP1 REVERT JUMPDEST POP PUSH2 0x812 PUSH1 0x4 DUP1 CALLDATASIZE SUB DUP2 ADD SWAP1 PUSH2 0x80D SWAP2 SWAP1 PUSH2 0x412C JUMP JUMPDEST PUSH2 0x3228 JUMP JUMPDEST STOP JUMPDEST CALLVALUE DUP1 ISZERO PUSH2 0x820 JUMPI PUSH1 0x0 DUP1 REVERT JUMPDEST POP PUSH2 0x83B PUSH1 0x4 DUP1 CALLDATASIZE SUB DUP2 ADD SWAP1 PUSH2 0x836 SWAP2 SWAP1 PUSH2 0x412C JUMP JUMPDEST PUSH2 0x385C JUMP JUMPDEST PUSH1 0x40 MLOAD PUSH2 0x848 SWAP2 SWAP1 PUSH2 0x4DE3 JUMP JUMPDEST PUSH1 0x40 MLOAD DUP1 SWAP2 SUB SWAP1 RETURN JUMPDEST CALLVALUE DUP1 ISZERO PUSH2 0x85D JUMPI PUSH1 0x0 DUP1 REVERT JUMPDEST POP PUSH2 0x878 PUSH1 0x4 DUP1 CALLDATASIZE SUB DUP2 ADD SWAP1 PUSH2 0x873 SWAP2 SWAP1 PUSH2 0x47D0 JUMP JUMPDEST PUSH2 0x3B0D JUMP JUMPDEST STOP JUMPDEST CALLVALUE DUP1 ISZERO PUSH2 0x886 JUMPI PUSH1 0x0 DUP1 REVERT JUMPDEST POP PUSH2 0x8A1 PUSH1 0x4 DUP1 CALLDATASIZE SUB DUP2 ADD SWAP1 PUSH2 0x89C SWAP2 SWAP1 PUSH2 0x488A JUMP JUMPDEST PUSH2 0x3C1D JUMP JUMPDEST PUSH1 0x40 MLOAD PUSH2 0x8AE SWAP2 SWAP1 PUSH2 0x4789 JUMP JUMPDEST PUSH1 0x40 MLOAD DUP1 SWAP2 SUB SWAP1 RETURN JUMPDEST CALLVALUE DUP1 ISZERO PUSH2 0x8C3 JUMPI PUSH1 0x0 DUP1 REVERT JUMPDEST POP PUSH2 0x8DE PUSH1 0x4 DUP1 CALLDATASIZE SUB DUP2 ADD SWAP1 PUSH2 0x8D9 SWAP2 SWAP1 PUSH2 0x4E05 JUMP JUMPDEST PUSH2 0x3C4E JUMP JUMPDEST STOP JUMPDEST CALLVALUE DUP1 ISZERO PUSH2 0x8EC JUMPI PUSH1 0x0 DUP1 REVERT JUMPDEST POP PUSH2 0x8F5 PUSH2 0x3D23 JUMP JUMPDEST PUSH1 0x40 MLOAD PUSH2 0x902 SWAP2 SWAP1 PUSH2 0x4E61 JUMP JUMPDEST PUSH1 0x40 MLOAD DUP1 SWAP2 SUB SWAP1 RETURN JUMPDEST CALLVALUE DUP1 ISZERO PUSH2 0x917 JUMPI PUSH1 0x0 DUP1 REVERT JUMPDEST POP PUSH2 0x920 PUSH2 0x3D49 JUMP JUMPDEST PUSH1 0x40 MLOAD PUSH2 0x92D SWAP2 SWAP1 PUSH2 0x4789 JUMP JUMPDEST PUSH1 0x40 MLOAD DUP1 SWAP2 SUB SWAP1 RETURN JUMPDEST CALLVALUE DUP1 ISZERO PUSH2 0x942 JUMPI PUSH1 0x0 DUP1 REVERT JUMPDEST POP PUSH2 0x94B PUSH2 0x3D4F JUMP JUMPDEST PUSH1 0x40 MLOAD PUSH2 0x958 SWAP2 SWAP1 PUSH2 0x4E61 JUMP JUMPDEST PUSH1 0x40 MLOAD DUP1 SWAP2 SUB SWAP1 RETURN JUMPDEST CALLVALUE DUP1 ISZERO PUSH2 0x96D JUMPI PUSH1 0x0 DUP1 REVERT JUMPDEST POP PUSH2 0x988 PUSH1 0x4 DUP1 CALLDATASIZE SUB DUP2 ADD SWAP1 PUSH2 0x983 SWAP2 SWAP1 PUSH2 0x412C JUMP JUMPDEST PUSH2 0x3D75 JUMP JUMPDEST PUSH1 0x40 MLOAD PUSH2 0x995 SWAP2 SWAP1 PUSH2 0x4789 JUMP JUMPDEST PUSH1 0x40 MLOAD DUP1 SWAP2 SUB SWAP1 RETURN JUMPDEST PUSH1 0x60 PUSH1 0x0 PUSH1 0x4 SLOAD PUSH8 0xFFFFFFFFFFFFFFFF DUP2 GT ISZERO PUSH2 0x9BE JUMPI PUSH2 0x9BD PUSH2 0x44D7 JUMP JUMPDEST JUMPDEST PUSH1 0x40 MLOAD SWAP1 DUP1 DUP3 MSTORE DUP1 PUSH1 0x20 MUL PUSH1 0x20 ADD DUP3 ADD PUSH1 0x40 MSTORE DUP1 ISZERO PUSH2 0x9EC JUMPI DUP2 PUSH1 0x20 ADD PUSH1 0x20 DUP3 MUL DUP1 CALLDATASIZE DUP4 CALLDATACOPY DUP1 DUP3 ADD SWAP2 POP POP SWAP1 POP JUMPDEST POP SWAP1 POP PUSH1 0x0 DUP1 PUSH1 0x1 SWAP1 POP JUMPDEST PUSH1 0x4 SLOAD DUP2 GT PUSH2 0xAB4 JUMPI PUSH1 0x0 PUSH1 0x2 DUP2 GT ISZERO PUSH2 0xA14 JUMPI PUSH2 0xA13 PUSH2 0x4AE4 JUMP JUMPDEST JUMPDEST PUSH1 0xC PUSH1 0x0 DUP4 DUP2 MSTORE PUSH1 0x20 ADD SWAP1 DUP2 MSTORE PUSH1 0x20 ADD PUSH1 0x0 KECCAK256 PUSH1 0x7 ADD PUSH1 0x0 SWAP1 SLOAD SWAP1 PUSH2 0x100 EXP SWAP1 DIV PUSH1 0xFF AND PUSH1 0x2 DUP2 GT ISZERO PUSH2 0xA4A JUMPI PUSH2 0xA49 PUSH2 0x4AE4 JUMP JUMPDEST JUMPDEST EQ DUP1 ISZERO PUSH2 0xA6D JUMPI POP PUSH1 0xC PUSH1 0x0 DUP3 DUP2 MSTORE PUSH1 0x20 ADD SWAP1 DUP2 MSTORE PUSH1 0x20 ADD PUSH1 0x0 KECCAK256 PUSH1 0x8 ADD SLOAD TIMESTAMP LT ISZERO JUMPDEST ISZERO PUSH2 0xAA1 JUMPI DUP1 DUP4 DUP4 DUP2 MLOAD DUP2 LT PUSH2 0xA86 JUMPI PUSH2 0xA85 PUSH2 0x4E7C JUMP JUMPDEST JUMPDEST PUSH1 0x20 MUL PUSH1 0x20 ADD ADD DUP2 DUP2 MSTORE POP POP DUP2 DUP1 PUSH2 0xA9D SWAP1 PUSH2 0x4EDA JUMP JUMPDEST SWAP3 POP POP JUMPDEST DUP1 DUP1 PUSH2 0xAAC SWAP1 PUSH2 0x4EDA JUMP JUMPDEST SWAP2 POP POP PUSH2 0x9F7 JUMP JUMPDEST POP PUSH1 0x0 DUP2 PUSH8 0xFFFFFFFFFFFFFFFF DUP2 GT ISZERO PUSH2 0xAD1 JUMPI PUSH2 0xAD0 PUSH2 0x44D7 JUMP JUMPDEST JUMPDEST PUSH1 0x40 MLOAD SWAP1 DUP1 DUP3 MSTORE DUP1 PUSH1 0x20 MUL PUSH1 0x20 ADD DUP3 ADD PUSH1 0x40 MSTORE DUP1 ISZERO PUSH2 0xAFF JUMPI DUP2 PUSH1 0x20 ADD PUSH1 0x20 DUP3 MUL DUP1 CALLDATASIZE DUP4 CALLDATACOPY DUP1 DUP3 ADD SWAP2 POP POP SWAP1 POP JUMPDEST POP SWAP1 POP PUSH1 0x0 JUMPDEST DUP3 DUP2 LT ISZERO PUSH2 0xB54 JUMPI DUP4 DUP2 DUP2 MLOAD DUP2 LT PUSH2 0xB20 JUMPI PUSH2 0xB1F PUSH2 0x4E7C JUMP JUMPDEST JUMPDEST PUSH1 0x20 MUL PUSH1 0x20 ADD ADD MLOAD DUP3 DUP3 DUP2 MLOAD DUP2 LT PUSH2 0xB3B JUMPI PUSH2 0xB3A PUSH2 0x4E7C JUMP JUMPDEST JUMPDEST PUSH1 0x20 MUL PUSH1 0x20 ADD ADD DUP2 DUP2 MSTORE POP POP DUP1 DUP1 PUSH1 0x1 ADD SWAP2 POP POP PUSH2 0xB05 JUMP JUMPDEST POP DUP1 SWAP4 POP POP POP POP SWAP1 JUMP JUMPDEST PUSH1 0x60 PUSH1 0x9 PUSH1 0x0 DUP4 PUSH20 0xFFFFFFFFFFFFFFFFFFFFFFFFFFFFFFFFFFFFFFFF AND PUSH20 0xFFFFFFFFFFFFFFFFFFFFFFFFFFFFFFFFFFFFFFFF AND DUP2 MSTORE PUSH1 0x20 ADD SWAP1 DUP2 MSTORE PUSH1 0x20 ADD PUSH1 0x0 KECCAK256 DUP1 SLOAD DUP1 PUSH1 0x20 MUL PUSH1 0x20 ADD PUSH1 0x40 MLOAD SWAP1 DUP2 ADD PUSH1 0x40 MSTORE DUP1 SWAP3 SWAP2 SWAP1 DUP2 DUP2 MSTORE PUSH1 0x20 ADD DUP3 DUP1 SLOAD DUP1 ISZERO PUSH2 0xBE9 JUMPI PUSH1 0x20 MUL DUP3 ADD SWAP2 SWAP1 PUSH1 0x0 MSTORE PUSH1 0x20 PUSH1 0x0 KECCAK256 SWAP1 JUMPDEST DUP2 SLOAD DUP2 MSTORE PUSH1 0x20 ADD SWAP1 PUSH1 0x1 ADD SWAP1 DUP1 DUP4 GT PUSH2 0xBD5 JUMPI JUMPDEST POP POP POP POP POP SWAP1 POP SWAP2 SWAP1 POP JUMP JUMPDEST PUSH2 0xBFD PUSH2 0x3D92 JUMP JUMPDEST PUSH1 0x8 PUSH1 0x0 DUP4 DUP2 MSTORE PUSH1 0x20 ADD SWAP1 DUP2 MSTORE PUSH1 0x20 ADD PUSH1 0x0 KECCAK256 PUSH1 0x40 MLOAD DUP1 PUSH2 0x120 ADD PUSH1 0x40 MSTORE SWAP1 DUP2 PUSH1 0x0 DUP3 ADD DUP1 SLOAD PUSH2 0xC2C SWAP1 PUSH2 0x4F51 JUMP JUMPDEST DUP1 PUSH1 0x1F ADD PUSH1 0x20 DUP1 SWAP2 DIV MUL PUSH1 0x20 ADD PUSH1 0x40 MLOAD SWAP1 DUP2 ADD PUSH1 0x40 MSTORE DUP1 SWAP3 SWAP2 SWAP1 DUP2 DUP2 MSTORE PUSH1 0x20 ADD DUP3 DUP1 SLOAD PUSH2 0xC58 SWAP1 PUSH2 0x4F51 JUMP JUMPDEST DUP1 ISZERO PUSH2 0xCA5 JUMPI DUP1 PUSH1 0x1F LT PUSH2 0xC7A JUMPI PUSH2 0x100 DUP1 DUP4 SLOAD DIV MUL DUP4 MSTORE SWAP2 PUSH1 0x20 ADD SWAP2 PUSH2 0xCA5 JUMP JUMPDEST DUP3 ADD SWAP2 SWAP1 PUSH1 0x0 MSTORE PUSH1 0x20 PUSH1 0x0 KECCAK256 SWAP1 JUMPDEST DUP2 SLOAD DUP2 MSTORE SWAP1 PUSH1 0x1 ADD SWAP1 PUSH1 0x20 ADD DUP1 DUP4 GT PUSH2 0xC88 JUMPI DUP3 SWAP1 SUB PUSH1 0x1F AND DUP3 ADD SWAP2 JUMPDEST POP POP POP POP POP DUP2 MSTORE PUSH1 0x20 ADD PUSH1 0x1 DUP3 ADD DUP1 SLOAD PUSH2 0xCBE SWAP1 PUSH2 0x4F51 JUMP JUMPDEST DUP1 PUSH1 0x1F ADD PUSH1 0x20 DUP1 SWAP2 DIV MUL PUSH1 0x20 ADD PUSH1 0x40 MLOAD SWAP1 DUP2 ADD PUSH1 0x40 MSTORE DUP1 SWAP3 SWAP2 SWAP1 DUP2 DUP2 MSTORE PUSH1 0x20 ADD DUP3 DUP1 SLOAD PUSH2 0xCEA SWAP1 PUSH2 0x4F51 JUMP JUMPDEST DUP1 ISZERO PUSH2 0xD37 JUMPI DUP1 PUSH1 0x1F LT PUSH2 0xD0C JUMPI PUSH2 0x100 DUP1 DUP4 SLOAD DIV MUL DUP4 MSTORE SWAP2 PUSH1 0x20 ADD SWAP2 PUSH2 0xD37 JUMP JUMPDEST DUP3 ADD SWAP2 SWAP1 PUSH1 0x0 MSTORE PUSH1 0x20 PUSH1 0x0 KECCAK256 SWAP1 JUMPDEST DUP2 SLOAD DUP2 MSTORE SWAP1 PUSH1 0x1 ADD SWAP1 PUSH1 0x20 ADD DUP1 DUP4 GT PUSH2 0xD1A JUMPI DUP3 SWAP1 SUB PUSH1 0x1F AND DUP3 ADD SWAP2 JUMPDEST POP POP POP POP POP DUP2 MSTORE PUSH1 0x20 ADD PUSH1 0x2 DUP3 ADD PUSH1 0x0 SWAP1 SLOAD SWAP1 PUSH2 0x100 EXP SWAP1 DIV PUSH20 0xFFFFFFFFFFFFFFFFFFFFFFFFFFFFFFFFFFFFFFFF AND PUSH20 0xFFFFFFFFFFFFFFFFFFFFFFFFFFFFFFFFFFFFFFFF AND PUSH20 0xFFFFFFFFFFFFFFFFFFFFFFFFFFFFFFFFFFFFFFFF AND DUP2 MSTORE PUSH1 0x20 ADD PUSH1 0x2 DUP3 ADD PUSH1 0x14 SWAP1 SLOAD SWAP1 PUSH2 0x100 EXP SWAP1 DIV PUSH1 0xFF AND ISZERO ISZERO ISZERO ISZERO DUP2 MSTORE PUSH1 0x20 ADD PUSH1 0x2 DUP3 ADD PUSH1 0x15 SWAP1 SLOAD SWAP1 PUSH2 0x100 EXP SWAP1 DIV PUSH1 0xFF AND ISZERO ISZERO ISZERO ISZERO DUP2 MSTORE PUSH1 0x20 ADD PUSH1 0x3 DUP3 ADD SLOAD DUP2 MSTORE PUSH1 0x20 ADD PUSH1 0x4 DUP3 ADD DUP1 SLOAD DUP1 PUSH1 0x20 MUL PUSH1 0x20 ADD PUSH1 0x40 MLOAD SWAP1 DUP2 ADD PUSH1 0x40 MSTORE DUP1 SWAP3 SWAP2 SWAP1 DUP2 DUP2 MSTORE PUSH1 0x20 ADD PUSH1 0x0 SWAP1 JUMPDEST DUP3 DUP3 LT ISZERO PUSH2 0xEA7 JUMPI DUP4 DUP3 SWAP1 PUSH1 0x0 MSTORE PUSH1 0x20 PUSH1 0x0 KECCAK256 ADD DUP1 SLOAD PUSH2 0xE1A SWAP1 PUSH2 0x4F51 JUMP JUMPDEST DUP1 PUSH1 0x1F ADD PUSH1 0x20 DUP1 SWAP2 DIV MUL PUSH1 0x20 ADD PUSH1 0x40 MLOAD SWAP1 DUP2 ADD PUSH1 0x40 MSTORE DUP1 SWAP3 SWAP2 SWAP1 DUP2 DUP2 MSTORE PUSH1 0x20 ADD DUP3 DUP1 SLOAD PUSH2 0xE46 SWAP1 PUSH2 0x4F51 JUMP JUMPDEST DUP1 ISZERO PUSH2 0xE93 JUMPI DUP1 PUSH1 0x1F LT PUSH2 0xE68 JUMPI PUSH2 0x100 DUP1 DUP4 SLOAD DIV MUL DUP4 MSTORE SWAP2 PUSH1 0x20 ADD SWAP2 PUSH2 0xE93 JUMP JUMPDEST DUP3 ADD SWAP2 SWAP1 PUSH1 0x0 MSTORE PUSH1 0x20 PUSH1 0x0 KECCAK256 SWAP1 JUMPDEST DUP2 SLOAD DUP2 MSTORE SWAP1 PUSH1 0x1 ADD SWAP1 PUSH1 0x20 ADD DUP1 DUP4 GT PUSH2 0xE76 JUMPI DUP3 SWAP1 SUB PUSH1 0x1F AND DUP3 ADD SWAP2 JUMPDEST POP POP POP POP POP DUP2 MSTORE PUSH1 0x20 ADD SWAP1 PUSH1 0x1 ADD SWAP1 PUSH2 0xDFB JUMP JUMPDEST POP POP POP POP DUP2 MSTORE PUSH1 0x20 ADD PUSH1 0x5 DUP3 ADD SLOAD DUP2 MSTORE PUSH1 0x20 ADD PUSH1 0x6 DUP3 ADD SLOAD DUP2 MSTORE POP POP SWAP1 POP SWAP2 SWAP1 POP JUMP JUMPDEST PUSH1 0x1 PUSH1 0x0 SWAP1 SLOAD SWAP1 PUSH2 0x100 EXP SWAP1 DIV PUSH20 0xFFFFFFFFFFFFFFFFFFFFFFFFFFFFFFFFFFFFFFFF AND PUSH20 0xFFFFFFFFFFFFFFFFFFFFFFFFFFFFFFFFFFFFFFFF AND CALLER PUSH20 0xFFFFFFFFFFFFFFFFFFFFFFFFFFFFFFFFFFFFFFFF AND EQ PUSH2 0xF5A JUMPI PUSH1 0x40 MLOAD PUSH32 0x8C379A000000000000000000000000000000000000000000000000000000000 DUP2 MSTORE PUSH1 0x4 ADD PUSH2 0xF51 SWAP1 PUSH2 0x4FCE JUMP JUMPDEST PUSH1 0x40 MLOAD DUP1 SWAP2 SUB SWAP1 REVERT JUMPDEST PUSH1 0x0 PUSH1 0x2 PUSH1 0x0 SWAP1 SLOAD SWAP1 PUSH2 0x100 EXP SWAP1 DIV PUSH20 0xFFFFFFFFFFFFFFFFFFFFFFFFFFFFFFFFFFFFFFFF AND SWAP1 POP DUP2 PUSH1 0x2 PUSH1 0x0 PUSH2 0x100 EXP DUP2 SLOAD DUP2 PUSH20 0xFFFFFFFFFFFFFFFFFFFFFFFFFFFFFFFFFFFFFFFF MUL NOT AND SWAP1 DUP4 PUSH20 0xFFFFFFFFFFFFFFFFFFFFFFFFFFFFFFFFFFFFFFFF AND MUL OR SWAP1 SSTORE POP DUP2 PUSH20 0xFFFFFFFFFFFFFFFFFFFFFFFFFFFFFFFFFFFFFFFF AND DUP2 PUSH20 0xFFFFFFFFFFFFFFFFFFFFFFFFFFFFFFFFFFFFFFFF AND PUSH32 0xC9E7D530D582D3D5B6157650000F66E1C1E15182323EC64D987298660B77251E PUSH1 0x40 MLOAD PUSH1 0x40 MLOAD DUP1 SWAP2 SUB SWAP1 LOG3 POP POP JUMP JUMPDEST PUSH1 0x8 PUSH1 0x20 MSTORE DUP1 PUSH1 0x0 MSTORE PUSH1 0x40 PUSH1 0x0 KECCAK256 PUSH1 0x0 SWAP2 POP SWAP1 POP DUP1 PUSH1 0x0 ADD DUP1 SLOAD PUSH2 0x1043 SWAP1 PUSH2 0x4F51 JUMP JUMPDEST DUP1 PUSH1 0x1F ADD PUSH1 0x20 DUP1 SWAP2 DIV MUL PUSH1 0x20 ADD PUSH1 0x40 MLOAD SWAP1 DUP2 ADD PUSH1 0x40 MSTORE DUP1 SWAP3 SWAP2 SWAP1 DUP2 DUP2 MSTORE PUSH1 0x20 ADD DUP3 DUP1 SLOAD PUSH2 0x106F SWAP1 PUSH2 0x4F51 JUMP JUMPDEST DUP1 ISZERO PUSH2 0x10BC JUMPI DUP1 PUSH1 0x1F LT PUSH2 0x1091 JUMPI PUSH2 0x100 DUP1 DUP4 SLOAD DIV MUL DUP4 MSTORE SWAP2 PUSH1 0x20 ADD SWAP2 PUSH2 0x10BC JUMP JUMPDEST DUP3 ADD SWAP2 SWAP1 PUSH1 0x0 MSTORE PUSH1 0x20 PUSH1 0x0 KECCAK256 SWAP1 JUMPDEST DUP2 SLOAD DUP2 MSTORE SWAP1 PUSH1 0x1 ADD SWAP1 PUSH1 0x20 ADD DUP1 DUP4 GT PUSH2 0x109F JUMPI DUP3 SWAP1 SUB PUSH1 0x1F AND DUP3 ADD SWAP2 JUMPDEST POP POP POP POP POP SWAP1 DUP1 PUSH1 0x1 ADD DUP1 SLOAD PUSH2 0x10D1 SWAP1 PUSH2 0x4F51 JUMP JUMPDEST DUP1 PUSH1 0x1F ADD PUSH1 0x20 DUP1 SWAP2 DIV MUL PUSH1 0x20 ADD PUSH1 0x40 MLOAD SWAP1 DUP2 ADD PUSH1 0x40 MSTORE DUP1 SWAP3 SWAP2 SWAP1 DUP2 DUP2 MSTORE PUSH1 0x20 ADD DUP3 DUP1 SLOAD PUSH2 0x10FD SWAP1 PUSH2 0x4F51 JUMP JUMPDEST DUP1 ISZERO PUSH2 0x114A JUMPI DUP1 PUSH1 0x1F LT PUSH2 0x111F JUMPI PUSH2 0x100 DUP1 DUP4 SLOAD DIV MUL DUP4 MSTORE SWAP2 PUSH1 0x20 ADD SWAP2 PUSH2 0x114A JUMP JUMPDEST DUP3 ADD SWAP2 SWAP1 PUSH1 0x0 MSTORE PUSH1 0x20 PUSH1 0x0 KECCAK256 SWAP1 JUMPDEST DUP2 SLOAD DUP2 MSTORE SWAP1 PUSH1 0x1 ADD SWAP1 PUSH1 0x20 ADD DUP1 DUP4 GT PUSH2 0x112D JUMPI DUP3 SWAP1 SUB PUSH1 0x1F AND DUP3 ADD SWAP2 JUMPDEST POP POP POP POP POP SWAP1 DUP1 PUSH1 0x2 ADD PUSH1 0x0 SWAP1 SLOAD SWAP1 PUSH2 0x100 EXP SWAP1 DIV PUSH20 0xFFFFFFFFFFFFFFFFFFFFFFFFFFFFFFFFFFFFFFFF AND SWAP1 DUP1 PUSH1 0x2 ADD PUSH1 0x14 SWAP1 SLOAD SWAP1 PUSH2 0x100 EXP SWAP1 DIV PUSH1 0xFF AND SWAP1 DUP1 PUSH1 0x2 ADD PUSH1 0x15 SWAP1 SLOAD SWAP1 PUSH2 0x100 EXP SWAP1 DIV PUSH1 0xFF AND SWAP1 DUP1 PUSH1 0x3 ADD SLOAD SWAP1 DUP1 PUSH1 0x5 ADD SLOAD SWAP1 DUP1 PUSH1 0x6 ADD SLOAD SWAP1 POP DUP9 JUMP JUMPDEST PUSH1 0x7 PUSH1 0x0 CALLER PUSH20 0xFFFFFFFFFFFFFFFFFFFFFFFFFFFFFFFFFFFFFFFF AND PUSH20 0xFFFFFFFFFFFFFFFFFFFFFFFFFFFFFFFFFFFFFFFF AND DUP2 MSTORE PUSH1 0x20 ADD SWAP1 DUP2 MSTORE PUSH1 0x20 ADD PUSH1 0x0 KECCAK256 PUSH1 0x2 ADD PUSH1 0x0 SWAP1 SLOAD SWAP1 PUSH2 0x100 EXP SWAP1 DIV PUSH1 0xFF AND ISZERO PUSH2 0x1242 JUMPI PUSH1 0x40 MLOAD PUSH32 0x8C379A000000000000000000000000000000000000000000000000000000000 DUP2 MSTORE PUSH1 0x4 ADD PUSH2 0x1239 SWAP1 PUSH2 0x503A JUMP JUMPDEST PUSH1 0x40 MLOAD DUP1 SWAP2 SUB SWAP1 REVERT JUMPDEST PUSH1 0x0 DUP3 MLOAD GT PUSH2 0x1286 JUMPI PUSH1 0x40 MLOAD PUSH32 0x8C379A000000000000000000000000000000000000000000000000000000000 DUP2 MSTORE PUSH1 0x4 ADD PUSH2 0x127D SWAP1 PUSH2 0x50A6 JUMP JUMPDEST PUSH1 0x40 MLOAD DUP1 SWAP2 SUB SWAP1 REVERT JUMPDEST PUSH1 0x40 MLOAD DUP1 PUSH1 0x60 ADD PUSH1 0x40 MSTORE DUP1 DUP4 DUP2 MSTORE PUSH1 0x20 ADD DUP3 DUP2 MSTORE PUSH1 0x20 ADD PUSH1 0x1 ISZERO ISZERO DUP2 MSTORE POP PUSH1 0x7 PUSH1 0x0 CALLER PUSH20 0xFFFFFFFFFFFFFFFFFFFFFFFFFFFFFFFFFFFFFFFF AND PUSH20 0xFFFFFFFFFFFFFFFFFFFFFFFFFFFFFFFFFFFFFFFF AND DUP2 MSTORE PUSH1 0x20 ADD SWAP1 DUP2 MSTORE PUSH1 0x20 ADD PUSH1 0x0 KECCAK256 PUSH1 0x0 DUP3 ADD MLOAD DUP2 PUSH1 0x0 ADD SWAP1 DUP2 PUSH2 0x12F8 SWAP2 SWAP1 PUSH2 0x5268 JUMP JUMPDEST POP PUSH1 0x20 DUP3 ADD MLOAD DUP2 PUSH1 0x1 ADD SWAP1 DUP2 PUSH2 0x130E SWAP2 SWAP1 PUSH2 0x5268 JUMP JUMPDEST POP PUSH1 0x40 DUP3 ADD MLOAD DUP2 PUSH1 0x2 ADD PUSH1 0x0 PUSH2 0x100 EXP DUP2 SLOAD DUP2 PUSH1 0xFF MUL NOT AND SWAP1 DUP4 ISZERO ISZERO MUL OR SWAP1 SSTORE POP SWAP1 POP POP CALLER PUSH20 0xFFFFFFFFFFFFFFFFFFFFFFFFFFFFFFFFFFFFFFFF AND PUSH32 0x92822564BAB8864C3A47B34E8D23FBCE5C46234EB5DA261F94087B995AC0F33B DUP4 DUP4 PUSH1 0x40 MLOAD PUSH2 0x137A SWAP3 SWAP2 SWAP1 PUSH2 0x533A JUMP JUMPDEST PUSH1 0x40 MLOAD DUP1 SWAP2 SUB SWAP1 LOG2 POP POP JUMP JUMPDEST PUSH1 0x60 PUSH1 0x0 PUSH1 0x3 SLOAD PUSH8 0xFFFFFFFFFFFFFFFF DUP2 GT ISZERO PUSH2 0x13A6 JUMPI PUSH2 0x13A5 PUSH2 0x44D7 JUMP JUMPDEST JUMPDEST PUSH1 0x40 MLOAD SWAP1 DUP1 DUP3 MSTORE DUP1 PUSH1 0x20 MUL PUSH1 0x20 ADD DUP3 ADD PUSH1 0x40 MSTORE DUP1 ISZERO PUSH2 0x13D4 JUMPI DUP2 PUSH1 0x20 ADD PUSH1 0x20 DUP3 MUL DUP1 CALLDATASIZE DUP4 CALLDATACOPY DUP1 DUP3 ADD SWAP2 POP POP SWAP1 POP JUMPDEST POP SWAP1 POP PUSH1 0x0 DUP1 PUSH1 0x1 SWAP1 POP JUMPDEST PUSH1 0x3 SLOAD DUP2 GT PUSH2 0x147F JUMPI PUSH1 0x8 PUSH1 0x0 DUP3 DUP2 MSTORE PUSH1 0x20 ADD SWAP1 DUP2 MSTORE PUSH1 0x20 ADD PUSH1 0x0 KECCAK256 PUSH1 0x2 ADD PUSH1 0x14 SWAP1 SLOAD SWAP1 PUSH2 0x100 EXP SWAP1 DIV PUSH1 0xFF AND DUP1 ISZERO PUSH2 0x1438 JUMPI POP PUSH1 0x8 PUSH1 0x0 DUP3 DUP2 MSTORE PUSH1 0x20 ADD SWAP1 DUP2 MSTORE PUSH1 0x20 ADD PUSH1 0x0 KECCAK256 PUSH1 0x2 ADD PUSH1 0x15 SWAP1 SLOAD SWAP1 PUSH2 0x100 EXP SWAP1 DIV PUSH1 0xFF AND JUMPDEST ISZERO PUSH2 0x146C JUMPI DUP1 DUP4 DUP4 DUP2 MLOAD DUP2 LT PUSH2 0x1451 JUMPI PUSH2 0x1450 PUSH2 0x4E7C JUMP JUMPDEST JUMPDEST PUSH1 0x20 MUL PUSH1 0x20 ADD ADD DUP2 DUP2 MSTORE POP POP DUP2 DUP1 PUSH2 0x1468 SWAP1 PUSH2 0x4EDA JUMP JUMPDEST SWAP3 POP POP JUMPDEST DUP1 DUP1 PUSH2 0x1477 SWAP1 PUSH2 0x4EDA JUMP JUMPDEST SWAP2 POP POP PUSH2 0x13DF JUMP JUMPDEST POP PUSH1 0x0 DUP2 PUSH8 0xFFFFFFFFFFFFFFFF DUP2 GT ISZERO PUSH2 0x149C JUMPI PUSH2 0x149B PUSH2 0x44D7 JUMP JUMPDEST JUMPDEST PUSH1 0x40 MLOAD SWAP1 DUP1 DUP3 MSTORE DUP1 PUSH1 0x20 MUL PUSH1 0x20 ADD DUP3 ADD PUSH1 0x40 MSTORE DUP1 ISZERO PUSH2 0x14CA JUMPI DUP2 PUSH1 0x20 ADD PUSH1 0x20 DUP3 MUL DUP1 CALLDATASIZE DUP4 CALLDATACOPY DUP1 DUP3 ADD SWAP2 POP POP SWAP1 POP JUMPDEST POP SWAP1 POP PUSH1 0x0 JUMPDEST DUP3 DUP2 LT ISZERO PUSH2 0x151F JUMPI DUP4 DUP2 DUP2 MLOAD DUP2 LT PUSH2 0x14EB JUMPI PUSH2 0x14EA PUSH2 0x4E7C JUMP JUMPDEST JUMPDEST PUSH1 0x20 MUL PUSH1 0x20 ADD ADD MLOAD DUP3 DUP3 DUP2 MLOAD DUP2 LT PUSH2 0x1506 JUMPI PUSH2 0x1505 PUSH2 0x4E7C JUMP JUMPDEST JUMPDEST PUSH1 0x20 MUL PUSH1 0x20 ADD ADD DUP2 DUP2 MSTORE POP POP DUP1 DUP1 PUSH1 0x1 ADD SWAP2 POP POP PUSH2 0x14D0 JUMP JUMPDEST POP DUP1 SWAP4 POP POP POP POP SWAP1 JUMP JUMPDEST DUP2 CALLER PUSH20 0xFFFFFFFFFFFFFFFFFFFFFFFFFFFFFFFFFFFFFFFF AND PUSH1 0x8 PUSH1 0x0 DUP4 DUP2 MSTORE PUSH1 0x20 ADD SWAP1 DUP2 MSTORE PUSH1 0x20 ADD PUSH1 0x0 KECCAK256 PUSH1 0x2 ADD PUSH1 0x0 SWAP1 SLOAD SWAP1 PUSH2 0x100 EXP SWAP1 DIV PUSH20 0xFFFFFFFFFFFFFFFFFFFFFFFFFFFFFFFFFFFFFFFF AND PUSH20 0xFFFFFFFFFFFFFFFFFFFFFFFFFFFFFFFFFFFFFFFF AND EQ PUSH2 0x15CE JUMPI PUSH1 0x40 MLOAD PUSH32 0x8C379A000000000000000000000000000000000000000000000000000000000 DUP2 MSTORE PUSH1 0x4 ADD PUSH2 0x15C5 SWAP1 PUSH2 0x53BD JUMP JUMPDEST PUSH1 0x40 MLOAD DUP1 SWAP2 SUB SWAP1 REVERT JUMPDEST PUSH1 0x0 DUP3 GT PUSH2 0x1611 JUMPI PUSH1 0x40 MLOAD PUSH32 0x8C379A000000000000000000000000000000000000000000000000000000000 DUP2 MSTORE PUSH1 0x4 ADD PUSH2 0x1608 SWAP1 PUSH2 0x5429 JUMP JUMPDEST PUSH1 0x40 MLOAD DUP1 SWAP2 SUB SWAP1 REVERT JUMPDEST DUP2 PUSH1 0x8 PUSH1 0x0 DUP6 DUP2 MSTORE PUSH1 0x20 ADD SWAP1 DUP2 MSTORE PUSH1 0x20 ADD PUSH1 0x0 KECCAK256 PUSH1 0x3 ADD DUP2 SWAP1 SSTORE POP DUP3 PUSH32 0x43906D8F4C58AB6E431478557AF705438610B39D3CA659C00D9450B0FAC19F9D DUP4 PUSH1 0x40 MLOAD PUSH2 0x165C SWAP2 SWAP1 PUSH2 0x4789 JUMP JUMPDEST PUSH1 0x40 MLOAD DUP1 SWAP2 SUB SWAP1 LOG2 POP POP POP JUMP JUMPDEST CALLER PUSH1 0x7 PUSH1 0x0 DUP3 PUSH20 0xFFFFFFFFFFFFFFFFFFFFFFFFFFFFFFFFFFFFFFFF AND PUSH20 0xFFFFFFFFFFFFFFFFFFFFFFFFFFFFFFFFFFFFFFFF AND DUP2 MSTORE PUSH1 0x20 ADD SWAP1 DUP2 MSTORE PUSH1 0x20 ADD PUSH1 0x0 KECCAK256 PUSH1 0x2 ADD PUSH1 0x0 SWAP1 SLOAD SWAP1 PUSH2 0x100 EXP SWAP1 DIV PUSH1 0xFF AND PUSH2 0x16F9 JUMPI PUSH1 0x40 MLOAD PUSH32 0x8C379A000000000000000000000000000000000000000000000000000000000 DUP2 MSTORE PUSH1 0x4 ADD PUSH2 0x16F0 SWAP1 PUSH2 0x5495 JUMP JUMPDEST PUSH1 0x40 MLOAD DUP1 SWAP2 SUB SWAP1 REVERT JUMPDEST PUSH1 0x8 PUSH1 0x0 DUP8 DUP2 MSTORE PUSH1 0x20 ADD SWAP1 DUP2 MSTORE PUSH1 0x20 ADD PUSH1 0x0 KECCAK256 PUSH1 0x2 ADD PUSH1 0x14 SWAP1 SLOAD SWAP1 PUSH2 0x100 EXP SWAP1 DIV PUSH1 0xFF AND PUSH2 0x175C JUMPI PUSH1 0x40 MLOAD PUSH32 0x8C379A000000000000000000000000000000000000000000000000000000000 DUP2 MSTORE PUSH1 0x4 ADD PUSH2 0x1753 SWAP1 PUSH2 0x5501 JUMP JUMPDEST PUSH1 0x40 MLOAD DUP1 SWAP2 SUB SWAP1 REVERT JUMPDEST PUSH1 0x8 PUSH1 0x0 DUP8 DUP2 MSTORE PUSH1 0x20 ADD SWAP1 DUP2 MSTORE PUSH1 0x20 ADD PUSH1 0x0 KECCAK256 PUSH1 0x2 ADD PUSH1 0x15 SWAP1 SLOAD SWAP1 PUSH2 0x100 EXP SWAP1 DIV PUSH1 0xFF AND PUSH2 0x17BF JUMPI PUSH1 0x40 MLOAD PUSH32 0x8C379A000000000000000000000000000000000000000000000000000000000 DUP2 MSTORE PUSH1 0x4 ADD PUSH2 0x17B6 SWAP1 PUSH2 0x5593 JUMP JUMPDEST PUSH1 0x40 MLOAD DUP1 SWAP2 SUB SWAP1 REVERT JUMPDEST PUSH1 0x0 DUP5 GT PUSH2 0x1802 JUMPI PUSH1 0x40 MLOAD PUSH32 0x8C379A000000000000000000000000000000000000000000000000000000000 DUP2 MSTORE PUSH1 0x4 ADD PUSH2 0x17F9 SWAP1 PUSH2 0x55FF JUMP JUMPDEST PUSH1 0x40 MLOAD DUP1 SWAP2 SUB SWAP1 REVERT JUMPDEST PUSH1 0x0 DUP3 MLOAD GT PUSH2 0x1846 JUMPI PUSH1 0x40 MLOAD PUSH32 0x8C379A000000000000000000000000000000000000000000000000000000000 DUP2 MSTORE PUSH1 0x4 ADD PUSH2 0x183D SWAP1 PUSH2 0x566B JUMP JUMPDEST PUSH1 0x40 MLOAD DUP1 SWAP2 SUB SWAP1 REVERT JUMPDEST PUSH1 0x0 DUP5 PUSH1 0x8 PUSH1 0x0 DUP10 DUP2 MSTORE PUSH1 0x20 ADD SWAP1 DUP2 MSTORE PUSH1 0x20 ADD PUSH1 0x0 KECCAK256 PUSH1 0x3 ADD SLOAD PUSH2 0x186A SWAP2 SWAP1 PUSH2 0x568B JUMP JUMPDEST SWAP1 POP DUP1 PUSH1 0x0 DUP1 SLOAD SWAP1 PUSH2 0x100 EXP SWAP1 DIV PUSH20 0xFFFFFFFFFFFFFFFFFFFFFFFFFFFFFFFFFFFFFFFF AND PUSH20 0xFFFFFFFFFFFFFFFFFFFFFFFFFFFFFFFFFFFFFFFF AND PUSH4 0x70A08231 CALLER PUSH1 0x40 MLOAD DUP3 PUSH4 0xFFFFFFFF AND PUSH1 0xE0 SHL DUP2 MSTORE PUSH1 0x4 ADD PUSH2 0x18C6 SWAP2 SWAP1 PUSH2 0x4E61 JUMP JUMPDEST PUSH1 0x20 PUSH1 0x40 MLOAD DUP1 DUP4 SUB DUP2 DUP7 GAS STATICCALL ISZERO DUP1 ISZERO PUSH2 0x18E3 JUMPI RETURNDATASIZE PUSH1 0x0 DUP1 RETURNDATACOPY RETURNDATASIZE PUSH1 0x0 REVERT JUMPDEST POP POP POP POP PUSH1 0x40 MLOAD RETURNDATASIZE PUSH1 0x1F NOT PUSH1 0x1F DUP3 ADD AND DUP3 ADD DUP1 PUSH1 0x40 MSTORE POP DUP2 ADD SWAP1 PUSH2 0x1907 SWAP2 SWAP1 PUSH2 0x56E2 JUMP JUMPDEST LT ISZERO PUSH2 0x1948 JUMPI PUSH1 0x40 MLOAD PUSH32 0x8C379A000000000000000000000000000000000000000000000000000000000 DUP2 MSTORE PUSH1 0x4 ADD PUSH2 0x193F SWAP1 PUSH2 0x575B JUMP JUMPDEST PUSH1 0x40 MLOAD DUP1 SWAP2 SUB SWAP1 REVERT JUMPDEST PUSH1 0x0 DUP1 SLOAD SWAP1 PUSH2 0x100 EXP SWAP1 DIV PUSH20 0xFFFFFFFFFFFFFFFFFFFFFFFFFFFFFFFFFFFFFFFF AND PUSH20 0xFFFFFFFFFFFFFFFFFFFFFFFFFFFFFFFFFFFFFFFF AND PUSH4 0x23B872DD CALLER ADDRESS DUP5 PUSH1 0x40 MLOAD DUP5 PUSH4 0xFFFFFFFF AND PUSH1 0xE0 SHL DUP2 MSTORE PUSH1 0x4 ADD PUSH2 0x19A5 SWAP4 SWAP3 SWAP2 SWAP1 PUSH2 0x577B JUMP JUMPDEST PUSH1 0x20 PUSH1 0x40 MLOAD DUP1 DUP4 SUB DUP2 PUSH1 0x0 DUP8 GAS CALL ISZERO DUP1 ISZERO PUSH2 0x19C4 JUMPI RETURNDATASIZE PUSH1 0x0 DUP1 RETURNDATACOPY RETURNDATASIZE PUSH1 0x0 REVERT JUMPDEST POP POP POP POP PUSH1 0x40 MLOAD RETURNDATASIZE PUSH1 0x1F NOT PUSH1 0x1F DUP3 ADD AND DUP3 ADD DUP1 PUSH1 0x40 MSTORE POP DUP2 ADD SWAP1 PUSH2 0x19E8 SWAP2 SWAP1 PUSH2 0x57C7 JUMP JUMPDEST PUSH2 0x1A27 JUMPI PUSH1 0x40 MLOAD PUSH32 0x8C379A000000000000000000000000000000000000000000000000000000000 DUP2 MSTORE PUSH1 0x4 ADD PUSH2 0x1A1E SWAP1 PUSH2 0x5840 JUMP JUMPDEST PUSH1 0x40 MLOAD DUP1 SWAP2 SUB SWAP1 REVERT JUMPDEST PUSH1 0x0 PUSH1 0x4 PUSH1 0x0 DUP2 SLOAD PUSH2 0x1A38 SWAP1 PUSH2 0x4EDA JUMP JUMPDEST SWAP2 SWAP1 POP DUP2 SWAP1 SSTORE SWAP1 POP PUSH1 0x40 MLOAD DUP1 PUSH2 0x160 ADD PUSH1 0x40 MSTORE DUP1 DUP3 DUP2 MSTORE PUSH1 0x20 ADD CALLER PUSH20 0xFFFFFFFFFFFFFFFFFFFFFFFFFFFFFFFFFFFFFFFF AND DUP2 MSTORE PUSH1 0x20 ADD DUP9 DUP2 MSTORE PUSH1 0x20 ADD DUP10 DUP2 MSTORE PUSH1 0x20 ADD DUP4 DUP2 MSTORE PUSH1 0x20 ADD TIMESTAMP DUP2 MSTORE PUSH1 0x20 ADD DUP6 DUP2 MSTORE PUSH1 0x20 ADD PUSH1 0x0 PUSH1 0x2 DUP2 GT ISZERO PUSH2 0x1AA0 JUMPI PUSH2 0x1A9F PUSH2 0x4AE4 JUMP JUMPDEST JUMPDEST DUP2 MSTORE PUSH1 0x20 ADD PUSH2 0xE10 DUP9 PUSH2 0x1AB3 SWAP2 SWAP1 PUSH2 0x568B JUMP JUMPDEST TIMESTAMP PUSH2 0x1ABE SWAP2 SWAP1 PUSH2 0x5860 JUMP JUMPDEST DUP2 MSTORE PUSH1 0x20 ADD DUP8 DUP2 MSTORE PUSH1 0x20 ADD DUP7 DUP2 MSTORE POP PUSH1 0xC PUSH1 0x0 DUP4 DUP2 MSTORE PUSH1 0x20 ADD SWAP1 DUP2 MSTORE PUSH1 0x20 ADD PUSH1 0x0 KECCAK256 PUSH1 0x0 DUP3 ADD MLOAD DUP2 PUSH1 0x0 ADD SSTORE PUSH1 0x20 DUP3 ADD MLOAD DUP2 PUSH1 0x1 ADD PUSH1 0x0 PUSH2 0x100 EXP DUP2 SLOAD DUP2 PUSH20 0xFFFFFFFFFFFFFFFFFFFFFFFFFFFFFFFFFFFFFFFF MUL NOT AND SWAP1 DUP4 PUSH20 0xFFFFFFFFFFFFFFFFFFFFFFFFFFFFFFFFFFFFFFFF AND MUL OR SWAP1 SSTORE POP PUSH1 0x40 DUP3 ADD MLOAD DUP2 PUSH1 0x2 ADD SWAP1 DUP2 PUSH2 0x1B46 SWAP2 SWAP1 PUSH2 0x5268 JUMP JUMPDEST POP PUSH1 0x60 DUP3 ADD MLOAD DUP2 PUSH1 0x3 ADD SSTORE PUSH1 0x80 DUP3 ADD MLOAD DUP2 PUSH1 0x4 ADD SSTORE PUSH1 0xA0 DUP3 ADD MLOAD DUP2 PUSH1 0x5 ADD SSTORE PUSH1 0xC0 DUP3 ADD MLOAD DUP2 PUSH1 0x6 ADD SWAP1 DUP2 PUSH2 0x1B7A SWAP2 SWAP1 PUSH2 0x5268 JUMP JUMPDEST POP PUSH1 0xE0 DUP3 ADD MLOAD DUP2 PUSH1 0x7 ADD PUSH1 0x0 PUSH2 0x100 EXP DUP2 SLOAD DUP2 PUSH1 0xFF MUL NOT AND SWAP1 DUP4 PUSH1 0x2 DUP2 GT ISZERO PUSH2 0x1BA6 JUMPI PUSH2 0x1BA5 PUSH2 0x4AE4 JUMP JUMPDEST JUMPDEST MUL OR SWAP1 SSTORE POP PUSH2 0x100 DUP3 ADD MLOAD DUP2 PUSH1 0x8 ADD SSTORE PUSH2 0x120 DUP3 ADD MLOAD DUP2 PUSH1 0x9 ADD SSTORE PUSH2 0x140 DUP3 ADD MLOAD DUP2 PUSH1 0xA ADD SWAP1 DUP2 PUSH2 0x1BD7 SWAP2 SWAP1 PUSH2 0x5268 JUMP JUMPDEST POP SWAP1 POP POP DUP2 PUSH1 0xD PUSH1 0x0 DUP4 DUP2 MSTORE PUSH1 0x20 ADD SWAP1 DUP2 MSTORE PUSH1 0x20 ADD PUSH1 0x0 KECCAK256 DUP2 SWAP1 SSTORE POP PUSH1 0xA PUSH1 0x0 DUP10 DUP2 MSTORE PUSH1 0x20 ADD SWAP1 DUP2 MSTORE PUSH1 0x20 ADD PUSH1 0x0 KECCAK256 DUP2 SWAP1 DUP1 PUSH1 0x1 DUP2 SLOAD ADD DUP1 DUP3 SSTORE DUP1 SWAP2 POP POP PUSH1 0x1 SWAP1 SUB SWAP1 PUSH1 0x0 MSTORE PUSH1 0x20 PUSH1 0x0 KECCAK256 ADD PUSH1 0x0 SWAP1 SWAP2 SWAP1 SWAP2 SWAP1 SWAP2 POP SSTORE PUSH1 0xB PUSH1 0x0 CALLER PUSH20 0xFFFFFFFFFFFFFFFFFFFFFFFFFFFFFFFFFFFFFFFF AND PUSH20 0xFFFFFFFFFFFFFFFFFFFFFFFFFFFFFFFFFFFFFFFF AND DUP2 MSTORE PUSH1 0x20 ADD SWAP1 DUP2 MSTORE PUSH1 0x20 ADD PUSH1 0x0 KECCAK256 DUP2 SWAP1 DUP1 PUSH1 0x1 DUP2 SLOAD ADD DUP1 DUP3 SSTORE DUP1 SWAP2 POP POP PUSH1 0x1 SWAP1 SUB SWAP1 PUSH1 0x0 MSTORE PUSH1 0x20 PUSH1 0x0 KECCAK256 ADD PUSH1 0x0 SWAP1 SWAP2 SWAP1 SWAP2 SWAP1 SWAP2 POP SSTORE PUSH1 0x8 PUSH1 0x0 DUP10 DUP2 MSTORE PUSH1 0x20 ADD SWAP1 DUP2 MSTORE PUSH1 0x20 ADD PUSH1 0x0 KECCAK256 PUSH1 0x5 ADD PUSH1 0x0 DUP2 SLOAD DUP1 SWAP3 SWAP2 SWAP1 PUSH2 0x1CBA SWAP1 PUSH2 0x4EDA JUMP JUMPDEST SWAP2 SWAP1 POP SSTORE POP PUSH1 0x0 PUSH1 0x8 PUSH1 0x0 DUP11 DUP2 MSTORE PUSH1 0x20 ADD SWAP1 DUP2 MSTORE PUSH1 0x20 ADD PUSH1 0x0 KECCAK256 PUSH1 0x2 ADD PUSH1 0x15 PUSH2 0x100 EXP DUP2 SLOAD DUP2 PUSH1 0xFF MUL NOT AND SWAP1 DUP4 ISZERO ISZERO MUL OR SWAP1 SSTORE POP DUP8 CALLER PUSH20 0xFFFFFFFFFFFFFFFFFFFFFFFFFFFFFFFFFFFFFFFF AND DUP3 PUSH32 0xCFBBEC2971098FF70CD66AA56048D46BDACA6BCFAD3231164F23416C323FB62E DUP11 DUP7 PUSH1 0x40 MLOAD PUSH2 0x1D38 SWAP3 SWAP2 SWAP1 PUSH2 0x5894 JUMP JUMPDEST PUSH1 0x40 MLOAD DUP1 SWAP2 SUB SWAP1 LOG4 PUSH1 0x8 PUSH1 0x0 DUP10 DUP2 MSTORE PUSH1 0x20 ADD SWAP1 DUP2 MSTORE PUSH1 0x20 ADD PUSH1 0x0 KECCAK256 PUSH1 0x2 ADD PUSH1 0x0 SWAP1 SLOAD SWAP1 PUSH2 0x100 EXP SWAP1 DIV PUSH20 0xFFFFFFFFFFFFFFFFFFFFFFFFFFFFFFFFFFFFFFFF AND PUSH20 0xFFFFFFFFFFFFFFFFFFFFFFFFFFFFFFFFFFFFFFFF AND DUP2 PUSH32 0xB7B620164792660FEDF119F0852D9AB61696A836CC986D988AF14D2A5A46002C PUSH1 0x40 MLOAD PUSH1 0x40 MLOAD DUP1 SWAP2 SUB SWAP1 LOG3 DUP1 PUSH32 0x47BCC645B6943F52356A519CA40878CC505371AF5B73B2457595EDFE969E1AE6 PUSH1 0x40 MLOAD PUSH1 0x40 MLOAD DUP1 SWAP2 SUB SWAP1 LOG2 DUP8 PUSH32 0x31BF9276BFBEEB0264279506DA13FFBD75AFA6ED8D082EBF3E0E8612C0B15866 PUSH1 0x0 PUSH1 0x40 MLOAD PUSH2 0x1E18 SWAP2 SWAP1 PUSH2 0x4CBC JUMP JUMPDEST PUSH1 0x40 MLOAD DUP1 SWAP2 SUB SWAP1 LOG2 POP POP POP POP POP POP POP POP JUMP JUMPDEST PUSH1 0x4 SLOAD DUP2 JUMP JUMPDEST PUSH1 0x1 PUSH1 0x0 SWAP1 SLOAD SWAP1 PUSH2 0x100 EXP SWAP1 DIV PUSH20 0xFFFFFFFFFFFFFFFFFFFFFFFFFFFFFFFFFFFFFFFF AND PUSH20 0xFFFFFFFFFFFFFFFFFFFFFFFFFFFFFFFFFFFFFFFF AND CALLER PUSH20 0xFFFFFFFFFFFFFFFFFFFFFFFFFFFFFFFFFFFFFFFF AND EQ PUSH2 0x1EC0 JUMPI PUSH1 0x40 MLOAD PUSH32 0x8C379A000000000000000000000000000000000000000000000000000000000 DUP2 MSTORE PUSH1 0x4 ADD PUSH2 0x1EB7 SWAP1 PUSH2 0x4FCE JUMP JUMPDEST PUSH1 0x40 MLOAD DUP1 SWAP2 SUB SWAP1 REVERT JUMPDEST DUP1 SELFBALANCE LT ISZERO PUSH2 0x1F03 JUMPI PUSH1 0x40 MLOAD PUSH32 0x8C379A000000000000000000000000000000000000000000000000000000000 DUP2 MSTORE PUSH1 0x4 ADD PUSH2 0x1EFA SWAP1 PUSH2 0x5910 JUMP JUMPDEST PUSH1 0x40 MLOAD DUP1 SWAP2 SUB SWAP1 REVERT JUMPDEST PUSH1 0x1 PUSH1 0x0 SWAP1 SLOAD SWAP1 PUSH2 0x100 EXP SWAP1 DIV PUSH20 0xFFFFFFFFFFFFFFFFFFFFFFFFFFFFFFFFFFFFFFFF AND PUSH20 0xFFFFFFFFFFFFFFFFFFFFFFFFFFFFFFFFFFFFFFFF AND PUSH2 0x8FC DUP3 SWAP1 DUP2 ISZERO MUL SWAP1 PUSH1 0x40 MLOAD PUSH1 0x0 PUSH1 0x40 MLOAD DUP1 DUP4 SUB DUP2 DUP6 DUP9 DUP9 CALL SWAP4 POP POP POP POP ISZERO DUP1 ISZERO PUSH2 0x1F6B JUMPI RETURNDATASIZE PUSH1 0x0 DUP1 RETURNDATACOPY RETURNDATASIZE PUSH1 0x0 REVERT JUMPDEST POP POP JUMP JUMPDEST DUP2 CALLER PUSH20 0xFFFFFFFFFFFFFFFFFFFFFFFFFFFFFFFFFFFFFFFF AND PUSH1 0x8 PUSH1 0x0 DUP4 DUP2 MSTORE PUSH1 0x20 ADD SWAP1 DUP2 MSTORE PUSH1 0x20 ADD PUSH1 0x0 KECCAK256 PUSH1 0x2 ADD PUSH1 0x0 SWAP1 SLOAD SWAP1 PUSH2 0x100 EXP SWAP1 DIV PUSH20 0xFFFFFFFFFFFFFFFFFFFFFFFFFFFFFFFFFFFFFFFF AND PUSH20 0xFFFFFFFFFFFFFFFFFFFFFFFFFFFFFFFFFFFFFFFF AND EQ PUSH2 0x2014 JUMPI PUSH1 0x40 MLOAD PUSH32 0x8C379A000000000000000000000000000000000000000000000000000000000 DUP2 MSTORE PUSH1 0x4 ADD PUSH2 0x200B SWAP1 PUSH2 0x53BD JUMP JUMPDEST PUSH1 0x40 MLOAD DUP1 SWAP2 SUB SWAP1 REVERT JUMPDEST DUP2 PUSH1 0x8 PUSH1 0x0 DUP6 DUP2 MSTORE PUSH1 0x20 ADD SWAP1 DUP2 MSTORE PUSH1 0x20 ADD PUSH1 0x0 KECCAK256 PUSH1 0x2 ADD PUSH1 0x15 PUSH2 0x100 EXP DUP2 SLOAD DUP2 PUSH1 0xFF MUL NOT AND SWAP1 DUP4 ISZERO ISZERO MUL OR SWAP1 SSTORE POP DUP3 PUSH32 0x31BF9276BFBEEB0264279506DA13FFBD75AFA6ED8D082EBF3E0E8612C0B15866 DUP4 PUSH1 0x40 MLOAD PUSH2 0x2072 SWAP2 SWAP1 PUSH2 0x4CBC JUMP JUMPDEST PUSH1 0x40 MLOAD DUP1 SWAP2 SUB SWAP1 LOG2 POP POP POP JUMP JUMPDEST PUSH1 0x5 SLOAD DUP2 JUMP JUMPDEST PUSH1 0x1 PUSH1 0x0 SWAP1 SLOAD SWAP1 PUSH2 0x100 EXP SWAP1 DIV PUSH20 0xFFFFFFFFFFFFFFFFFFFFFFFFFFFFFFFFFFFFFFFF AND PUSH20 0xFFFFFFFFFFFFFFFFFFFFFFFFFFFFFFFFFFFFFFFF AND CALLER PUSH20 0xFFFFFFFFFFFFFFFFFFFFFFFFFFFFFFFFFFFFFFFF AND EQ PUSH2 0x2115 JUMPI PUSH1 0x40 MLOAD PUSH32 0x8C379A000000000000000000000000000000000000000000000000000000000 DUP2 MSTORE PUSH1 0x4 ADD PUSH2 0x210C SWAP1 PUSH2 0x4FCE JUMP JUMPDEST PUSH1 0x40 MLOAD DUP1 SWAP2 SUB SWAP1 REVERT JUMPDEST PUSH1 0x0 DUP1 SLOAD SWAP1 PUSH2 0x100 EXP SWAP1 DIV PUSH20 0xFFFFFFFFFFFFFFFFFFFFFFFFFFFFFFFFFFFFFFFF AND PUSH20 0xFFFFFFFFFFFFFFFFFFFFFFFFFFFFFFFFFFFFFFFF AND PUSH4 0xA9059CBB PUSH1 0x1 PUSH1 0x0 SWAP1 SLOAD SWAP1 PUSH2 0x100 EXP SWAP1 DIV PUSH20 0xFFFFFFFFFFFFFFFFFFFFFFFFFFFFFFFFFFFFFFFF AND DUP4 PUSH1 0x40 MLOAD DUP4 PUSH4 0xFFFFFFFF AND PUSH1 0xE0 SHL DUP2 MSTORE PUSH1 0x4 ADD PUSH2 0x2192 SWAP3 SWAP2 SWAP1 PUSH2 0x5930 JUMP JUMPDEST PUSH1 0x20 PUSH1 0x40 MLOAD DUP1 DUP4 SUB DUP2 PUSH1 0x0 DUP8 GAS CALL ISZERO DUP1 ISZERO PUSH2 0x21B1 JUMPI RETURNDATASIZE PUSH1 0x0 DUP1 RETURNDATACOPY RETURNDATASIZE PUSH1 0x0 REVERT JUMPDEST POP POP POP POP PUSH1 0x40 MLOAD RETURNDATASIZE PUSH1 0x1F NOT PUSH1 0x1F DUP3 ADD AND DUP3 ADD DUP1 PUSH1 0x40 MSTORE POP DUP2 ADD SWAP1 PUSH2 0x21D5 SWAP2 SWAP1 PUSH2 0x57C7 JUMP JUMPDEST PUSH2 0x2214 JUMPI PUSH1 0x40 MLOAD PUSH32 0x8C379A000000000000000000000000000000000000000000000000000000000 DUP2 MSTORE PUSH1 0x4 ADD PUSH2 0x220B SWAP1 PUSH2 0x59A5 JUMP JUMPDEST PUSH1 0x40 MLOAD DUP1 SWAP2 SUB SWAP1 REVERT JUMPDEST POP JUMP JUMPDEST PUSH1 0x0 DUP1 SLOAD SWAP1 PUSH2 0x100 EXP SWAP1 DIV PUSH20 0xFFFFFFFFFFFFFFFFFFFFFFFFFFFFFFFFFFFFFFFF AND DUP2 JUMP JUMPDEST PUSH1 0xA PUSH1 0x20 MSTORE DUP2 PUSH1 0x0 MSTORE PUSH1 0x40 PUSH1 0x0 KECCAK256 DUP2 DUP2 SLOAD DUP2 LT PUSH2 0x2257 JUMPI PUSH1 0x0 DUP1 REVERT JUMPDEST SWAP1 PUSH1 0x0 MSTORE PUSH1 0x20 PUSH1 0x0 KECCAK256 ADD PUSH1 0x0 SWAP2 POP SWAP2 POP POP SLOAD DUP2 JUMP JUMPDEST PUSH1 0x60 PUSH1 0xB PUSH1 0x0 DUP4 PUSH20 0xFFFFFFFFFFFFFFFFFFFFFFFFFFFFFFFFFFFFFFFF AND PUSH20 0xFFFFFFFFFFFFFFFFFFFFFFFFFFFFFFFFFFFFFFFF AND DUP2 MSTORE PUSH1 0x20 ADD SWAP1 DUP2 MSTORE PUSH1 0x20 ADD PUSH1 0x0 KECCAK256 DUP1 SLOAD DUP1 PUSH1 0x20 MUL PUSH1 0x20 ADD PUSH1 0x40 MLOAD SWAP1 DUP2 ADD PUSH1 0x40 MSTORE DUP1 SWAP3 SWAP2 SWAP1 DUP2 DUP2 MSTORE PUSH1 0x20 ADD DUP3 DUP1 SLOAD DUP1 ISZERO PUSH2 0x22F7 JUMPI PUSH1 0x20 MUL DUP3 ADD SWAP2 SWAP1 PUSH1 0x0 MSTORE PUSH1 0x20 PUSH1 0x0 KECCAK256 SWAP1 JUMPDEST DUP2 SLOAD DUP2 MSTORE PUSH1 0x20 ADD SWAP1 PUSH1 0x1 ADD SWAP1 DUP1 DUP4 GT PUSH2 0x22E3 JUMPI JUMPDEST POP POP POP POP POP SWAP1 POP SWAP2 SWAP1 POP JUMP JUMPDEST PUSH1 0x60 PUSH1 0x0 PUSH1 0x3 SLOAD PUSH8 0xFFFFFFFFFFFFFFFF DUP2 GT ISZERO PUSH2 0x2323 JUMPI PUSH2 0x2322 PUSH2 0x44D7 JUMP JUMPDEST JUMPDEST PUSH1 0x40 MLOAD SWAP1 DUP1 DUP3 MSTORE DUP1 PUSH1 0x20 MUL PUSH1 0x20 ADD DUP3 ADD PUSH1 0x40 MSTORE DUP1 ISZERO PUSH2 0x2351 JUMPI DUP2 PUSH1 0x20 ADD PUSH1 0x20 DUP3 MUL DUP1 CALLDATASIZE DUP4 CALLDATACOPY DUP1 DUP3 ADD SWAP2 POP POP SWAP1 POP JUMPDEST POP SWAP1 POP PUSH1 0x0 DUP1 PUSH1 0x1 SWAP1 POP JUMPDEST PUSH1 0x3 SLOAD DUP2 GT PUSH2 0x23D0 JUMPI PUSH1 0x8 PUSH1 0x0 DUP3 DUP2 MSTORE PUSH1 0x20 ADD SWAP1 DUP2 MSTORE PUSH1 0x20 ADD PUSH1 0x0 KECCAK256 PUSH1 0x2 ADD PUSH1 0x14 SWAP1 SLOAD SWAP1 PUSH2 0x100 EXP SWAP1 DIV PUSH1 0xFF AND ISZERO PUSH2 0x23BD JUMPI DUP1 DUP4 DUP4 DUP2 MLOAD DUP2 LT PUSH2 0x23A2 JUMPI PUSH2 0x23A1 PUSH2 0x4E7C JUMP JUMPDEST JUMPDEST PUSH1 0x20 MUL PUSH1 0x20 ADD ADD DUP2 DUP2 MSTORE POP POP DUP2 DUP1 PUSH2 0x23B9 SWAP1 PUSH2 0x4EDA JUMP JUMPDEST SWAP3 POP POP JUMPDEST DUP1 DUP1 PUSH2 0x23C8 SWAP1 PUSH2 0x4EDA JUMP JUMPDEST SWAP2 POP POP PUSH2 0x235C JUMP JUMPDEST POP PUSH1 0x0 DUP2 PUSH8 0xFFFFFFFFFFFFFFFF DUP2 GT ISZERO PUSH2 0x23ED JUMPI PUSH2 0x23EC PUSH2 0x44D7 JUMP JUMPDEST JUMPDEST PUSH1 0x40 MLOAD SWAP1 DUP1 DUP3 MSTORE DUP1 PUSH1 0x20 MUL PUSH1 0x20 ADD DUP3 ADD PUSH1 0x40 MSTORE DUP1 ISZERO PUSH2 0x241B JUMPI DUP2 PUSH1 0x20 ADD PUSH1 0x20 DUP3 MUL DUP1 CALLDATASIZE DUP4 CALLDATACOPY DUP1 DUP3 ADD SWAP2 POP POP SWAP1 POP JUMPDEST POP SWAP1 POP PUSH1 0x0 JUMPDEST DUP3 DUP2 LT ISZERO PUSH2 0x2470 JUMPI DUP4 DUP2 DUP2 MLOAD DUP2 LT PUSH2 0x243C JUMPI PUSH2 0x243B PUSH2 0x4E7C JUMP JUMPDEST JUMPDEST PUSH1 0x20 MUL PUSH1 0x20 ADD ADD MLOAD DUP3 DUP3 DUP2 MLOAD DUP2 LT PUSH2 0x2457 JUMPI PUSH2 0x2456 PUSH2 0x4E7C JUMP JUMPDEST JUMPDEST PUSH1 0x20 MUL PUSH1 0x20 ADD ADD DUP2 DUP2 MSTORE POP POP DUP1 DUP1 PUSH1 0x1 ADD SWAP2 POP POP PUSH2 0x2421 JUMP JUMPDEST POP DUP1 SWAP4 POP POP POP POP SWAP1 JUMP JUMPDEST PUSH1 0x6 SLOAD DUP2 JUMP JUMPDEST PUSH1 0xB PUSH1 0x20 MSTORE DUP2 PUSH1 0x0 MSTORE PUSH1 0x40 PUSH1 0x0 KECCAK256 DUP2 DUP2 SLOAD DUP2 LT PUSH2 0x249C JUMPI PUSH1 0x0 DUP1 REVERT JUMPDEST SWAP1 PUSH1 0x0 MSTORE PUSH1 0x20 PUSH1 0x0 KECCAK256 ADD PUSH1 0x0 SWAP2 POP SWAP2 POP POP SLOAD DUP2 JUMP JUMPDEST CALLER PUSH1 0x7 PUSH1 0x0 DUP3 PUSH20 0xFFFFFFFFFFFFFFFFFFFFFFFFFFFFFFFFFFFFFFFF AND PUSH20 0xFFFFFFFFFFFFFFFFFFFFFFFFFFFFFFFFFFFFFFFF AND DUP2 MSTORE PUSH1 0x20 ADD SWAP1 DUP2 MSTORE PUSH1 0x20 ADD PUSH1 0x0 KECCAK256 PUSH1 0x2 ADD PUSH1 0x0 SWAP1 SLOAD SWAP1 PUSH2 0x100 EXP SWAP1 DIV PUSH1 0xFF AND PUSH2 0x2541 JUMPI PUSH1 0x40 MLOAD PUSH32 0x8C379A000000000000000000000000000000000000000000000000000000000 DUP2 MSTORE PUSH1 0x4 ADD PUSH2 0x2538 SWAP1 PUSH2 0x5495 JUMP JUMPDEST PUSH1 0x40 MLOAD DUP1 SWAP2 SUB SWAP1 REVERT JUMPDEST PUSH1 0x0 DUP6 MLOAD GT PUSH2 0x2585 JUMPI PUSH1 0x40 MLOAD PUSH32 0x8C379A000000000000000000000000000000000000000000000000000000000 DUP2 MSTORE PUSH1 0x4 ADD PUSH2 0x257C SWAP1 PUSH2 0x5A11 JUMP JUMPDEST PUSH1 0x40 MLOAD DUP1 SWAP2 SUB SWAP1 REVERT JUMPDEST PUSH1 0x0 DUP4 GT PUSH2 0x25C8 JUMPI PUSH1 0x40 MLOAD PUSH32 0x8C379A000000000000000000000000000000000000000000000000000000000 DUP2 MSTORE PUSH1 0x4 ADD PUSH2 0x25BF SWAP1 PUSH2 0x5429 JUMP JUMPDEST PUSH1 0x40 MLOAD DUP1 SWAP2 SUB SWAP1 REVERT JUMPDEST PUSH1 0x0 PUSH1 0x3 PUSH1 0x0 DUP2 SLOAD PUSH2 0x25D9 SWAP1 PUSH2 0x4EDA JUMP JUMPDEST SWAP2 SWAP1 POP DUP2 SWAP1 SSTORE SWAP1 POP PUSH1 0x0 PUSH1 0x8 PUSH1 0x0 DUP4 DUP2 MSTORE PUSH1 0x20 ADD SWAP1 DUP2 MSTORE PUSH1 0x20 ADD PUSH1 0x0 KECCAK256 SWAP1 POP DUP7 DUP2 PUSH1 0x0 ADD SWAP1 DUP2 PUSH2 0x2609 SWAP2 SWAP1 PUSH2 0x5268 JUMP JUMPDEST POP DUP6 DUP2 PUSH1 0x1 ADD SWAP1 DUP2 PUSH2 0x261B SWAP2 SWAP1 PUSH2 0x5268 JUMP JUMPDEST POP CALLER DUP2 PUSH1 0x2 ADD PUSH1 0x0 PUSH2 0x100 EXP DUP2 SLOAD DUP2 PUSH20 0xFFFFFFFFFFFFFFFFFFFFFFFFFFFFFFFFFFFFFFFF MUL NOT AND SWAP1 DUP4 PUSH20 0xFFFFFFFFFFFFFFFFFFFFFFFFFFFFFFFFFFFFFFFF AND MUL OR SWAP1 SSTORE POP PUSH1 0x1 DUP2 PUSH1 0x2 ADD PUSH1 0x14 PUSH2 0x100 EXP DUP2 SLOAD DUP2 PUSH1 0xFF MUL NOT AND SWAP1 DUP4 ISZERO ISZERO MUL OR SWAP1 SSTORE POP PUSH1 0x1 DUP2 PUSH1 0x2 ADD PUSH1 0x15 PUSH2 0x100 EXP DUP2 SLOAD DUP2 PUSH1 0xFF MUL NOT AND SWAP1 DUP4 ISZERO ISZERO MUL OR SWAP1 SSTORE POP DUP5 DUP2 PUSH1 0x3 ADD DUP2 SWAP1 SSTORE POP DUP4 DUP2 PUSH1 0x4 ADD SWAP1 DUP1 MLOAD SWAP1 PUSH1 0x20 ADD SWAP1 PUSH2 0x26BA SWAP3 SWAP2 SWAP1 PUSH2 0x3DF8 JUMP JUMPDEST POP PUSH1 0x9 PUSH1 0x0 CALLER PUSH20 0xFFFFFFFFFFFFFFFFFFFFFFFFFFFFFFFFFFFFFFFF AND PUSH20 0xFFFFFFFFFFFFFFFFFFFFFFFFFFFFFFFFFFFFFFFF AND DUP2 MSTORE PUSH1 0x20 ADD SWAP1 DUP2 MSTORE PUSH1 0x20 ADD PUSH1 0x0 KECCAK256 DUP3 SWAP1 DUP1 PUSH1 0x1 DUP2 SLOAD ADD DUP1 DUP3 SSTORE DUP1 SWAP2 POP POP PUSH1 0x1 SWAP1 SUB SWAP1 PUSH1 0x0 MSTORE PUSH1 0x20 PUSH1 0x0 KECCAK256 ADD PUSH1 0x0 SWAP1 SWAP2 SWAP1 SWAP2 SWAP1 SWAP2 POP SSTORE CALLER PUSH20 0xFFFFFFFFFFFFFFFFFFFFFFFFFFFFFFFFFFFFFFFF AND DUP3 PUSH32 0x4249929F0F688701E8330582F47182DCE84E7842E59A08AD806666FC1A535537 DUP10 DUP10 PUSH1 0x40 MLOAD PUSH2 0x276A SWAP3 SWAP2 SWAP1 PUSH2 0x533A JUMP JUMPDEST PUSH1 0x40 MLOAD DUP1 SWAP2 SUB SWAP1 LOG3 POP POP POP POP POP POP POP JUMP JUMPDEST PUSH2 0x2783 PUSH2 0x3E51 JUMP JUMPDEST PUSH1 0x7 PUSH1 0x0 DUP4 PUSH20 0xFFFFFFFFFFFFFFFFFFFFFFFFFFFFFFFFFFFFFFFF AND PUSH20 0xFFFFFFFFFFFFFFFFFFFFFFFFFFFFFFFFFFFFFFFF AND DUP2 MSTORE PUSH1 0x20 ADD SWAP1 DUP2 MSTORE PUSH1 0x20 ADD PUSH1 0x0 KECCAK256 PUSH1 0x40 MLOAD DUP1 PUSH1 0x60 ADD PUSH1 0x40 MSTORE SWAP1 DUP2 PUSH1 0x0 DUP3 ADD DUP1 SLOAD PUSH2 0x27DD SWAP1 PUSH2 0x4F51 JUMP JUMPDEST DUP1 PUSH1 0x1F ADD PUSH1 0x20 DUP1 SWAP2 DIV MUL PUSH1 0x20 ADD PUSH1 0x40 MLOAD SWAP1 DUP2 ADD PUSH1 0x40 MSTORE DUP1 SWAP3 SWAP2 SWAP1 DUP2 DUP2 MSTORE PUSH1 0x20 ADD DUP3 DUP1 SLOAD PUSH2 0x2809 SWAP1 PUSH2 0x4F51 JUMP JUMPDEST DUP1 ISZERO PUSH2 0x2856 JUMPI DUP1 PUSH1 0x1F LT PUSH2 0x282B JUMPI PUSH2 0x100 DUP1 DUP4 SLOAD DIV MUL DUP4 MSTORE SWAP2 PUSH1 0x20 ADD SWAP2 PUSH2 0x2856 JUMP JUMPDEST DUP3 ADD SWAP2 SWAP1 PUSH1 0x0 MSTORE PUSH1 0x20 PUSH1 0x0 KECCAK256 SWAP1 JUMPDEST DUP2 SLOAD DUP2 MSTORE SWAP1 PUSH1 0x1 ADD SWAP1 PUSH1 0x20 ADD DUP1 DUP4 GT PUSH2 0x2839 JUMPI DUP3 SWAP1 SUB PUSH1 0x1F AND DUP3 ADD SWAP2 JUMPDEST POP POP POP POP POP DUP2 MSTORE PUSH1 0x20 ADD PUSH1 0x1 DUP3 ADD DUP1 SLOAD PUSH2 0x286F SWAP1 PUSH2 0x4F51 JUMP JUMPDEST DUP1 PUSH1 0x1F ADD PUSH1 0x20 DUP1 SWAP2 DIV MUL PUSH1 0x20 ADD PUSH1 0x40 MLOAD SWAP1 DUP2 ADD PUSH1 0x40 MSTORE DUP1 SWAP3 SWAP2 SWAP1 DUP2 DUP2 MSTORE PUSH1 0x20 ADD DUP3 DUP1 SLOAD PUSH2 0x289B SWAP1 PUSH2 0x4F51 JUMP JUMPDEST DUP1 ISZERO PUSH2 0x28E8 JUMPI DUP1 PUSH1 0x1F LT PUSH2 0x28BD JUMPI PUSH2 0x100 DUP1 DUP4 SLOAD DIV MUL DUP4 MSTORE SWAP2 PUSH1 0x20 ADD SWAP2 PUSH2 0x28E8 JUMP JUMPDEST DUP3 ADD SWAP2 SWAP1 PUSH1 0x0 MSTORE PUSH1 0x20 PUSH1 0x0 KECCAK256 SWAP1 JUMPDEST DUP2 SLOAD DUP2 MSTORE SWAP1 PUSH1 0x1 ADD SWAP1 PUSH1 0x20 ADD DUP1 DUP4 GT PUSH2 0x28CB JUMPI DUP3 SWAP1 SUB PUSH1 0x1F AND DUP3 ADD SWAP2 JUMPDEST POP POP POP POP POP DUP2 MSTORE PUSH1 0x20 ADD PUSH1 0x2 DUP3 ADD PUSH1 0x0 SWAP1 SLOAD SWAP1 PUSH2 0x100 EXP SWAP1 DIV PUSH1 0xFF AND ISZERO ISZERO ISZERO ISZERO DUP2 MSTORE POP POP SWAP1 POP SWAP2 SWAP1 POP JUMP JUMPDEST PUSH1 0x1 PUSH1 0x0 SWAP1 SLOAD SWAP1 PUSH2 0x100 EXP SWAP1 DIV PUSH20 0xFFFFFFFFFFFFFFFFFFFFFFFFFFFFFFFFFFFFFFFF AND PUSH20 0xFFFFFFFFFFFFFFFFFFFFFFFFFFFFFFFFFFFFFFFF AND CALLER PUSH20 0xFFFFFFFFFFFFFFFFFFFFFFFFFFFFFFFFFFFFFFFF AND EQ PUSH2 0x29A3 JUMPI PUSH1 0x40 MLOAD PUSH32 0x8C379A000000000000000000000000000000000000000000000000000000000 DUP2 MSTORE PUSH1 0x4 ADD PUSH2 0x299A SWAP1 PUSH2 0x4FCE JUMP JUMPDEST PUSH1 0x40 MLOAD DUP1 SWAP2 SUB SWAP1 REVERT JUMPDEST DUP1 PUSH1 0x0 DUP1 PUSH2 0x100 EXP DUP2 SLOAD DUP2 PUSH20 0xFFFFFFFFFFFFFFFFFFFFFFFFFFFFFFFFFFFFFFFF MUL NOT AND SWAP1 DUP4 PUSH20 0xFFFFFFFFFFFFFFFFFFFFFFFFFFFFFFFFFFFFFFFF AND MUL OR SWAP1 SSTORE POP POP JUMP JUMPDEST PUSH1 0x60 PUSH1 0xA PUSH1 0x0 DUP4 DUP2 MSTORE PUSH1 0x20 ADD SWAP1 DUP2 MSTORE PUSH1 0x20 ADD PUSH1 0x0 KECCAK256 DUP1 SLOAD DUP1 PUSH1 0x20 MUL PUSH1 0x20 ADD PUSH1 0x40 MLOAD SWAP1 DUP2 ADD PUSH1 0x40 MSTORE DUP1 SWAP3 SWAP2 SWAP1 DUP2 DUP2 MSTORE PUSH1 0x20 ADD DUP3 DUP1 SLOAD DUP1 ISZERO PUSH2 0x2A45 JUMPI PUSH1 0x20 MUL DUP3 ADD SWAP2 SWAP1 PUSH1 0x0 MSTORE PUSH1 0x20 PUSH1 0x0 KECCAK256 SWAP1 JUMPDEST DUP2 SLOAD DUP2 MSTORE PUSH1 0x20 ADD SWAP1 PUSH1 0x1 ADD SWAP1 DUP1 DUP4 GT PUSH2 0x2A31 JUMPI JUMPDEST POP POP POP POP POP SWAP1 POP SWAP2 SWAP1 POP JUMP JUMPDEST PUSH1 0xC PUSH1 0x20 MSTORE DUP1 PUSH1 0x0 MSTORE PUSH1 0x40 PUSH1 0x0 KECCAK256 PUSH1 0x0 SWAP2 POP SWAP1 POP DUP1 PUSH1 0x0 ADD SLOAD SWAP1 DUP1 PUSH1 0x1 ADD PUSH1 0x0 SWAP1 SLOAD SWAP1 PUSH2 0x100 EXP SWAP1 DIV PUSH20 0xFFFFFFFFFFFFFFFFFFFFFFFFFFFFFFFFFFFFFFFF AND SWAP1 DUP1 PUSH1 0x2 ADD DUP1 SLOAD PUSH2 0x2AA0 SWAP1 PUSH2 0x4F51 JUMP JUMPDEST DUP1 PUSH1 0x1F ADD PUSH1 0x20 DUP1 SWAP2 DIV MUL PUSH1 0x20 ADD PUSH1 0x40 MLOAD SWAP1 DUP2 ADD PUSH1 0x40 MSTORE DUP1 SWAP3 SWAP2 SWAP1 DUP2 DUP2 MSTORE PUSH1 0x20 ADD DUP3 DUP1 SLOAD PUSH2 0x2ACC SWAP1 PUSH2 0x4F51 JUMP JUMPDEST DUP1 ISZERO PUSH2 0x2B19 JUMPI DUP1 PUSH1 0x1F LT PUSH2 0x2AEE JUMPI PUSH2 0x100 DUP1 DUP4 SLOAD DIV MUL DUP4 MSTORE SWAP2 PUSH1 0x20 ADD SWAP2 PUSH2 0x2B19 JUMP JUMPDEST DUP3 ADD SWAP2 SWAP1 PUSH1 0x0 MSTORE PUSH1 0x20 PUSH1 0x0 KECCAK256 SWAP1 JUMPDEST DUP2 SLOAD DUP2 MSTORE SWAP1 PUSH1 0x1 ADD SWAP1 PUSH1 0x20 ADD DUP1 DUP4 GT PUSH2 0x2AFC JUMPI DUP3 SWAP1 SUB PUSH1 0x1F AND DUP3 ADD SWAP2 JUMPDEST POP POP POP POP POP SWAP1 DUP1 PUSH1 0x3 ADD SLOAD SWAP1 DUP1 PUSH1 0x4 ADD SLOAD SWAP1 DUP1 PUSH1 0x5 ADD SLOAD SWAP1 DUP1 PUSH1 0x6 ADD DUP1 SLOAD PUSH2 0x2B40 SWAP1 PUSH2 0x4F51 JUMP JUMPDEST DUP1 PUSH1 0x1F ADD PUSH1 0x20 DUP1 SWAP2 DIV MUL PUSH1 0x20 ADD PUSH1 0x40 MLOAD SWAP1 DUP2 ADD PUSH1 0x40 MSTORE DUP1 SWAP3 SWAP2 SWAP1 DUP2 DUP2 MSTORE PUSH1 0x20 ADD DUP3 DUP1 SLOAD PUSH2 0x2B6C SWAP1 PUSH2 0x4F51 JUMP JUMPDEST DUP1 ISZERO PUSH2 0x2BB9 JUMPI DUP1 PUSH1 0x1F LT PUSH2 0x2B8E JUMPI PUSH2 0x100 DUP1 DUP4 SLOAD DIV MUL DUP4 MSTORE SWAP2 PUSH1 0x20 ADD SWAP2 PUSH2 0x2BB9 JUMP JUMPDEST DUP3 ADD SWAP2 SWAP1 PUSH1 0x0 MSTORE PUSH1 0x20 PUSH1 0x0 KECCAK256 SWAP1 JUMPDEST DUP2 SLOAD DUP2 MSTORE SWAP1 PUSH1 0x1 ADD SWAP1 PUSH1 0x20 ADD DUP1 DUP4 GT PUSH2 0x2B9C JUMPI DUP3 SWAP1 SUB PUSH1 0x1F AND DUP3 ADD SWAP2 JUMPDEST POP POP POP POP POP SWAP1 DUP1 PUSH1 0x7 ADD PUSH1 0x0 SWAP1 SLOAD SWAP1 PUSH2 0x100 EXP SWAP1 DIV PUSH1 0xFF AND SWAP1 DUP1 PUSH1 0x8 ADD SLOAD SWAP1 DUP1 PUSH1 0x9 ADD SLOAD SWAP1 DUP1 PUSH1 0xA ADD DUP1 SLOAD PUSH2 0x2BED SWAP1 PUSH2 0x4F51 JUMP JUMPDEST DUP1 PUSH1 0x1F ADD PUSH1 0x20 DUP1 SWAP2 DIV MUL PUSH1 0x20 ADD PUSH1 0x40 MLOAD SWAP1 DUP2 ADD PUSH1 0x40 MSTORE DUP1 SWAP3 SWAP2 SWAP1 DUP2 DUP2 MSTORE PUSH1 0x20 ADD DUP3 DUP1 SLOAD PUSH2 0x2C19 SWAP1 PUSH2 0x4F51 JUMP JUMPDEST DUP1 ISZERO PUSH2 0x2C66 JUMPI DUP1 PUSH1 0x1F LT PUSH2 0x2C3B JUMPI PUSH2 0x100 DUP1 DUP4 SLOAD DIV MUL DUP4 MSTORE SWAP2 PUSH1 0x20 ADD SWAP2 PUSH2 0x2C66 JUMP JUMPDEST DUP3 ADD SWAP2 SWAP1 PUSH1 0x0 MSTORE PUSH1 0x20 PUSH1 0x0 KECCAK256 SWAP1 JUMPDEST DUP2 SLOAD DUP2 MSTORE SWAP1 PUSH1 0x1 ADD SWAP1 PUSH1 0x20 ADD DUP1 DUP4 GT PUSH2 0x2C49 JUMPI DUP3 SWAP1 SUB PUSH1 0x1F AND DUP3 ADD SWAP2 JUMPDEST POP POP POP POP POP SWAP1 POP DUP12 JUMP JUMPDEST PUSH1 0x7 PUSH1 0x20 MSTORE DUP1 PUSH1 0x0 MSTORE PUSH1 0x40 PUSH1 0x0 KECCAK256 PUSH1 0x0 SWAP2 POP SWAP1 POP DUP1 PUSH1 0x0 ADD DUP1 SLOAD PUSH2 0x2C93 SWAP1 PUSH2 0x4F51 JUMP JUMPDEST DUP1 PUSH1 0x1F ADD PUSH1 0x20 DUP1 SWAP2 DIV MUL PUSH1 0x20 ADD PUSH1 0x40 MLOAD SWAP1 DUP2 ADD PUSH1 0x40 MSTORE DUP1 SWAP3 SWAP2 SWAP1 DUP2 DUP2 MSTORE PUSH1 0x20 ADD DUP3 DUP1 SLOAD PUSH2 0x2CBF SWAP1 PUSH2 0x4F51 JUMP JUMPDEST DUP1 ISZERO PUSH2 0x2D0C JUMPI DUP1 PUSH1 0x1F LT PUSH2 0x2CE1 JUMPI PUSH2 0x100 DUP1 DUP4 SLOAD DIV MUL DUP4 MSTORE SWAP2 PUSH1 0x20 ADD SWAP2 PUSH2 0x2D0C JUMP JUMPDEST DUP3 ADD SWAP2 SWAP1 PUSH1 0x0 MSTORE PUSH1 0x20 PUSH1 0x0 KECCAK256 SWAP1 JUMPDEST DUP2 SLOAD DUP2 MSTORE SWAP1 PUSH1 0x1 ADD SWAP1 PUSH1 0x20 ADD DUP1 DUP4 GT PUSH2 0x2CEF JUMPI DUP3 SWAP1 SUB PUSH1 0x1F AND DUP3 ADD SWAP2 JUMPDEST POP POP POP POP POP SWAP1 DUP1 PUSH1 0x1 ADD DUP1 SLOAD PUSH2 0x2D21 SWAP1 PUSH2 0x4F51 JUMP JUMPDEST DUP1 PUSH1 0x1F ADD PUSH1 0x20 DUP1 SWAP2 DIV MUL PUSH1 0x20 ADD PUSH1 0x40 MLOAD SWAP1 DUP2 ADD PUSH1 0x40 MSTORE DUP1 SWAP3 SWAP2 SWAP1 DUP2 DUP2 MSTORE PUSH1 0x20 ADD DUP3 DUP1 SLOAD PUSH2 0x2D4D SWAP1 PUSH2 0x4F51 JUMP JUMPDEST DUP1 ISZERO PUSH2 0x2D9A JUMPI DUP1 PUSH1 0x1F LT PUSH2 0x2D6F JUMPI PUSH2 0x100 DUP1 DUP4 SLOAD DIV MUL DUP4 MSTORE SWAP2 PUSH1 0x20 ADD SWAP2 PUSH2 0x2D9A JUMP JUMPDEST DUP3 ADD SWAP2 SWAP1 PUSH1 0x0 MSTORE PUSH1 0x20 PUSH1 0x0 KECCAK256 SWAP1 JUMPDEST DUP2 SLOAD DUP2 MSTORE SWAP1 PUSH1 0x1 ADD SWAP1 PUSH1 0x20 ADD DUP1 DUP4 GT PUSH2 0x2D7D JUMPI DUP3 SWAP1 SUB PUSH1 0x1F AND DUP3 ADD SWAP2 JUMPDEST POP POP POP POP POP SWAP1 DUP1 PUSH1 0x2 ADD PUSH1 0x0 SWAP1 SLOAD SWAP1 PUSH2 0x100 EXP SWAP1 DIV PUSH1 0xFF AND SWAP1 POP DUP4 JUMP JUMPDEST DUP2 CALLER PUSH20 0xFFFFFFFFFFFFFFFFFFFFFFFFFFFFFFFFFFFFFFFF AND PUSH1 0xC PUSH1 0x0 DUP4 DUP2 MSTORE PUSH1 0x20 ADD SWAP1 DUP2 MSTORE PUSH1 0x20 ADD PUSH1 0x0 KECCAK256 PUSH1 0x1 ADD PUSH1 0x0 SWAP1 SLOAD SWAP1 PUSH2 0x100 EXP SWAP1 DIV PUSH20 0xFFFFFFFFFFFFFFFFFFFFFFFFFFFFFFFFFFFFFFFF AND PUSH20 0xFFFFFFFFFFFFFFFFFFFFFFFFFFFFFFFFFFFFFFFF AND EQ DUP1 PUSH2 0x2E9F JUMPI POP CALLER PUSH20 0xFFFFFFFFFFFFFFFFFFFFFFFFFFFFFFFFFFFFFFFF AND PUSH1 0x8 PUSH1 0x0 PUSH1 0xC PUSH1 0x0 DUP6 DUP2 MSTORE PUSH1 0x20 ADD SWAP1 DUP2 MSTORE PUSH1 0x20 ADD PUSH1 0x0 KECCAK256 PUSH1 0x3 ADD SLOAD DUP2 MSTORE PUSH1 0x20 ADD SWAP1 DUP2 MSTORE PUSH1 0x20 ADD PUSH1 0x0 KECCAK256 PUSH1 0x2 ADD PUSH1 0x0 SWAP1 SLOAD SWAP1 PUSH2 0x100 EXP SWAP1 DIV PUSH20 0xFFFFFFFFFFFFFFFFFFFFFFFFFFFFFFFFFFFFFFFF AND PUSH20 0xFFFFFFFFFFFFFFFFFFFFFFFFFFFFFFFFFFFFFFFF AND EQ JUMPDEST PUSH2 0x2EDE JUMPI PUSH1 0x40 MLOAD PUSH32 0x8C379A000000000000000000000000000000000000000000000000000000000 DUP2 MSTORE PUSH1 0x4 ADD PUSH2 0x2ED5 SWAP1 PUSH2 0x5A7D JUMP JUMPDEST PUSH1 0x40 MLOAD DUP1 SWAP2 SUB SWAP1 REVERT JUMPDEST PUSH1 0x0 PUSH1 0xC PUSH1 0x0 DUP6 DUP2 MSTORE PUSH1 0x20 ADD SWAP1 DUP2 MSTORE PUSH1 0x20 ADD PUSH1 0x0 KECCAK256 PUSH1 0x7 ADD PUSH1 0x0 SWAP1 SLOAD SWAP1 PUSH2 0x100 EXP SWAP1 DIV PUSH1 0xFF AND SWAP1 POP PUSH1 0x0 PUSH1 0x2 DUP2 GT ISZERO PUSH2 0x2F1A JUMPI PUSH2 0x2F19 PUSH2 0x4AE4 JUMP JUMPDEST JUMPDEST DUP2 PUSH1 0x2 DUP2 GT ISZERO PUSH2 0x2F2D JUMPI PUSH2 0x2F2C PUSH2 0x4AE4 JUMP JUMPDEST JUMPDEST EQ PUSH2 0x2F6D JUMPI PUSH1 0x40 MLOAD PUSH32 0x8C379A000000000000000000000000000000000000000000000000000000000 DUP2 MSTORE PUSH1 0x4 ADD PUSH2 0x2F64 SWAP1 PUSH2 0x5B0F JUMP JUMPDEST PUSH1 0x40 MLOAD DUP1 SWAP2 SUB SWAP1 REVERT JUMPDEST PUSH1 0x2 PUSH1 0xC PUSH1 0x0 DUP7 DUP2 MSTORE PUSH1 0x20 ADD SWAP1 DUP2 MSTORE PUSH1 0x20 ADD PUSH1 0x0 KECCAK256 PUSH1 0x7 ADD PUSH1 0x0 PUSH2 0x100 EXP DUP2 SLOAD DUP2 PUSH1 0xFF MUL NOT AND SWAP1 DUP4 PUSH1 0x2 DUP2 GT ISZERO PUSH2 0x2FA7 JUMPI PUSH2 0x2FA6 PUSH2 0x4AE4 JUMP JUMPDEST JUMPDEST MUL OR SWAP1 SSTORE POP PUSH1 0x0 PUSH1 0x2 DUP2 GT ISZERO PUSH2 0x2FC0 JUMPI PUSH2 0x2FBF PUSH2 0x4AE4 JUMP JUMPDEST JUMPDEST DUP2 PUSH1 0x2 DUP2 GT ISZERO PUSH2 0x2FD3 JUMPI PUSH2 0x2FD2 PUSH2 0x4AE4 JUMP JUMPDEST JUMPDEST SUB PUSH2 0x306D JUMPI PUSH1 0x1 PUSH1 0x8 PUSH1 0x0 PUSH1 0xC PUSH1 0x0 DUP9 DUP2 MSTORE PUSH1 0x20 ADD SWAP1 DUP2 MSTORE PUSH1 0x20 ADD PUSH1 0x0 KECCAK256 PUSH1 0x3 ADD SLOAD DUP2 MSTORE PUSH1 0x20 ADD SWAP1 DUP2 MSTORE PUSH1 0x20 ADD PUSH1 0x0 KECCAK256 PUSH1 0x2 ADD PUSH1 0x15 PUSH2 0x100 EXP DUP2 SLOAD DUP2 PUSH1 0xFF MUL NOT AND SWAP1 DUP4 ISZERO ISZERO MUL OR SWAP1 SSTORE POP PUSH1 0xC PUSH1 0x0 DUP6 DUP2 MSTORE PUSH1 0x20 ADD SWAP1 DUP2 MSTORE PUSH1 0x20 ADD PUSH1 0x0 KECCAK256 PUSH1 0x3 ADD SLOAD PUSH32 0x31BF9276BFBEEB0264279506DA13FFBD75AFA6ED8D082EBF3E0E8612C0B15866 PUSH1 0x1 PUSH1 0x40 MLOAD PUSH2 0x3064 SWAP2 SWAP1 PUSH2 0x4CBC JUMP JUMPDEST PUSH1 0x40 MLOAD DUP1 SWAP2 SUB SWAP1 LOG2 JUMPDEST PUSH1 0x0 PUSH1 0xD PUSH1 0x0 DUP7 DUP2 MSTORE PUSH1 0x20 ADD SWAP1 DUP2 MSTORE PUSH1 0x20 ADD PUSH1 0x0 KECCAK256 SLOAD SWAP1 POP PUSH1 0x0 PUSH1 0xD PUSH1 0x0 DUP8 DUP2 MSTORE PUSH1 0x20 ADD SWAP1 DUP2 MSTORE PUSH1 0x20 ADD PUSH1 0x0 KECCAK256 DUP2 SWAP1 SSTORE POP PUSH1 0x0 DUP1 SLOAD SWAP1 PUSH2 0x100 EXP SWAP1 DIV PUSH20 0xFFFFFFFFFFFFFFFFFFFFFFFFFFFFFFFFFFFFFFFF AND PUSH20 0xFFFFFFFFFFFFFFFFFFFFFFFFFFFFFFFFFFFFFFFF AND PUSH4 0xA9059CBB PUSH1 0xC PUSH1 0x0 DUP9 DUP2 MSTORE PUSH1 0x20 ADD SWAP1 DUP2 MSTORE PUSH1 0x20 ADD PUSH1 0x0 KECCAK256 PUSH1 0x1 ADD PUSH1 0x0 SWAP1 SLOAD SWAP1 PUSH2 0x100 EXP SWAP1 DIV PUSH20 0xFFFFFFFFFFFFFFFFFFFFFFFFFFFFFFFFFFFFFFFF AND DUP4 PUSH1 0x40 MLOAD DUP4 PUSH4 0xFFFFFFFF AND PUSH1 0xE0 SHL DUP2 MSTORE PUSH1 0x4 ADD PUSH2 0x312F SWAP3 SWAP2 SWAP1 PUSH2 0x5930 JUMP JUMPDEST PUSH1 0x20 PUSH1 0x40 MLOAD DUP1 DUP4 SUB DUP2 PUSH1 0x0 DUP8 GAS CALL ISZERO DUP1 ISZERO PUSH2 0x314E JUMPI RETURNDATASIZE PUSH1 0x0 DUP1 RETURNDATACOPY RETURNDATASIZE PUSH1 0x0 REVERT JUMPDEST POP POP POP POP PUSH1 0x40 MLOAD RETURNDATASIZE PUSH1 0x1F NOT PUSH1 0x1F DUP3 ADD AND DUP3 ADD DUP1 PUSH1 0x40 MSTORE POP DUP2 ADD SWAP1 PUSH2 0x3172 SWAP2 SWAP1 PUSH2 0x57C7 JUMP JUMPDEST PUSH2 0x31B1 JUMPI PUSH1 0x40 MLOAD PUSH32 0x8C379A000000000000000000000000000000000000000000000000000000000 DUP2 MSTORE PUSH1 0x4 ADD PUSH2 0x31A8 SWAP1 PUSH2 0x5B7B JUMP JUMPDEST PUSH1 0x40 MLOAD DUP1 SWAP2 SUB SWAP1 REVERT JUMPDEST DUP5 PUSH32 0x56D64C06F67A0A2C80B38A9CD2B031E911C22A2C176BEA4219ADC7F5E3366A92 DUP6 PUSH1 0x40 MLOAD PUSH2 0x31E1 SWAP2 SWAP1 PUSH2 0x5B9B JUMP JUMPDEST PUSH1 0x40 MLOAD DUP1 SWAP2 SUB SWAP1 LOG2 POP POP POP POP POP JUMP JUMPDEST PUSH1 0xD PUSH1 0x20 MSTORE DUP1 PUSH1 0x0 MSTORE PUSH1 0x40 PUSH1 0x0 KECCAK256 PUSH1 0x0 SWAP2 POP SWAP1 POP SLOAD DUP2 JUMP JUMPDEST PUSH1 0xE PUSH1 0x20 MSTORE DUP1 PUSH1 0x0 MSTORE PUSH1 0x40 PUSH1 0x0 KECCAK256 PUSH1 0x0 SWAP2 POP SLOAD SWAP1 PUSH2 0x100 EXP SWAP1 DIV PUSH1 0xFF AND DUP2 JUMP JUMPDEST PUSH1 0x2 PUSH1 0x0 SWAP1 SLOAD SWAP1 PUSH2 0x100 EXP SWAP1 DIV PUSH20 0xFFFFFFFFFFFFFFFFFFFFFFFFFFFFFFFFFFFFFFFF AND PUSH20 0xFFFFFFFFFFFFFFFFFFFFFFFFFFFFFFFFFFFFFFFF AND CALLER PUSH20 0xFFFFFFFFFFFFFFFFFFFFFFFFFFFFFFFFFFFFFFFF AND EQ PUSH2 0x32B8 JUMPI PUSH1 0x40 MLOAD PUSH32 0x8C379A000000000000000000000000000000000000000000000000000000000 DUP2 MSTORE PUSH1 0x4 ADD PUSH2 0x32AF SWAP1 PUSH2 0x5C09 JUMP JUMPDEST PUSH1 0x40 MLOAD DUP1 SWAP2 SUB SWAP1 REVERT JUMPDEST DUP1 PUSH1 0x0 DUP1 PUSH1 0x2 DUP2 GT ISZERO PUSH2 0x32CE JUMPI PUSH2 0x32CD PUSH2 0x4AE4 JUMP JUMPDEST JUMPDEST PUSH1 0xC PUSH1 0x0 DUP5 DUP2 MSTORE PUSH1 0x20 ADD SWAP1 DUP2 MSTORE PUSH1 0x20 ADD PUSH1 0x0 KECCAK256 PUSH1 0x7 ADD PUSH1 0x0 SWAP1 SLOAD SWAP1 PUSH2 0x100 EXP SWAP1 DIV PUSH1 0xFF AND PUSH1 0x2 DUP2 GT ISZERO PUSH2 0x3304 JUMPI PUSH2 0x3303 PUSH2 0x4AE4 JUMP JUMPDEST JUMPDEST EQ PUSH2 0x3344 JUMPI PUSH1 0x40 MLOAD PUSH32 0x8C379A000000000000000000000000000000000000000000000000000000000 DUP2 MSTORE PUSH1 0x4 ADD PUSH2 0x333B SWAP1 PUSH2 0x5C75 JUMP JUMPDEST PUSH1 0x40 MLOAD DUP1 SWAP2 SUB SWAP1 REVERT JUMPDEST PUSH1 0x0 PUSH1 0xC PUSH1 0x0 DUP6 DUP2 MSTORE PUSH1 0x20 ADD SWAP1 DUP2 MSTORE PUSH1 0x20 ADD PUSH1 0x0 KECCAK256 SWAP1 POP DUP1 PUSH1 0x8 ADD SLOAD TIMESTAMP LT ISZERO PUSH2 0x33A2 JUMPI PUSH1 0x40 MLOAD PUSH32 0x8C379A000000000000000000000000000000000000000000000000000000000 DUP2 MSTORE PUSH1 0x4 ADD PUSH2 0x3399 SWAP1 PUSH2 0x5CE1 JUMP JUMPDEST PUSH1 0x40 MLOAD DUP1 SWAP2 SUB SWAP1 REVERT JUMPDEST PUSH1 0x1 DUP2 PUSH1 0x7 ADD PUSH1 0x0 PUSH2 0x100 EXP DUP2 SLOAD DUP2 PUSH1 0xFF MUL NOT AND SWAP1 DUP4 PUSH1 0x2 DUP2 GT ISZERO PUSH2 0x33CA JUMPI PUSH2 0x33C9 PUSH2 0x4AE4 JUMP JUMPDEST JUMPDEST MUL OR SWAP1 SSTORE POP PUSH1 0x0 DUP2 PUSH1 0x3 ADD SLOAD SWAP1 POP PUSH1 0x8 PUSH1 0x0 DUP3 DUP2 MSTORE PUSH1 0x20 ADD SWAP1 DUP2 MSTORE PUSH1 0x20 ADD PUSH1 0x0 KECCAK256 PUSH1 0x6 ADD PUSH1 0x0 DUP2 SLOAD DUP1 SWAP3 SWAP2 SWAP1 PUSH2 0x33FF SWAP1 PUSH2 0x4EDA JUMP JUMPDEST SWAP2 SWAP1 POP SSTORE POP PUSH1 0x0 PUSH1 0xD PUSH1 0x0 DUP8 DUP2 MSTORE PUSH1 0x20 ADD SWAP1 DUP2 MSTORE PUSH1 0x20 ADD PUSH1 0x0 KECCAK256 SLOAD SWAP1 POP PUSH1 0x0 PUSH1 0x64 PUSH1 0x5 SLOAD DUP4 PUSH2 0x342E SWAP2 SWAP1 PUSH2 0x568B JUMP JUMPDEST PUSH2 0x3438 SWAP2 SWAP1 PUSH2 0x5D30 JUMP JUMPDEST SWAP1 POP PUSH1 0x0 DUP2 DUP4 PUSH2 0x3448 SWAP2 SWAP1 PUSH2 0x5D61 JUMP JUMPDEST SWAP1 POP PUSH1 0x0 PUSH1 0xD PUSH1 0x0 DUP11 DUP2 MSTORE PUSH1 0x20 ADD SWAP1 DUP2 MSTORE PUSH1 0x20 ADD PUSH1 0x0 KECCAK256 DUP2 SWAP1 SSTORE POP PUSH1 0x0 DUP3 GT ISZERO PUSH2 0x356C JUMPI PUSH1 0x0 DUP1 SLOAD SWAP1 PUSH2 0x100 EXP SWAP1 DIV PUSH20 0xFFFFFFFFFFFFFFFFFFFFFFFFFFFFFFFFFFFFFFFF AND PUSH20 0xFFFFFFFFFFFFFFFFFFFFFFFFFFFFFFFFFFFFFFFF AND PUSH4 0xA9059CBB PUSH1 0x2 PUSH1 0x0 SWAP1 SLOAD SWAP1 PUSH2 0x100 EXP SWAP1 DIV PUSH20 0xFFFFFFFFFFFFFFFFFFFFFFFFFFFFFFFFFFFFFFFF AND DUP5 PUSH1 0x40 MLOAD DUP4 PUSH4 0xFFFFFFFF AND PUSH1 0xE0 SHL DUP2 MSTORE PUSH1 0x4 ADD PUSH2 0x34E9 SWAP3 SWAP2 SWAP1 PUSH2 0x5930 JUMP JUMPDEST PUSH1 0x20 PUSH1 0x40 MLOAD DUP1 DUP4 SUB DUP2 PUSH1 0x0 DUP8 GAS CALL ISZERO DUP1 ISZERO PUSH2 0x3508 JUMPI RETURNDATASIZE PUSH1 0x0 DUP1 RETURNDATACOPY RETURNDATASIZE PUSH1 0x0 REVERT JUMPDEST POP POP POP POP PUSH1 0x40 MLOAD RETURNDATASIZE PUSH1 0x1F NOT PUSH1 0x1F DUP3 ADD AND DUP3 ADD DUP1 PUSH1 0x40 MSTORE POP DUP2 ADD SWAP1 PUSH2 0x352C SWAP2 SWAP1 PUSH2 0x57C7 JUMP JUMPDEST PUSH2 0x356B JUMPI PUSH1 0x40 MLOAD PUSH32 0x8C379A000000000000000000000000000000000000000000000000000000000 DUP2 MSTORE PUSH1 0x4 ADD PUSH2 0x3562 SWAP1 PUSH2 0x5DE1 JUMP JUMPDEST PUSH1 0x40 MLOAD DUP1 SWAP2 SUB SWAP1 REVERT JUMPDEST JUMPDEST PUSH1 0x0 DUP1 SLOAD SWAP1 PUSH2 0x100 EXP SWAP1 DIV PUSH20 0xFFFFFFFFFFFFFFFFFFFFFFFFFFFFFFFFFFFFFFFF AND PUSH20 0xFFFFFFFFFFFFFFFFFFFFFFFFFFFFFFFFFFFFFFFF AND PUSH4 0xA9059CBB PUSH1 0x8 PUSH1 0x0 DUP8 DUP2 MSTORE PUSH1 0x20 ADD SWAP1 DUP2 MSTORE PUSH1 0x20 ADD PUSH1 0x0 KECCAK256 PUSH1 0x2 ADD PUSH1 0x0 SWAP1 SLOAD SWAP1 PUSH2 0x100 EXP SWAP1 DIV PUSH20 0xFFFFFFFFFFFFFFFFFFFFFFFFFFFFFFFFFFFFFFFF AND DUP4 PUSH1 0x40 MLOAD DUP4 PUSH4 0xFFFFFFFF AND PUSH1 0xE0 SHL DUP2 MSTORE PUSH1 0x4 ADD PUSH2 0x35FD SWAP3 SWAP2 SWAP1 PUSH2 0x5930 JUMP JUMPDEST PUSH1 0x20 PUSH1 0x40 MLOAD DUP1 DUP4 SUB DUP2 PUSH1 0x0 DUP8 GAS CALL ISZERO DUP1 ISZERO PUSH2 0x361C JUMPI RETURNDATASIZE PUSH1 0x0 DUP1 RETURNDATACOPY RETURNDATASIZE PUSH1 0x0 REVERT JUMPDEST POP POP POP POP PUSH1 0x40 MLOAD RETURNDATASIZE PUSH1 0x1F NOT PUSH1 0x1F DUP3 ADD AND DUP3 ADD DUP1 PUSH1 0x40 MSTORE POP DUP2 ADD SWAP1 PUSH2 0x3640 SWAP2 SWAP1 PUSH2 0x57C7 JUMP JUMPDEST PUSH2 0x367F JUMPI PUSH1 0x40 MLOAD PUSH32 0x8C379A000000000000000000000000000000000000000000000000000000000 DUP2 MSTORE PUSH1 0x4 ADD PUSH2 0x3676 SWAP1 PUSH2 0x5E4D JUMP JUMPDEST PUSH1 0x40 MLOAD DUP1 SWAP2 SUB SWAP1 REVERT JUMPDEST PUSH1 0x6 SLOAD SELFBALANCE LT PUSH2 0x36F4 JUMPI PUSH1 0x2 PUSH1 0x0 SWAP1 SLOAD SWAP1 PUSH2 0x100 EXP SWAP1 DIV PUSH20 0xFFFFFFFFFFFFFFFFFFFFFFFFFFFFFFFFFFFFFFFF AND PUSH20 0xFFFFFFFFFFFFFFFFFFFFFFFFFFFFFFFFFFFFFFFF AND PUSH2 0x8FC PUSH1 0x6 SLOAD SWAP1 DUP2 ISZERO MUL SWAP1 PUSH1 0x40 MLOAD PUSH1 0x0 PUSH1 0x40 MLOAD DUP1 DUP4 SUB DUP2 DUP6 DUP9 DUP9 CALL SWAP4 POP POP POP POP ISZERO DUP1 ISZERO PUSH2 0x36F2 JUMPI RETURNDATASIZE PUSH1 0x0 DUP1 RETURNDATACOPY RETURNDATASIZE PUSH1 0x0 REVERT JUMPDEST POP JUMPDEST PUSH1 0x1 PUSH1 0x8 PUSH1 0x0 DUP7 DUP2 MSTORE PUSH1 0x20 ADD SWAP1 DUP2 MSTORE PUSH1 0x20 ADD PUSH1 0x0 KECCAK256 PUSH1 0x2 ADD PUSH1 0x15 PUSH2 0x100 EXP DUP2 SLOAD DUP2 PUSH1 0xFF MUL NOT AND SWAP1 DUP4 ISZERO ISZERO MUL OR SWAP1 SSTORE POP PUSH1 0x2 PUSH1 0x0 SWAP1 SLOAD SWAP1 PUSH2 0x100 EXP SWAP1 DIV PUSH20 0xFFFFFFFFFFFFFFFFFFFFFFFFFFFFFFFFFFFFFFFF AND PUSH20 0xFFFFFFFFFFFFFFFFFFFFFFFFFFFFFFFFFFFFFFFF AND DUP9 PUSH32 0x2A08A3F5F5FB5BE26AD2F474B5B872881FF778103AB2D960D78B3C4A7EEE1923 DUP5 PUSH1 0x40 MLOAD PUSH2 0x378C SWAP2 SWAP1 PUSH2 0x4789 JUMP JUMPDEST PUSH1 0x40 MLOAD DUP1 SWAP2 SUB SWAP1 LOG3 PUSH1 0x8 PUSH1 0x0 DUP6 DUP2 MSTORE PUSH1 0x20 ADD SWAP1 DUP2 MSTORE PUSH1 0x20 ADD PUSH1 0x0 KECCAK256 PUSH1 0x2 ADD PUSH1 0x0 SWAP1 SLOAD SWAP1 PUSH2 0x100 EXP SWAP1 DIV PUSH20 0xFFFFFFFFFFFFFFFFFFFFFFFFFFFFFFFFFFFFFFFF AND PUSH20 0xFFFFFFFFFFFFFFFFFFFFFFFFFFFFFFFFFFFFFFFF AND DUP9 PUSH32 0x21D71DB5BE59BB9FA133895586B7404307DD33FB93B16DB09DC6F1D9D7D231B0 DUP4 PUSH1 0x40 MLOAD PUSH2 0x3811 SWAP2 SWAP1 PUSH2 0x4789 JUMP JUMPDEST PUSH1 0x40 MLOAD DUP1 SWAP2 SUB SWAP1 LOG3 DUP4 PUSH32 0x31BF9276BFBEEB0264279506DA13FFBD75AFA6ED8D082EBF3E0E8612C0B15866 PUSH1 0x1 PUSH1 0x40 MLOAD PUSH2 0x384A SWAP2 SWAP1 PUSH2 0x4CBC JUMP JUMPDEST PUSH1 0x40 MLOAD DUP1 SWAP2 SUB SWAP1 LOG2 POP POP POP POP POP POP POP POP JUMP JUMPDEST PUSH2 0x3864 PUSH2 0x3E74 JUMP JUMPDEST PUSH1 0xC PUSH1 0x0 DUP4 DUP2 MSTORE PUSH1 0x20 ADD SWAP1 DUP2 MSTORE PUSH1 0x20 ADD PUSH1 0x0 KECCAK256 PUSH1 0x40 MLOAD DUP1 PUSH2 0x160 ADD PUSH1 0x40 MSTORE SWAP1 DUP2 PUSH1 0x0 DUP3 ADD SLOAD DUP2 MSTORE PUSH1 0x20 ADD PUSH1 0x1 DUP3 ADD PUSH1 0x0 SWAP1 SLOAD SWAP1 PUSH2 0x100 EXP SWAP1 DIV PUSH20 0xFFFFFFFFFFFFFFFFFFFFFFFFFFFFFFFFFFFFFFFF AND PUSH20 0xFFFFFFFFFFFFFFFFFFFFFFFFFFFFFFFFFFFFFFFF AND PUSH20 0xFFFFFFFFFFFFFFFFFFFFFFFFFFFFFFFFFFFFFFFF AND DUP2 MSTORE PUSH1 0x20 ADD PUSH1 0x2 DUP3 ADD DUP1 SLOAD PUSH2 0x38F3 SWAP1 PUSH2 0x4F51 JUMP JUMPDEST DUP1 PUSH1 0x1F ADD PUSH1 0x20 DUP1 SWAP2 DIV MUL PUSH1 0x20 ADD PUSH1 0x40 MLOAD SWAP1 DUP2 ADD PUSH1 0x40 MSTORE DUP1 SWAP3 SWAP2 SWAP1 DUP2 DUP2 MSTORE PUSH1 0x20 ADD DUP3 DUP1 SLOAD PUSH2 0x391F SWAP1 PUSH2 0x4F51 JUMP JUMPDEST DUP1 ISZERO PUSH2 0x396C JUMPI DUP1 PUSH1 0x1F LT PUSH2 0x3941 JUMPI PUSH2 0x100 DUP1 DUP4 SLOAD DIV MUL DUP4 MSTORE SWAP2 PUSH1 0x20 ADD SWAP2 PUSH2 0x396C JUMP JUMPDEST DUP3 ADD SWAP2 SWAP1 PUSH1 0x0 MSTORE PUSH1 0x20 PUSH1 0x0 KECCAK256 SWAP1 JUMPDEST DUP2 SLOAD DUP2 MSTORE SWAP1 PUSH1 0x1 ADD SWAP1 PUSH1 0x20 ADD DUP1 DUP4 GT PUSH2 0x394F JUMPI DUP3 SWAP1 SUB PUSH1 0x1F AND DUP3 ADD SWAP2 JUMPDEST POP POP POP POP POP DUP2 MSTORE PUSH1 0x20 ADD PUSH1 0x3 DUP3 ADD SLOAD DUP2 MSTORE PUSH1 0x20 ADD PUSH1 0x4 DUP3 ADD SLOAD DUP2 MSTORE PUSH1 0x20 ADD PUSH1 0x5 DUP3 ADD SLOAD DUP2 MSTORE PUSH1 0x20 ADD PUSH1 0x6 DUP3 ADD DUP1 SLOAD PUSH2 0x39A3 SWAP1 PUSH2 0x4F51 JUMP JUMPDEST DUP1 PUSH1 0x1F ADD PUSH1 0x20 DUP1 SWAP2 DIV MUL PUSH1 0x20 ADD PUSH1 0x40 MLOAD SWAP1 DUP2 ADD PUSH1 0x40 MSTORE DUP1 SWAP3 SWAP2 SWAP1 DUP2 DUP2 MSTORE PUSH1 0x20 ADD DUP3 DUP1 SLOAD PUSH2 0x39CF SWAP1 PUSH2 0x4F51 JUMP JUMPDEST DUP1 ISZERO PUSH2 0x3A1C JUMPI DUP1 PUSH1 0x1F LT PUSH2 0x39F1 JUMPI PUSH2 0x100 DUP1 DUP4 SLOAD DIV MUL DUP4 MSTORE SWAP2 PUSH1 0x20 ADD SWAP2 PUSH2 0x3A1C JUMP JUMPDEST DUP3 ADD SWAP2 SWAP1 PUSH1 0x0 MSTORE PUSH1 0x20 PUSH1 0x0 KECCAK256 SWAP1 JUMPDEST DUP2 SLOAD DUP2 MSTORE SWAP1 PUSH1 0x1 ADD SWAP1 PUSH1 0x20 ADD DUP1 DUP4 GT PUSH2 0x39FF JUMPI DUP3 SWAP1 SUB PUSH1 0x1F AND DUP3 ADD SWAP2 JUMPDEST POP POP POP POP POP DUP2 MSTORE PUSH1 0x20 ADD PUSH1 0x7 DUP3 ADD PUSH1 0x0 SWAP1 SLOAD SWAP1 PUSH2 0x100 EXP SWAP1 DIV PUSH1 0xFF AND PUSH1 0x2 DUP2 GT ISZERO PUSH2 0x3A4A JUMPI PUSH2 0x3A49 PUSH2 0x4AE4 JUMP JUMPDEST JUMPDEST PUSH1 0x2 DUP2 GT ISZERO PUSH2 0x3A5C JUMPI PUSH2 0x3A5B PUSH2 0x4AE4 JUMP JUMPDEST JUMPDEST DUP2 MSTORE PUSH1 0x20 ADD PUSH1 0x8 DUP3 ADD SLOAD DUP2 MSTORE PUSH1 0x20 ADD PUSH1 0x9 DUP3 ADD SLOAD DUP2 MSTORE PUSH1 0x20 ADD PUSH1 0xA DUP3 ADD DUP1 SLOAD PUSH2 0x3A84 SWAP1 PUSH2 0x4F51 JUMP JUMPDEST DUP1 PUSH1 0x1F ADD PUSH1 0x20 DUP1 SWAP2 DIV MUL PUSH1 0x20 ADD PUSH1 0x40 MLOAD SWAP1 DUP2 ADD PUSH1 0x40 MSTORE DUP1 SWAP3 SWAP2 SWAP1 DUP2 DUP2 MSTORE PUSH1 0x20 ADD DUP3 DUP1 SLOAD PUSH2 0x3AB0 SWAP1 PUSH2 0x4F51 JUMP JUMPDEST DUP1 ISZERO PUSH2 0x3AFD JUMPI DUP1 PUSH1 0x1F LT PUSH2 0x3AD2 JUMPI PUSH2 0x100 DUP1 DUP4 SLOAD DIV MUL DUP4 MSTORE SWAP2 PUSH1 0x20 ADD SWAP2 PUSH2 0x3AFD JUMP JUMPDEST DUP3 ADD SWAP2 SWAP1 PUSH1 0x0 MSTORE PUSH1 0x20 PUSH1 0x0 KECCAK256 SWAP1 JUMPDEST DUP2 SLOAD DUP2 MSTORE SWAP1 PUSH1 0x1 ADD SWAP1 PUSH1 0x20 ADD DUP1 DUP4 GT PUSH2 0x3AE0 JUMPI DUP3 SWAP1 SUB PUSH1 0x1F AND DUP3 ADD SWAP2 JUMPDEST POP POP POP POP POP DUP2 MSTORE POP POP SWAP1 POP SWAP2 SWAP1 POP JUMP JUMPDEST DUP2 CALLER PUSH20 0xFFFFFFFFFFFFFFFFFFFFFFFFFFFFFFFFFFFFFFFF AND PUSH1 0x8 PUSH1 0x0 DUP4 DUP2 MSTORE PUSH1 0x20 ADD SWAP1 DUP2 MSTORE PUSH1 0x20 ADD PUSH1 0x0 KECCAK256 PUSH1 0x2 ADD PUSH1 0x0 SWAP1 SLOAD SWAP1 PUSH2 0x100 EXP SWAP1 DIV PUSH20 0xFFFFFFFFFFFFFFFFFFFFFFFFFFFFFFFFFFFFFFFF AND PUSH20 0xFFFFFFFFFFFFFFFFFFFFFFFFFFFFFFFFFFFFFFFF AND EQ PUSH2 0x3BB2 JUMPI PUSH1 0x40 MLOAD PUSH32 0x8C379A000000000000000000000000000000000000000000000000000000000 DUP2 MSTORE PUSH1 0x4 ADD PUSH2 0x3BA9 SWAP1 PUSH2 0x53BD JUMP JUMPDEST PUSH1 0x40 MLOAD DUP1 SWAP2 SUB SWAP1 REVERT JUMPDEST DUP2 PUSH1 0x8 PUSH1 0x0 DUP6 DUP2 MSTORE PUSH1 0x20 ADD SWAP1 DUP2 MSTORE PUSH1 0x20 ADD PUSH1 0x0 KECCAK256 PUSH1 0x2 ADD PUSH1 0x14 PUSH2 0x100 EXP DUP2 SLOAD DUP2 PUSH1 0xFF MUL NOT AND SWAP1 DUP4 ISZERO ISZERO MUL OR SWAP1 SSTORE POP DUP3 PUSH32 0x5E973C889EE216F2A77725AF957B9E59773D22ADC2F5858803C7B794CBA64D57 DUP4 PUSH1 0x40 MLOAD PUSH2 0x3C10 SWAP2 SWAP1 PUSH2 0x4CBC JUMP JUMPDEST PUSH1 0x40 MLOAD DUP1 SWAP2 SUB SWAP1 LOG2 POP POP POP JUMP JUMPDEST PUSH1 0x9 PUSH1 0x20 MSTORE DUP2 PUSH1 0x0 MSTORE PUSH1 0x40 PUSH1 0x0 KECCAK256 DUP2 DUP2 SLOAD DUP2 LT PUSH2 0x3C39 JUMPI PUSH1 0x0 DUP1 REVERT JUMPDEST SWAP1 PUSH1 0x0 MSTORE PUSH1 0x20 PUSH1 0x0 KECCAK256 ADD PUSH1 0x0 SWAP2 POP SWAP2 POP POP SLOAD DUP2 JUMP JUMPDEST DUP2 CALLER PUSH20 0xFFFFFFFFFFFFFFFFFFFFFFFFFFFFFFFFFFFFFFFF AND PUSH1 0x8 PUSH1 0x0 DUP4 DUP2 MSTORE PUSH1 0x20 ADD SWAP1 DUP2 MSTORE PUSH1 0x20 ADD PUSH1 0x0 KECCAK256 PUSH1 0x2 ADD PUSH1 0x0 SWAP1 SLOAD SWAP1 PUSH2 0x100 EXP SWAP1 DIV PUSH20 0xFFFFFFFFFFFFFFFFFFFFFFFFFFFFFFFFFFFFFFFF AND PUSH20 0xFFFFFFFFFFFFFFFFFFFFFFFFFFFFFFFFFFFFFFFF AND EQ PUSH2 0x3CF3 JUMPI PUSH1 0x40 MLOAD PUSH32 0x8C379A000000000000000000000000000000000000000000000000000000000 DUP2 MSTORE PUSH1 0x4 ADD PUSH2 0x3CEA SWAP1 PUSH2 0x53BD JUMP JUMPDEST PUSH1 0x40 MLOAD DUP1 SWAP2 SUB SWAP1 REVERT JUMPDEST DUP2 PUSH1 0x8 PUSH1 0x0 DUP6 DUP2 MSTORE PUSH1 0x20 ADD SWAP1 DUP2 MSTORE PUSH1 0x20 ADD PUSH1 0x0 KECCAK256 PUSH1 0x4 ADD SWAP1 DUP1 MLOAD SWAP1 PUSH1 0x20 ADD SWAP1 PUSH2 0x3D1D SWAP3 SWAP2 SWAP1 PUSH2 0x3DF8 JUMP JUMPDEST POP POP POP POP JUMP JUMPDEST PUSH1 0x2 PUSH1 0x0 SWAP1 SLOAD SWAP1 PUSH2 0x100 EXP SWAP1 DIV PUSH20 0xFFFFFFFFFFFFFFFFFFFFFFFFFFFFFFFFFFFFFFFF AND DUP2 JUMP JUMPDEST PUSH1 0x3 SLOAD DUP2 JUMP JUMPDEST PUSH1 0x1 PUSH1 0x0 SWAP1 SLOAD SWAP1 PUSH2 0x100 EXP SWAP1 DIV PUSH20 0xFFFFFFFFFFFFFFFFFFFFFFFFFFFFFFFFFFFFFFFF AND DUP2 JUMP JUMPDEST PUSH1 0x0 PUSH1 0xD PUSH1 0x0 DUP4 DUP2 MSTORE PUSH1 0x20 ADD SWAP1 DUP2 MSTORE PUSH1 0x20 ADD PUSH1 0x0 KECCAK256 SLOAD SWAP1 POP SWAP2 SWAP1 POP JUMP JUMPDEST PUSH1 0x40 MLOAD DUP1 PUSH2 0x120 ADD PUSH1 0x40 MSTORE DUP1 PUSH1 0x60 DUP2 MSTORE PUSH1 0x20 ADD PUSH1 0x60 DUP2 MSTORE PUSH1 0x20 ADD PUSH1 0x0 PUSH20 0xFFFFFFFFFFFFFFFFFFFFFFFFFFFFFFFFFFFFFFFF AND DUP2 MSTORE PUSH1 0x20 ADD PUSH1 0x0 ISZERO ISZERO DUP2 MSTORE PUSH1 0x20 ADD PUSH1 0x0 ISZERO ISZERO DUP2 MSTORE PUSH1 0x20 ADD PUSH1 0x0 DUP2 MSTORE PUSH1 0x20 ADD PUSH1 0x60 DUP2 MSTORE PUSH1 0x20 ADD PUSH1 0x0 DUP2 MSTORE PUSH1 0x20 ADD PUSH1 0x0 DUP2 MSTORE POP SWAP1 JUMP JUMPDEST DUP3 DUP1 SLOAD DUP3 DUP3 SSTORE SWAP1 PUSH1 0x0 MSTORE PUSH1 0x20 PUSH1 0x0 KECCAK256 SWAP1 DUP2 ADD SWAP3 DUP3 ISZERO PUSH2 0x3E40 JUMPI SWAP2 PUSH1 0x20 MUL DUP3 ADD JUMPDEST DUP3 DUP2 GT ISZERO PUSH2 0x3E3F JUMPI DUP3 MLOAD DUP3 SWAP1 DUP2 PUSH2 0x3E2F SWAP2 SWAP1 PUSH2 0x5268 JUMP JUMPDEST POP SWAP2 PUSH1 0x20 ADD SWAP2 SWAP1 PUSH1 0x1 ADD SWAP1 PUSH2 0x3E18 JUMP JUMPDEST JUMPDEST POP SWAP1 POP PUSH2 0x3E4D SWAP2 SWAP1 PUSH2 0x3EF6 JUMP JUMPDEST POP SWAP1 JUMP JUMPDEST PUSH1 0x40 MLOAD DUP1 PUSH1 0x60 ADD PUSH1 0x40 MSTORE DUP1 PUSH1 0x60 DUP2 MSTORE PUSH1 0x20 ADD PUSH1 0x60 DUP2 MSTORE PUSH1 0x20 ADD PUSH1 0x0 ISZERO ISZERO DUP2 MSTORE POP SWAP1 JUMP JUMPDEST PUSH1 0x40 MLOAD DUP1 PUSH2 0x160 ADD PUSH1 0x40 MSTORE DUP1 PUSH1 0x0 DUP2 MSTORE PUSH1 0x20 ADD PUSH1 0x0 PUSH20 0xFFFFFFFFFFFFFFFFFFFFFFFFFFFFFFFFFFFFFFFF AND DUP2 MSTORE PUSH1 0x20 ADD PUSH1 0x60 DUP2 MSTORE PUSH1 0x20 ADD PUSH1 0x0 DUP2 MSTORE PUSH1 0x20 ADD PUSH1 0x0 DUP2 MSTORE PUSH1 0x20 ADD PUSH1 0x0 DUP2 MSTORE PUSH1 0x20 ADD PUSH1 0x60 DUP2 MSTORE PUSH1 0x20 ADD PUSH1 0x0 PUSH1 0x2 DUP2 GT ISZERO PUSH2 0x3EDB JUMPI PUSH2 0x3EDA PUSH2 0x4AE4 JUMP JUMPDEST JUMPDEST DUP2 MSTORE PUSH1 0x20 ADD PUSH1 0x0 DUP2 MSTORE PUSH1 0x20 ADD PUSH1 0x0 DUP2 MSTORE PUSH1 0x20 ADD PUSH1 0x60 DUP2 MSTORE POP SWAP1 JUMP JUMPDEST JUMPDEST DUP1 DUP3 GT ISZERO PUSH2 0x3F16 JUMPI PUSH1 0x0 DUP2 DUP2 PUSH2 0x3F0D SWAP2 SWAP1 PUSH2 0x3F1A JUMP JUMPDEST POP PUSH1 0x1 ADD PUSH2 0x3EF7 JUMP JUMPDEST POP SWAP1 JUMP JUMPDEST POP DUP1 SLOAD PUSH2 0x3F26 SWAP1 PUSH2 0x4F51 JUMP JUMPDEST PUSH1 0x0 DUP3 SSTORE DUP1 PUSH1 0x1F LT PUSH2 0x3F38 JUMPI POP PUSH2 0x3F57 JUMP JUMPDEST PUSH1 0x1F ADD PUSH1 0x20 SWAP1 DIV SWAP1 PUSH1 0x0 MSTORE PUSH1 0x20 PUSH1 0x0 KECCAK256 SWAP1 DUP2 ADD SWAP1 PUSH2 0x3F56 SWAP2 SWAP1 PUSH2 0x3F5A JUMP JUMPDEST JUMPDEST POP JUMP JUMPDEST JUMPDEST DUP1 DUP3 GT ISZERO PUSH2 0x3F73 JUMPI PUSH1 0x0 DUP2 PUSH1 0x0 SWAP1 SSTORE POP PUSH1 0x1 ADD PUSH2 0x3F5B JUMP JUMPDEST POP SWAP1 JUMP JUMPDEST PUSH1 0x0 DUP2 MLOAD SWAP1 POP SWAP2 SWAP1 POP JUMP JUMPDEST PUSH1 0x0 DUP3 DUP3 MSTORE PUSH1 0x20 DUP3 ADD SWAP1 POP SWAP3 SWAP2 POP POP JUMP JUMPDEST PUSH1 0x0 DUP2 SWAP1 POP PUSH1 0x20 DUP3 ADD SWAP1 POP SWAP2 SWAP1 POP JUMP JUMPDEST PUSH1 0x0 DUP2 SWAP1 POP SWAP2 SWAP1 POP JUMP JUMPDEST PUSH2 0x3FB6 DUP2 PUSH2 0x3FA3 JUMP JUMPDEST DUP3 MSTORE POP POP JUMP JUMPDEST PUSH1 0x0 PUSH2 0x3FC8 DUP4 DUP4 PUSH2 0x3FAD JUMP JUMPDEST PUSH1 0x20 DUP4 ADD SWAP1 POP SWAP3 SWAP2 POP POP JUMP JUMPDEST PUSH1 0x0 PUSH1 0x20 DUP3 ADD SWAP1 POP SWAP2 SWAP1 POP JUMP JUMPDEST PUSH1 0x0 PUSH2 0x3FEC DUP3 PUSH2 0x3F77 JUMP JUMPDEST PUSH2 0x3FF6 DUP2 DUP6 PUSH2 0x3F82 JUMP JUMPDEST SWAP4 POP PUSH2 0x4001 DUP4 PUSH2 0x3F93 JUMP JUMPDEST DUP1 PUSH1 0x0 JUMPDEST DUP4 DUP2 LT ISZERO PUSH2 0x4032 JUMPI DUP2 MLOAD PUSH2 0x4019 DUP9 DUP3 PUSH2 0x3FBC JUMP JUMPDEST SWAP8 POP PUSH2 0x4024 DUP4 PUSH2 0x3FD4 JUMP JUMPDEST SWAP3 POP POP PUSH1 0x1 DUP2 ADD SWAP1 POP PUSH2 0x4005 JUMP JUMPDEST POP DUP6 SWAP4 POP POP POP POP SWAP3 SWAP2 POP POP JUMP JUMPDEST PUSH1 0x0 PUSH1 0x20 DUP3 ADD SWAP1 POP DUP2 DUP2 SUB PUSH1 0x0 DUP4 ADD MSTORE PUSH2 0x4059 DUP2 DUP5 PUSH2 0x3FE1 JUMP JUMPDEST SWAP1 POP SWAP3 SWAP2 POP POP JUMP JUMPDEST PUSH1 0x0 PUSH1 0x40 MLOAD SWAP1 POP SWAP1 JUMP JUMPDEST PUSH1 0x0 DUP1 REVERT JUMPDEST PUSH1 0x0 DUP1 REVERT JUMPDEST PUSH1 0x0 PUSH20 0xFFFFFFFFFFFFFFFFFFFFFFFFFFFFFFFFFFFFFFFF DUP3 AND SWAP1 POP SWAP2 SWAP1 POP JUMP JUMPDEST PUSH1 0x0 PUSH2 0x40A0 DUP3 PUSH2 0x4075 JUMP JUMPDEST SWAP1 POP SWAP2 SWAP1 POP JUMP JUMPDEST PUSH2 0x40B0 DUP2 PUSH2 0x4095 JUMP JUMPDEST DUP2 EQ PUSH2 0x40BB JUMPI PUSH1 0x0 DUP1 REVERT JUMPDEST POP JUMP JUMPDEST PUSH1 0x0 DUP2 CALLDATALOAD SWAP1 POP PUSH2 0x40CD DUP2 PUSH2 0x40A7 JUMP JUMPDEST SWAP3 SWAP2 POP POP JUMP JUMPDEST PUSH1 0x0 PUSH1 0x20 DUP3 DUP5 SUB SLT ISZERO PUSH2 0x40E9 JUMPI PUSH2 0x40E8 PUSH2 0x406B JUMP JUMPDEST JUMPDEST PUSH1 0x0 PUSH2 0x40F7 DUP5 DUP3 DUP6 ADD PUSH2 0x40BE JUMP JUMPDEST SWAP2 POP POP SWAP3 SWAP2 POP POP JUMP JUMPDEST PUSH2 0x4109 DUP2 PUSH2 0x3FA3 JUMP JUMPDEST DUP2 EQ PUSH2 0x4114 JUMPI PUSH1 0x0 DUP1 REVERT JUMPDEST POP JUMP JUMPDEST PUSH1 0x0 DUP2 CALLDATALOAD SWAP1 POP PUSH2 0x4126 DUP2 PUSH2 0x4100 JUMP JUMPDEST SWAP3 SWAP2 POP POP JUMP JUMPDEST PUSH1 0x0 PUSH1 0x20 DUP3 DUP5 SUB SLT ISZERO PUSH2 0x4142 JUMPI PUSH2 0x4141 PUSH2 0x406B JUMP JUMPDEST JUMPDEST PUSH1 0x0 PUSH2 0x4150 DUP5 DUP3 DUP6 ADD PUSH2 0x4117 JUMP JUMPDEST SWAP2 POP POP SWAP3 SWAP2 POP POP JUMP JUMPDEST PUSH1 0x0 DUP2 MLOAD SWAP1 POP SWAP2 SWAP1 POP JUMP JUMPDEST PUSH1 0x0 DUP3 DUP3 MSTORE PUSH1 0x20 DUP3 ADD SWAP1 POP SWAP3 SWAP2 POP POP JUMP JUMPDEST PUSH1 0x0 JUMPDEST DUP4 DUP2 LT ISZERO PUSH2 0x4193 JUMPI DUP1 DUP3 ADD MLOAD DUP2 DUP5 ADD MSTORE PUSH1 0x20 DUP2 ADD SWAP1 POP PUSH2 0x4178 JUMP JUMPDEST PUSH1 0x0 DUP5 DUP5 ADD MSTORE POP POP POP POP JUMP JUMPDEST PUSH1 0x0 PUSH1 0x1F NOT PUSH1 0x1F DUP4 ADD AND SWAP1 POP SWAP2 SWAP1 POP JUMP JUMPDEST PUSH1 0x0 PUSH2 0x41BB DUP3 PUSH2 0x4159 JUMP JUMPDEST PUSH2 0x41C5 DUP2 DUP6 PUSH2 0x4164 JUMP JUMPDEST SWAP4 POP PUSH2 0x41D5 DUP2 DUP6 PUSH1 0x20 DUP7 ADD PUSH2 0x4175 JUMP JUMPDEST PUSH2 0x41DE DUP2 PUSH2 0x419F JUMP JUMPDEST DUP5 ADD SWAP2 POP POP SWAP3 SWAP2 POP POP JUMP JUMPDEST PUSH2 0x41F2 DUP2 PUSH2 0x4095 JUMP JUMPDEST DUP3 MSTORE POP POP JUMP JUMPDEST PUSH1 0x0 DUP2 ISZERO ISZERO SWAP1 POP SWAP2 SWAP1 POP JUMP JUMPDEST PUSH2 0x420D DUP2 PUSH2 0x41F8 JUMP JUMPDEST DUP3 MSTORE POP POP JUMP JUMPDEST PUSH1 0x0 DUP2 MLOAD SWAP1 POP SWAP2 SWAP1 POP JUMP JUMPDEST PUSH1 0x0 DUP3 DUP3 MSTORE PUSH1 0x20 DUP3 ADD SWAP1 POP SWAP3 SWAP2 POP POP JUMP JUMPDEST PUSH1 0x0 DUP2 SWAP1 POP PUSH1 0x20 DUP3 ADD SWAP1 POP SWAP2 SWAP1 POP JUMP JUMPDEST PUSH1 0x0 PUSH2 0x424B DUP4 DUP4 PUSH2 0x41B0 JUMP JUMPDEST SWAP1 POP SWAP3 SWAP2 POP POP JUMP JUMPDEST PUSH1 0x0 PUSH1 0x20 DUP3 ADD SWAP1 POP SWAP2 SWAP1 POP JUMP JUMPDEST PUSH1 0x0 PUSH2 0x426B DUP3 PUSH2 0x4213 JUMP JUMPDEST PUSH2 0x4275 DUP2 DUP6 PUSH2 0x421E JUMP JUMPDEST SWAP4 POP DUP4 PUSH1 0x20 DUP3 MUL DUP6 ADD PUSH2 0x4287 DUP6 PUSH2 0x422F JUMP JUMPDEST DUP1 PUSH1 0x0 JUMPDEST DUP6 DUP2 LT ISZERO PUSH2 0x42C3 JUMPI DUP5 DUP5 SUB DUP10 MSTORE DUP2 MLOAD PUSH2 0x42A4 DUP6 DUP3 PUSH2 0x423F JUMP JUMPDEST SWAP5 POP PUSH2 0x42AF DUP4 PUSH2 0x4253 JUMP JUMPDEST SWAP3 POP PUSH1 0x20 DUP11 ADD SWAP10 POP POP PUSH1 0x1 DUP2 ADD SWAP1 POP PUSH2 0x428B JUMP JUMPDEST POP DUP3 SWAP8 POP DUP8 SWAP6 POP POP POP POP POP POP SWAP3 SWAP2 POP POP JUMP JUMPDEST PUSH1 0x0 PUSH2 0x120 DUP4 ADD PUSH1 0x0 DUP4 ADD MLOAD DUP5 DUP3 SUB PUSH1 0x0 DUP7 ADD MSTORE PUSH2 0x42F3 DUP3 DUP3 PUSH2 0x41B0 JUMP JUMPDEST SWAP2 POP POP PUSH1 0x20 DUP4 ADD MLOAD DUP5 DUP3 SUB PUSH1 0x20 DUP7 ADD MSTORE PUSH2 0x430D DUP3 DUP3 PUSH2 0x41B0 JUMP JUMPDEST SWAP2 POP POP PUSH1 0x40 DUP4 ADD MLOAD PUSH2 0x4322 PUSH1 0x40 DUP7 ADD DUP3 PUSH2 0x41E9 JUMP JUMPDEST POP PUSH1 0x60 DUP4 ADD MLOAD PUSH2 0x4335 PUSH1 0x60 DUP7 ADD DUP3 PUSH2 0x4204 JUMP JUMPDEST POP PUSH1 0x80 DUP4 ADD MLOAD PUSH2 0x4348 PUSH1 0x80 DUP7 ADD DUP3 PUSH2 0x4204 JUMP JUMPDEST POP PUSH1 0xA0 DUP4 ADD MLOAD PUSH2 0x435B PUSH1 0xA0 DUP7 ADD DUP3 PUSH2 0x3FAD JUMP JUMPDEST POP PUSH1 0xC0 DUP4 ADD MLOAD DUP5 DUP3 SUB PUSH1 0xC0 DUP7 ADD MSTORE PUSH2 0x4373 DUP3 DUP3 PUSH2 0x4260 JUMP JUMPDEST SWAP2 POP POP PUSH1 0xE0 DUP4 ADD MLOAD PUSH2 0x4388 PUSH1 0xE0 DUP7 ADD DUP3 PUSH2 0x3FAD JUMP JUMPDEST POP PUSH2 0x100 DUP4 ADD MLOAD PUSH2 0x439D PUSH2 0x100 DUP7 ADD DUP3 PUSH2 0x3FAD JUMP JUMPDEST POP DUP1 SWAP2 POP POP SWAP3 SWAP2 POP POP JUMP JUMPDEST PUSH1 0x0 PUSH1 0x20 DUP3 ADD SWAP1 POP DUP2 DUP2 SUB PUSH1 0x0 DUP4 ADD MSTORE PUSH2 0x43C2 DUP2 DUP5 PUSH2 0x42D5 JUMP JUMPDEST SWAP1 POP SWAP3 SWAP2 POP POP JUMP JUMPDEST PUSH1 0x0 DUP3 DUP3 MSTORE PUSH1 0x20 DUP3 ADD SWAP1 POP SWAP3 SWAP2 POP POP JUMP JUMPDEST PUSH1 0x0 PUSH2 0x43E6 DUP3 PUSH2 0x4159 JUMP JUMPDEST PUSH2 0x43F0 DUP2 DUP6 PUSH2 0x43CA JUMP JUMPDEST SWAP4 POP PUSH2 0x4400 DUP2 DUP6 PUSH1 0x20 DUP7 ADD PUSH2 0x4175 JUMP JUMPDEST PUSH2 0x4409 DUP2 PUSH2 0x419F JUMP JUMPDEST DUP5 ADD SWAP2 POP POP SWAP3 SWAP2 POP POP JUMP JUMPDEST PUSH2 0x441D DUP2 PUSH2 0x4095 JUMP JUMPDEST DUP3 MSTORE POP POP JUMP JUMPDEST PUSH2 0x442C DUP2 PUSH2 0x41F8 JUMP JUMPDEST DUP3 MSTORE POP POP JUMP JUMPDEST PUSH2 0x443B DUP2 PUSH2 0x3FA3 JUMP JUMPDEST DUP3 MSTORE POP POP JUMP JUMPDEST PUSH1 0x0 PUSH2 0x100 DUP3 ADD SWAP1 POP DUP2 DUP2 SUB PUSH1 0x0 DUP4 ADD MSTORE PUSH2 0x445C DUP2 DUP12 PUSH2 0x43DB JUMP JUMPDEST SWAP1 POP DUP2 DUP2 SUB PUSH1 0x20 DUP4 ADD MSTORE PUSH2 0x4470 DUP2 DUP11 PUSH2 0x43DB JUMP JUMPDEST SWAP1 POP PUSH2 0x447F PUSH1 0x40 DUP4 ADD DUP10 PUSH2 0x4414 JUMP JUMPDEST PUSH2 0x448C PUSH1 0x60 DUP4 ADD DUP9 PUSH2 0x4423 JUMP JUMPDEST PUSH2 0x4499 PUSH1 0x80 DUP4 ADD DUP8 PUSH2 0x4423 JUMP JUMPDEST PUSH2 0x44A6 PUSH1 0xA0 DUP4 ADD DUP7 PUSH2 0x4432 JUMP JUMPDEST PUSH2 0x44B3 PUSH1 0xC0 DUP4 ADD DUP6 PUSH2 0x4432 JUMP JUMPDEST PUSH2 0x44C0 PUSH1 0xE0 DUP4 ADD DUP5 PUSH2 0x4432 JUMP JUMPDEST SWAP10 SWAP9 POP POP POP POP POP POP POP POP POP JUMP JUMPDEST PUSH1 0x0 DUP1 REVERT JUMPDEST PUSH1 0x0 DUP1 REVERT JUMPDEST PUSH32 0x4E487B7100000000000000000000000000000000000000000000000000000000 PUSH1 0x0 MSTORE PUSH1 0x41 PUSH1 0x4 MSTORE PUSH1 0x24 PUSH1 0x0 REVERT JUMPDEST PUSH2 0x450F DUP3 PUSH2 0x419F JUMP JUMPDEST DUP2 ADD DUP2 DUP2 LT PUSH8 0xFFFFFFFFFFFFFFFF DUP3 GT OR ISZERO PUSH2 0x452E JUMPI PUSH2 0x452D PUSH2 0x44D7 JUMP JUMPDEST JUMPDEST DUP1 PUSH1 0x40 MSTORE POP POP POP JUMP JUMPDEST PUSH1 0x0 PUSH2 0x4541 PUSH2 0x4061 JUMP JUMPDEST SWAP1 POP PUSH2 0x454D DUP3 DUP3 PUSH2 0x4506 JUMP JUMPDEST SWAP2 SWAP1 POP JUMP JUMPDEST PUSH1 0x0 PUSH8 0xFFFFFFFFFFFFFFFF DUP3 GT ISZERO PUSH2 0x456D JUMPI PUSH2 0x456C PUSH2 0x44D7 JUMP JUMPDEST JUMPDEST PUSH2 0x4576 DUP3 PUSH2 0x419F JUMP JUMPDEST SWAP1 POP PUSH1 0x20 DUP2 ADD SWAP1 POP SWAP2 SWAP1 POP JUMP JUMPDEST DUP3 DUP2 DUP4 CALLDATACOPY PUSH1 0x0 DUP4 DUP4 ADD MSTORE POP POP POP JUMP JUMPDEST PUSH1 0x0 PUSH2 0x45A5 PUSH2 0x45A0 DUP5 PUSH2 0x4552 JUMP JUMPDEST PUSH2 0x4537 JUMP JUMPDEST SWAP1 POP DUP3 DUP2 MSTORE PUSH1 0x20 DUP2 ADD DUP5 DUP5 DUP5 ADD GT ISZERO PUSH2 0x45C1 JUMPI PUSH2 0x45C0 PUSH2 0x44D2 JUMP JUMPDEST JUMPDEST PUSH2 0x45CC DUP5 DUP3 DUP6 PUSH2 0x4583 JUMP JUMPDEST POP SWAP4 SWAP3 POP POP POP JUMP JUMPDEST PUSH1 0x0 DUP3 PUSH1 0x1F DUP4 ADD SLT PUSH2 0x45E9 JUMPI PUSH2 0x45E8 PUSH2 0x44CD JUMP JUMPDEST JUMPDEST DUP2 CALLDATALOAD PUSH2 0x45F9 DUP5 DUP3 PUSH1 0x20 DUP7 ADD PUSH2 0x4592 JUMP JUMPDEST SWAP2 POP POP SWAP3 SWAP2 POP POP JUMP JUMPDEST PUSH1 0x0 DUP1 PUSH1 0x40 DUP4 DUP6 SUB SLT ISZERO PUSH2 0x4619 JUMPI PUSH2 0x4618 PUSH2 0x406B JUMP JUMPDEST JUMPDEST PUSH1 0x0 DUP4 ADD CALLDATALOAD PUSH8 0xFFFFFFFFFFFFFFFF DUP2 GT ISZERO PUSH2 0x4637 JUMPI PUSH2 0x4636 PUSH2 0x4070 JUMP JUMPDEST JUMPDEST PUSH2 0x4643 DUP6 DUP3 DUP7 ADD PUSH2 0x45D4 JUMP JUMPDEST SWAP3 POP POP PUSH1 0x20 DUP4 ADD CALLDATALOAD PUSH8 0xFFFFFFFFFFFFFFFF DUP2 GT ISZERO PUSH2 0x4664 JUMPI PUSH2 0x4663 PUSH2 0x4070 JUMP JUMPDEST JUMPDEST PUSH2 0x4670 DUP6 DUP3 DUP7 ADD PUSH2 0x45D4 JUMP JUMPDEST SWAP2 POP POP SWAP3 POP SWAP3 SWAP1 POP JUMP JUMPDEST PUSH1 0x0 DUP1 PUSH1 0x40 DUP4 DUP6 SUB SLT ISZERO PUSH2 0x4691 JUMPI PUSH2 0x4690 PUSH2 0x406B JUMP JUMPDEST JUMPDEST PUSH1 0x0 PUSH2 0x469F DUP6 DUP3 DUP7 ADD PUSH2 0x4117 JUMP JUMPDEST SWAP3 POP POP PUSH1 0x20 PUSH2 0x46B0 DUP6 DUP3 DUP7 ADD PUSH2 0x4117 JUMP JUMPDEST SWAP2 POP POP SWAP3 POP SWAP3 SWAP1 POP JUMP JUMPDEST PUSH1 0x0 DUP1 PUSH1 0x0 DUP1 PUSH1 0x0 PUSH1 0xA0 DUP7 DUP9 SUB SLT ISZERO PUSH2 0x46D6 JUMPI PUSH2 0x46D5 PUSH2 0x406B JUMP JUMPDEST JUMPDEST PUSH1 0x0 PUSH2 0x46E4 DUP9 DUP3 DUP10 ADD PUSH2 0x4117 JUMP JUMPDEST SWAP6 POP POP PUSH1 0x20 DUP7 ADD CALLDATALOAD PUSH8 0xFFFFFFFFFFFFFFFF DUP2 GT ISZERO PUSH2 0x4705 JUMPI PUSH2 0x4704 PUSH2 0x4070 JUMP JUMPDEST JUMPDEST PUSH2 0x4711 DUP9 DUP3 DUP10 ADD PUSH2 0x45D4 JUMP JUMPDEST SWAP5 POP POP PUSH1 0x40 PUSH2 0x4722 DUP9 DUP3 DUP10 ADD PUSH2 0x4117 JUMP JUMPDEST SWAP4 POP POP PUSH1 0x60 DUP7 ADD CALLDATALOAD PUSH8 0xFFFFFFFFFFFFFFFF DUP2 GT ISZERO PUSH2 0x4743 JUMPI PUSH2 0x4742 PUSH2 0x4070 JUMP JUMPDEST JUMPDEST PUSH2 0x474F DUP9 DUP3 DUP10 ADD PUSH2 0x45D4 JUMP JUMPDEST SWAP3 POP POP PUSH1 0x80 DUP7 ADD CALLDATALOAD PUSH8 0xFFFFFFFFFFFFFFFF DUP2 GT ISZERO PUSH2 0x4770 JUMPI PUSH2 0x476F PUSH2 0x4070 JUMP JUMPDEST JUMPDEST PUSH2 0x477C DUP9 DUP3 DUP10 ADD PUSH2 0x45D4 JUMP JUMPDEST SWAP2 POP POP SWAP3 SWAP6 POP SWAP3 SWAP6 SWAP1 SWAP4 POP JUMP JUMPDEST PUSH1 0x0 PUSH1 0x20 DUP3 ADD SWAP1 POP PUSH2 0x479E PUSH1 0x0 DUP4 ADD DUP5 PUSH2 0x4432 JUMP JUMPDEST SWAP3 SWAP2 POP POP JUMP JUMPDEST PUSH2 0x47AD DUP2 PUSH2 0x41F8 JUMP JUMPDEST DUP2 EQ PUSH2 0x47B8 JUMPI PUSH1 0x0 DUP1 REVERT JUMPDEST POP JUMP JUMPDEST PUSH1 0x0 DUP2 CALLDATALOAD SWAP1 POP PUSH2 0x47CA DUP2 PUSH2 0x47A4 JUMP JUMPDEST SWAP3 SWAP2 POP POP JUMP JUMPDEST PUSH1 0x0 DUP1 PUSH1 0x40 DUP4 DUP6 SUB SLT ISZERO PUSH2 0x47E7 JUMPI PUSH2 0x47E6 PUSH2 0x406B JUMP JUMPDEST JUMPDEST PUSH1 0x0 PUSH2 0x47F5 DUP6 DUP3 DUP7 ADD PUSH2 0x4117 JUMP JUMPDEST SWAP3 POP POP PUSH1 0x20 PUSH2 0x4806 DUP6 DUP3 DUP7 ADD PUSH2 0x47BB JUMP JUMPDEST SWAP2 POP POP SWAP3 POP SWAP3 SWAP1 POP JUMP JUMPDEST PUSH1 0x0 DUP2 SWAP1 POP SWAP2 SWAP1 POP JUMP JUMPDEST PUSH1 0x0 PUSH2 0x4835 PUSH2 0x4830 PUSH2 0x482B DUP5 PUSH2 0x4075 JUMP JUMPDEST PUSH2 0x4810 JUMP JUMPDEST PUSH2 0x4075 JUMP JUMPDEST SWAP1 POP SWAP2 SWAP1 POP JUMP JUMPDEST PUSH1 0x0 PUSH2 0x4847 DUP3 PUSH2 0x481A JUMP JUMPDEST SWAP1 POP SWAP2 SWAP1 POP JUMP JUMPDEST PUSH1 0x0 PUSH2 0x4859 DUP3 PUSH2 0x483C JUMP JUMPDEST SWAP1 POP SWAP2 SWAP1 POP JUMP JUMPDEST PUSH2 0x4869 DUP2 PUSH2 0x484E JUMP JUMPDEST DUP3 MSTORE POP POP JUMP JUMPDEST PUSH1 0x0 PUSH1 0x20 DUP3 ADD SWAP1 POP PUSH2 0x4884 PUSH1 0x0 DUP4 ADD DUP5 PUSH2 0x4860 JUMP JUMPDEST SWAP3 SWAP2 POP POP JUMP JUMPDEST PUSH1 0x0 DUP1 PUSH1 0x40 DUP4 DUP6 SUB SLT ISZERO PUSH2 0x48A1 JUMPI PUSH2 0x48A0 PUSH2 0x406B JUMP JUMPDEST JUMPDEST PUSH1 0x0 PUSH2 0x48AF DUP6 DUP3 DUP7 ADD PUSH2 0x40BE JUMP JUMPDEST SWAP3 POP POP PUSH1 0x20 PUSH2 0x48C0 DUP6 DUP3 DUP7 ADD PUSH2 0x4117 JUMP JUMPDEST SWAP2 POP POP SWAP3 POP SWAP3 SWAP1 POP JUMP JUMPDEST PUSH1 0x0 PUSH8 0xFFFFFFFFFFFFFFFF DUP3 GT ISZERO PUSH2 0x48E5 JUMPI PUSH2 0x48E4 PUSH2 0x44D7 JUMP JUMPDEST JUMPDEST PUSH1 0x20 DUP3 MUL SWAP1 POP PUSH1 0x20 DUP2 ADD SWAP1 POP SWAP2 SWAP1 POP JUMP JUMPDEST PUSH1 0x0 DUP1 REVERT JUMPDEST PUSH1 0x0 PUSH2 0x490E PUSH2 0x4909 DUP5 PUSH2 0x48CA JUMP JUMPDEST PUSH2 0x4537 JUMP JUMPDEST SWAP1 POP DUP1 DUP4 DUP3 MSTORE PUSH1 0x20 DUP3 ADD SWAP1 POP PUSH1 0x20 DUP5 MUL DUP4 ADD DUP6 DUP2 GT ISZERO PUSH2 0x4931 JUMPI PUSH2 0x4930 PUSH2 0x48F6 JUMP JUMPDEST JUMPDEST DUP4 JUMPDEST DUP2 DUP2 LT ISZERO PUSH2 0x4978 JUMPI DUP1 CALLDATALOAD PUSH8 0xFFFFFFFFFFFFFFFF DUP2 GT ISZERO PUSH2 0x4956 JUMPI PUSH2 0x4955 PUSH2 0x44CD JUMP JUMPDEST JUMPDEST DUP1 DUP7 ADD PUSH2 0x4963 DUP10 DUP3 PUSH2 0x45D4 JUMP JUMPDEST DUP6 MSTORE PUSH1 0x20 DUP6 ADD SWAP5 POP POP POP PUSH1 0x20 DUP2 ADD SWAP1 POP PUSH2 0x4933 JUMP JUMPDEST POP POP POP SWAP4 SWAP3 POP POP POP JUMP JUMPDEST PUSH1 0x0 DUP3 PUSH1 0x1F DUP4 ADD SLT PUSH2 0x4997 JUMPI PUSH2 0x4996 PUSH2 0x44CD JUMP JUMPDEST JUMPDEST DUP2 CALLDATALOAD PUSH2 0x49A7 DUP5 DUP3 PUSH1 0x20 DUP7 ADD PUSH2 0x48FB JUMP JUMPDEST SWAP2 POP POP SWAP3 SWAP2 POP POP JUMP JUMPDEST PUSH1 0x0 DUP1 PUSH1 0x0 DUP1 PUSH1 0x80 DUP6 DUP8 SUB SLT ISZERO PUSH2 0x49CA JUMPI PUSH2 0x49C9 PUSH2 0x406B JUMP JUMPDEST JUMPDEST PUSH1 0x0 DUP6 ADD CALLDATALOAD PUSH8 0xFFFFFFFFFFFFFFFF DUP2 GT ISZERO PUSH2 0x49E8 JUMPI PUSH2 0x49E7 PUSH2 0x4070 JUMP JUMPDEST JUMPDEST PUSH2 0x49F4 DUP8 DUP3 DUP9 ADD PUSH2 0x45D4 JUMP JUMPDEST SWAP5 POP POP PUSH1 0x20 DUP6 ADD CALLDATALOAD PUSH8 0xFFFFFFFFFFFFFFFF DUP2 GT ISZERO PUSH2 0x4A15 JUMPI PUSH2 0x4A14 PUSH2 0x4070 JUMP JUMPDEST JUMPDEST PUSH2 0x4A21 DUP8 DUP3 DUP9 ADD PUSH2 0x45D4 JUMP JUMPDEST SWAP4 POP POP PUSH1 0x40 PUSH2 0x4A32 DUP8 DUP3 DUP9 ADD PUSH2 0x4117 JUMP JUMPDEST SWAP3 POP POP PUSH1 0x60 DUP6 ADD CALLDATALOAD PUSH8 0xFFFFFFFFFFFFFFFF DUP2 GT ISZERO PUSH2 0x4A53 JUMPI PUSH2 0x4A52 PUSH2 0x4070 JUMP JUMPDEST JUMPDEST PUSH2 0x4A5F DUP8 DUP3 DUP9 ADD PUSH2 0x4982 JUMP JUMPDEST SWAP2 POP POP SWAP3 SWAP6 SWAP2 SWAP5 POP SWAP3 POP JUMP JUMPDEST PUSH1 0x0 PUSH1 0x60 DUP4 ADD PUSH1 0x0 DUP4 ADD MLOAD DUP5 DUP3 SUB PUSH1 0x0 DUP7 ADD MSTORE PUSH2 0x4A88 DUP3 DUP3 PUSH2 0x41B0 JUMP JUMPDEST SWAP2 POP POP PUSH1 0x20 DUP4 ADD MLOAD DUP5 DUP3 SUB PUSH1 0x20 DUP7 ADD MSTORE PUSH2 0x4AA2 DUP3 DUP3 PUSH2 0x41B0 JUMP JUMPDEST SWAP2 POP POP PUSH1 0x40 DUP4 ADD MLOAD PUSH2 0x4AB7 PUSH1 0x40 DUP7 ADD DUP3 PUSH2 0x4204 JUMP JUMPDEST POP DUP1 SWAP2 POP POP SWAP3 SWAP2 POP POP JUMP JUMPDEST PUSH1 0x0 PUSH1 0x20 DUP3 ADD SWAP1 POP DUP2 DUP2 SUB PUSH1 0x0 DUP4 ADD MSTORE PUSH2 0x4ADC DUP2 DUP5 PUSH2 0x4A6B JUMP JUMPDEST SWAP1 POP SWAP3 SWAP2 POP POP JUMP JUMPDEST PUSH32 0x4E487B7100000000000000000000000000000000000000000000000000000000 PUSH1 0x0 MSTORE PUSH1 0x21 PUSH1 0x4 MSTORE PUSH1 0x24 PUSH1 0x0 REVERT JUMPDEST PUSH1 0x3 DUP2 LT PUSH2 0x4B24 JUMPI PUSH2 0x4B23 PUSH2 0x4AE4 JUMP JUMPDEST JUMPDEST POP JUMP JUMPDEST PUSH1 0x0 DUP2 SWAP1 POP PUSH2 0x4B35 DUP3 PUSH2 0x4B13 JUMP JUMPDEST SWAP2 SWAP1 POP JUMP JUMPDEST PUSH1 0x0 PUSH2 0x4B45 DUP3 PUSH2 0x4B27 JUMP JUMPDEST SWAP1 POP SWAP2 SWAP1 POP JUMP JUMPDEST PUSH2 0x4B55 DUP2 PUSH2 0x4B3A JUMP JUMPDEST DUP3 MSTORE POP POP JUMP JUMPDEST PUSH1 0x0 PUSH2 0x160 DUP3 ADD SWAP1 POP PUSH2 0x4B71 PUSH1 0x0 DUP4 ADD DUP15 PUSH2 0x4432 JUMP JUMPDEST PUSH2 0x4B7E PUSH1 0x20 DUP4 ADD DUP14 PUSH2 0x4414 JUMP JUMPDEST DUP2 DUP2 SUB PUSH1 0x40 DUP4 ADD MSTORE PUSH2 0x4B90 DUP2 DUP13 PUSH2 0x43DB JUMP JUMPDEST SWAP1 POP PUSH2 0x4B9F PUSH1 0x60 DUP4 ADD DUP12 PUSH2 0x4432 JUMP JUMPDEST PUSH2 0x4BAC PUSH1 0x80 DUP4 ADD DUP11 PUSH2 0x4432 JUMP JUMPDEST PUSH2 0x4BB9 PUSH1 0xA0 DUP4 ADD DUP10 PUSH2 0x4432 JUMP JUMPDEST DUP2 DUP2 SUB PUSH1 0xC0 DUP4 ADD MSTORE PUSH2 0x4BCB DUP2 DUP9 PUSH2 0x43DB JUMP JUMPDEST SWAP1 POP PUSH2 0x4BDA PUSH1 0xE0 DUP4 ADD DUP8 PUSH2 0x4B4C JUMP JUMPDEST PUSH2 0x4BE8 PUSH2 0x100 DUP4 ADD DUP7 PUSH2 0x4432 JUMP JUMPDEST PUSH2 0x4BF6 PUSH2 0x120 DUP4 ADD DUP6 PUSH2 0x4432 JUMP JUMPDEST DUP2 DUP2 SUB PUSH2 0x140 DUP4 ADD MSTORE PUSH2 0x4C09 DUP2 DUP5 PUSH2 0x43DB JUMP JUMPDEST SWAP1 POP SWAP13 SWAP12 POP POP POP POP POP POP POP POP POP POP POP POP JUMP JUMPDEST PUSH1 0x0 PUSH1 0x60 DUP3 ADD SWAP1 POP DUP2 DUP2 SUB PUSH1 0x0 DUP4 ADD MSTORE PUSH2 0x4C35 DUP2 DUP7 PUSH2 0x43DB JUMP JUMPDEST SWAP1 POP DUP2 DUP2 SUB PUSH1 0x20 DUP4 ADD MSTORE PUSH2 0x4C49 DUP2 DUP6 PUSH2 0x43DB JUMP JUMPDEST SWAP1 POP PUSH2 0x4C58 PUSH1 0x40 DUP4 ADD DUP5 PUSH2 0x4423 JUMP JUMPDEST SWAP5 SWAP4 POP POP POP POP JUMP JUMPDEST PUSH1 0x0 DUP1 PUSH1 0x40 DUP4 DUP6 SUB SLT ISZERO PUSH2 0x4C77 JUMPI PUSH2 0x4C76 PUSH2 0x406B JUMP JUMPDEST JUMPDEST PUSH1 0x0 PUSH2 0x4C85 DUP6 DUP3 DUP7 ADD PUSH2 0x4117 JUMP JUMPDEST SWAP3 POP POP PUSH1 0x20 DUP4 ADD CALLDATALOAD PUSH8 0xFFFFFFFFFFFFFFFF DUP2 GT ISZERO PUSH2 0x4CA6 JUMPI PUSH2 0x4CA5 PUSH2 0x4070 JUMP JUMPDEST JUMPDEST PUSH2 0x4CB2 DUP6 DUP3 DUP7 ADD PUSH2 0x45D4 JUMP JUMPDEST SWAP2 POP POP SWAP3 POP SWAP3 SWAP1 POP JUMP JUMPDEST PUSH1 0x0 PUSH1 0x20 DUP3 ADD SWAP1 POP PUSH2 0x4CD1 PUSH1 0x0 DUP4 ADD DUP5 PUSH2 0x4423 JUMP JUMPDEST SWAP3 SWAP2 POP POP JUMP JUMPDEST PUSH2 0x4CE0 DUP2 PUSH2 0x4B3A JUMP JUMPDEST DUP3 MSTORE POP POP JUMP JUMPDEST PUSH1 0x0 PUSH2 0x160 DUP4 ADD PUSH1 0x0 DUP4 ADD MLOAD PUSH2 0x4CFF PUSH1 0x0 DUP7 ADD DUP3 PUSH2 0x3FAD JUMP JUMPDEST POP PUSH1 0x20 DUP4 ADD MLOAD PUSH2 0x4D12 PUSH1 0x20 DUP7 ADD DUP3 PUSH2 0x41E9 JUMP JUMPDEST POP PUSH1 0x40 DUP4 ADD MLOAD DUP5 DUP3 SUB PUSH1 0x40 DUP7 ADD MSTORE PUSH2 0x4D2A DUP3 DUP3 PUSH2 0x41B0 JUMP JUMPDEST SWAP2 POP POP PUSH1 0x60 DUP4 ADD MLOAD PUSH2 0x4D3F PUSH1 0x60 DUP7 ADD DUP3 PUSH2 0x3FAD JUMP JUMPDEST POP PUSH1 0x80 DUP4 ADD MLOAD PUSH2 0x4D52 PUSH1 0x80 DUP7 ADD DUP3 PUSH2 0x3FAD JUMP JUMPDEST POP PUSH1 0xA0 DUP4 ADD MLOAD PUSH2 0x4D65 PUSH1 0xA0 DUP7 ADD DUP3 PUSH2 0x3FAD JUMP JUMPDEST POP PUSH1 0xC0 DUP4 ADD MLOAD DUP5 DUP3 SUB PUSH1 0xC0 DUP7 ADD MSTORE PUSH2 0x4D7D DUP3 DUP3 PUSH2 0x41B0 JUMP JUMPDEST SWAP2 POP POP PUSH1 0xE0 DUP4 ADD MLOAD PUSH2 0x4D92 PUSH1 0xE0 DUP7 ADD DUP3 PUSH2 0x4CD7 JUMP JUMPDEST POP PUSH2 0x100 DUP4 ADD MLOAD PUSH2 0x4DA7 PUSH2 0x100 DUP7 ADD DUP3 PUSH2 0x3FAD JUMP JUMPDEST POP PUSH2 0x120 DUP4 ADD MLOAD PUSH2 0x4DBC PUSH2 0x120 DUP7 ADD DUP3 PUSH2 0x3FAD JUMP JUMPDEST POP PUSH2 0x140 DUP4 ADD MLOAD DUP5 DUP3 SUB PUSH2 0x140 DUP7 ADD MSTORE PUSH2 0x4DD6 DUP3 DUP3 PUSH2 0x41B0 JUMP JUMPDEST SWAP2 POP POP DUP1 SWAP2 POP POP SWAP3 SWAP2 POP POP JUMP JUMPDEST PUSH1 0x0 PUSH1 0x20 DUP3 ADD SWAP1 POP DUP2 DUP2 SUB PUSH1 0x0 DUP4 ADD MSTORE PUSH2 0x4DFD DUP2 DUP5 PUSH2 0x4CE6 JUMP JUMPDEST SWAP1 POP SWAP3 SWAP2 POP POP JUMP JUMPDEST PUSH1 0x0 DUP1 PUSH1 0x40 DUP4 DUP6 SUB SLT ISZERO PUSH2 0x4E1C JUMPI PUSH2 0x4E1B PUSH2 0x406B JUMP JUMPDEST JUMPDEST PUSH1 0x0 PUSH2 0x4E2A DUP6 DUP3 DUP7 ADD PUSH2 0x4117 JUMP JUMPDEST SWAP3 POP POP PUSH1 0x20 DUP4 ADD CALLDATALOAD PUSH8 0xFFFFFFFFFFFFFFFF DUP2 GT ISZERO PUSH2 0x4E4B JUMPI PUSH2 0x4E4A PUSH2 0x4070 JUMP JUMPDEST JUMPDEST PUSH2 0x4E57 DUP6 DUP3 DUP7 ADD PUSH2 0x4982 JUMP JUMPDEST SWAP2 POP POP SWAP3 POP SWAP3 SWAP1 POP JUMP JUMPDEST PUSH1 0x0 PUSH1 0x20 DUP3 ADD SWAP1 POP PUSH2 0x4E76 PUSH1 0x0 DUP4 ADD DUP5 PUSH2 0x4414 JUMP JUMPDEST SWAP3 SWAP2 POP POP JUMP JUMPDEST PUSH32 0x4E487B7100000000000000000000000000000000000000000000000000000000 PUSH1 0x0 MSTORE PUSH1 0x32 PUSH1 0x4 MSTORE PUSH1 0x24 PUSH1 0x0 REVERT JUMPDEST PUSH32 0x4E487B7100000000000000000000000000000000000000000000000000000000 PUSH1 0x0 MSTORE PUSH1 0x11 PUSH1 0x4 MSTORE PUSH1 0x24 PUSH1 0x0 REVERT JUMPDEST PUSH1 0x0 PUSH2 0x4EE5 DUP3 PUSH2 0x3FA3 JUMP JUMPDEST SWAP2 POP PUSH32 0xFFFFFFFFFFFFFFFFFFFFFFFFFFFFFFFFFFFFFFFFFFFFFFFFFFFFFFFFFFFFFFFF DUP3 SUB PUSH2 0x4F17 JUMPI PUSH2 0x4F16 PUSH2 0x4EAB JUMP JUMPDEST JUMPDEST PUSH1 0x1 DUP3 ADD SWAP1 POP SWAP2 SWAP1 POP JUMP JUMPDEST PUSH32 0x4E487B7100000000000000000000000000000000000000000000000000000000 PUSH1 0x0 MSTORE PUSH1 0x22 PUSH1 0x4 MSTORE PUSH1 0x24 PUSH1 0x0 REVERT JUMPDEST PUSH1 0x0 PUSH1 0x2 DUP3 DIV SWAP1 POP PUSH1 0x1 DUP3 AND DUP1 PUSH2 0x4F69 JUMPI PUSH1 0x7F DUP3 AND SWAP2 POP JUMPDEST PUSH1 0x20 DUP3 LT DUP2 SUB PUSH2 0x4F7C JUMPI PUSH2 0x4F7B PUSH2 0x4F22 JUMP JUMPDEST JUMPDEST POP SWAP2 SWAP1 POP JUMP JUMPDEST PUSH32 0x4F6E6C792061646D696E00000000000000000000000000000000000000000000 PUSH1 0x0 DUP3 ADD MSTORE POP JUMP JUMPDEST PUSH1 0x0 PUSH2 0x4FB8 PUSH1 0xA DUP4 PUSH2 0x43CA JUMP JUMPDEST SWAP2 POP PUSH2 0x4FC3 DUP3 PUSH2 0x4F82 JUMP JUMPDEST PUSH1 0x20 DUP3 ADD SWAP1 POP SWAP2 SWAP1 POP JUMP JUMPDEST PUSH1 0x0 PUSH1 0x20 DUP3 ADD SWAP1 POP DUP2 DUP2 SUB PUSH1 0x0 DUP4 ADD MSTORE PUSH2 0x4FE7 DUP2 PUSH2 0x4FAB JUMP JUMPDEST SWAP1 POP SWAP2 SWAP1 POP JUMP JUMPDEST PUSH32 0x416C726561647920726567697374657265640000000000000000000000000000 PUSH1 0x0 DUP3 ADD MSTORE POP JUMP JUMPDEST PUSH1 0x0 PUSH2 0x5024 PUSH1 0x12 DUP4 PUSH2 0x43CA JUMP JUMPDEST SWAP2 POP PUSH2 0x502F DUP3 PUSH2 0x4FEE JUMP JUMPDEST PUSH1 0x20 DUP3 ADD SWAP1 POP SWAP2 SWAP1 POP JUMP JUMPDEST PUSH1 0x0 PUSH1 0x20 DUP3 ADD SWAP1 POP DUP2 DUP2 SUB PUSH1 0x0 DUP4 ADD MSTORE PUSH2 0x5053 DUP2 PUSH2 0x5017 JUMP JUMPDEST SWAP1 POP SWAP2 SWAP1 POP JUMP JUMPDEST PUSH32 0x557365726E616D652063616E6E6F7420626520656D7074790000000000000000 PUSH1 0x0 DUP3 ADD MSTORE POP JUMP JUMPDEST PUSH1 0x0 PUSH2 0x5090 PUSH1 0x18 DUP4 PUSH2 0x43CA JUMP JUMPDEST SWAP2 POP PUSH2 0x509B DUP3 PUSH2 0x505A JUMP JUMPDEST PUSH1 0x20 DUP3 ADD SWAP1 POP SWAP2 SWAP1 POP JUMP JUMPDEST PUSH1 0x0 PUSH1 0x20 DUP3 ADD SWAP1 POP DUP2 DUP2 SUB PUSH1 0x0 DUP4 ADD MSTORE PUSH2 0x50BF DUP2 PUSH2 0x5083 JUMP JUMPDEST SWAP1 POP SWAP2 SWAP1 POP JUMP JUMPDEST PUSH1 0x0 DUP2 SWAP1 POP DUP2 PUSH1 0x0 MSTORE PUSH1 0x20 PUSH1 0x0 KECCAK256 SWAP1 POP SWAP2 SWAP1 POP JUMP JUMPDEST PUSH1 0x0 PUSH1 0x20 PUSH1 0x1F DUP4 ADD DIV SWAP1 POP SWAP2 SWAP1 POP JUMP JUMPDEST PUSH1 0x0 DUP3 DUP3 SHL SWAP1 POP SWAP3 SWAP2 POP POP JUMP JUMPDEST PUSH1 0x0 PUSH1 0x8 DUP4 MUL PUSH2 0x5128 PUSH32 0xFFFFFFFFFFFFFFFFFFFFFFFFFFFFFFFFFFFFFFFFFFFFFFFFFFFFFFFFFFFFFFFF DUP3 PUSH2 0x50EB JUMP JUMPDEST PUSH2 0x5132 DUP7 DUP4 PUSH2 0x50EB JUMP JUMPDEST SWAP6 POP DUP1 NOT DUP5 AND SWAP4 POP DUP1 DUP7 AND DUP5 OR SWAP3 POP POP POP SWAP4 SWAP3 POP POP POP JUMP JUMPDEST PUSH1 0x0 PUSH2 0x5165 PUSH2 0x5160 PUSH2 0x515B DUP5 PUSH2 0x3FA3 JUMP JUMPDEST PUSH2 0x4810 JUMP JUMPDEST PUSH2 0x3FA3 JUMP JUMPDEST SWAP1 POP SWAP2 SWAP1 POP JUMP JUMPDEST PUSH1 0x0 DUP2 SWAP1 POP SWAP2 SWAP1 POP JUMP JUMPDEST PUSH2 0x517F DUP4 PUSH2 0x514A JUMP JUMPDEST PUSH2 0x5193 PUSH2 0x518B DUP3 PUSH2 0x516C JUMP JUMPDEST DUP5 DUP5 SLOAD PUSH2 0x50F8 JUMP JUMPDEST DUP3 SSTORE POP POP POP POP JUMP JUMPDEST PUSH1 0x0 SWAP1 JUMP JUMPDEST PUSH2 0x51A8 PUSH2 0x519B JUMP JUMPDEST PUSH2 0x51B3 DUP2 DUP5 DUP5 PUSH2 0x5176 JUMP JUMPDEST POP POP POP JUMP JUMPDEST JUMPDEST DUP2 DUP2 LT ISZERO PUSH2 0x51D7 JUMPI PUSH2 0x51CC PUSH1 0x0 DUP3 PUSH2 0x51A0 JUMP JUMPDEST PUSH1 0x1 DUP2 ADD SWAP1 POP PUSH2 0x51B9 JUMP JUMPDEST POP POP JUMP JUMPDEST PUSH1 0x1F DUP3 GT ISZERO PUSH2 0x521C JUMPI PUSH2 0x51ED DUP2 PUSH2 0x50C6 JUMP JUMPDEST PUSH2 0x51F6 DUP5 PUSH2 0x50DB JUMP JUMPDEST DUP2 ADD PUSH1 0x20 DUP6 LT ISZERO PUSH2 0x5205 JUMPI DUP2 SWAP1 POP JUMPDEST PUSH2 0x5219 PUSH2 0x5211 DUP6 PUSH2 0x50DB JUMP JUMPDEST DUP4 ADD DUP3 PUSH2 0x51B8 JUMP JUMPDEST POP POP JUMPDEST POP POP POP JUMP JUMPDEST PUSH1 0x0 DUP3 DUP3 SHR SWAP1 POP SWAP3 SWAP2 POP POP JUMP JUMPDEST PUSH1 0x0 PUSH2 0x523F PUSH1 0x0 NOT DUP5 PUSH1 0x8 MUL PUSH2 0x5221 JUMP JUMPDEST NOT DUP1 DUP4 AND SWAP2 POP POP SWAP3 SWAP2 POP POP JUMP JUMPDEST PUSH1 0x0 PUSH2 0x5258 DUP4 DUP4 PUSH2 0x522E JUMP JUMPDEST SWAP2 POP DUP3 PUSH1 0x2 MUL DUP3 OR SWAP1 POP SWAP3 SWAP2 POP POP JUMP JUMPDEST PUSH2 0x5271 DUP3 PUSH2 0x4159 JUMP JUMPDEST PUSH8 0xFFFFFFFFFFFFFFFF DUP2 GT ISZERO PUSH2 0x528A JUMPI PUSH2 0x5289 PUSH2 0x44D7 JUMP JUMPDEST JUMPDEST PUSH2 0x5294 DUP3 SLOAD PUSH2 0x4F51 JUMP JUMPDEST PUSH2 0x529F DUP3 DUP3 DUP6 PUSH2 0x51DB JUMP JUMPDEST PUSH1 0x0 PUSH1 0x20 SWAP1 POP PUSH1 0x1F DUP4 GT PUSH1 0x1 DUP2 EQ PUSH2 0x52D2 JUMPI PUSH1 0x0 DUP5 ISZERO PUSH2 0x52C0 JUMPI DUP3 DUP8 ADD MLOAD SWAP1 POP JUMPDEST PUSH2 0x52CA DUP6 DUP3 PUSH2 0x524C JUMP JUMPDEST DUP7 SSTORE POP PUSH2 0x5332 JUMP JUMPDEST PUSH1 0x1F NOT DUP5 AND PUSH2 0x52E0 DUP7 PUSH2 0x50C6 JUMP JUMPDEST PUSH1 0x0 JUMPDEST DUP3 DUP2 LT ISZERO PUSH2 0x5308 JUMPI DUP5 DUP10 ADD MLOAD DUP3 SSTORE PUSH1 0x1 DUP3 ADD SWAP2 POP PUSH1 0x20 DUP6 ADD SWAP5 POP PUSH1 0x20 DUP2 ADD SWAP1 POP PUSH2 0x52E3 JUMP JUMPDEST DUP7 DUP4 LT ISZERO PUSH2 0x5325 JUMPI DUP5 DUP10 ADD MLOAD PUSH2 0x5321 PUSH1 0x1F DUP10 AND DUP3 PUSH2 0x522E JUMP JUMPDEST DUP4 SSTORE POP JUMPDEST PUSH1 0x1 PUSH1 0x2 DUP9 MUL ADD DUP9 SSTORE POP POP POP JUMPDEST POP POP POP POP POP POP JUMP JUMPDEST PUSH1 0x0 PUSH1 0x40 DUP3 ADD SWAP1 POP DUP2 DUP2 SUB PUSH1 0x0 DUP4 ADD MSTORE PUSH2 0x5354 DUP2 DUP6 PUSH2 0x43DB JUMP JUMPDEST SWAP1 POP DUP2 DUP2 SUB PUSH1 0x20 DUP4 ADD MSTORE PUSH2 0x5368 DUP2 DUP5 PUSH2 0x43DB JUMP JUMPDEST SWAP1 POP SWAP4 SWAP3 POP POP POP JUMP JUMPDEST PUSH32 0x4E6F7420646576696365206F776E657200000000000000000000000000000000 PUSH1 0x0 DUP3 ADD MSTORE POP JUMP JUMPDEST PUSH1 0x0 PUSH2 0x53A7 PUSH1 0x10 DUP4 PUSH2 0x43CA JUMP JUMPDEST SWAP2 POP PUSH2 0x53B2 DUP3 PUSH2 0x5371 JUMP JUMPDEST PUSH1 0x20 DUP3 ADD SWAP1 POP SWAP2 SWAP1 POP JUMP JUMPDEST PUSH1 0x0 PUSH1 0x20 DUP3 ADD SWAP1 POP DUP2 DUP2 SUB PUSH1 0x0 DUP4 ADD MSTORE PUSH2 0x53D6 DUP2 PUSH2 0x539A JUMP JUMPDEST SWAP1 POP SWAP2 SWAP1 POP JUMP JUMPDEST PUSH32 0x5072696365206D7573742062652067726561746572207468616E203000000000 PUSH1 0x0 DUP3 ADD MSTORE POP JUMP JUMPDEST PUSH1 0x0 PUSH2 0x5413 PUSH1 0x1C DUP4 PUSH2 0x43CA JUMP JUMPDEST SWAP2 POP PUSH2 0x541E DUP3 PUSH2 0x53DD JUMP JUMPDEST PUSH1 0x20 DUP3 ADD SWAP1 POP SWAP2 SWAP1 POP JUMP JUMPDEST PUSH1 0x0 PUSH1 0x20 DUP3 ADD SWAP1 POP DUP2 DUP2 SUB PUSH1 0x0 DUP4 ADD MSTORE PUSH2 0x5442 DUP2 PUSH2 0x5406 JUMP JUMPDEST SWAP1 POP SWAP2 SWAP1 POP JUMP JUMPDEST PUSH32 0x55736572206E6F74207265676973746572656400000000000000000000000000 PUSH1 0x0 DUP3 ADD MSTORE POP JUMP JUMPDEST PUSH1 0x0 PUSH2 0x547F PUSH1 0x13 DUP4 PUSH2 0x43CA JUMP JUMPDEST SWAP2 POP PUSH2 0x548A DUP3 PUSH2 0x5449 JUMP JUMPDEST PUSH1 0x20 DUP3 ADD SWAP1 POP SWAP2 SWAP1 POP JUMP JUMPDEST PUSH1 0x0 PUSH1 0x20 DUP3 ADD SWAP1 POP DUP2 DUP2 SUB PUSH1 0x0 DUP4 ADD MSTORE PUSH2 0x54AE DUP2 PUSH2 0x5472 JUMP JUMPDEST SWAP1 POP SWAP2 SWAP1 POP JUMP JUMPDEST PUSH32 0x446576696365206973206E6F7420616374697665000000000000000000000000 PUSH1 0x0 DUP3 ADD MSTORE POP JUMP JUMPDEST PUSH1 0x0 PUSH2 0x54EB PUSH1 0x14 DUP4 PUSH2 0x43CA JUMP JUMPDEST SWAP2 POP PUSH2 0x54F6 DUP3 PUSH2 0x54B5 JUMP JUMPDEST PUSH1 0x20 DUP3 ADD SWAP1 POP SWAP2 SWAP1 POP JUMP JUMPDEST PUSH1 0x0 PUSH1 0x20 DUP3 ADD SWAP1 POP DUP2 DUP2 SUB PUSH1 0x0 DUP4 ADD MSTORE PUSH2 0x551A DUP2 PUSH2 0x54DE JUMP JUMPDEST SWAP1 POP SWAP2 SWAP1 POP JUMP JUMPDEST PUSH32 0x446576696365206973206E6F7420726561647920746F20616363657074206F72 PUSH1 0x0 DUP3 ADD MSTORE PUSH32 0x6465727300000000000000000000000000000000000000000000000000000000 PUSH1 0x20 DUP3 ADD MSTORE POP JUMP JUMPDEST PUSH1 0x0 PUSH2 0x557D PUSH1 0x24 DUP4 PUSH2 0x43CA JUMP JUMPDEST SWAP2 POP PUSH2 0x5588 DUP3 PUSH2 0x5521 JUMP JUMPDEST PUSH1 0x40 DUP3 ADD SWAP1 POP SWAP2 SWAP1 POP JUMP JUMPDEST PUSH1 0x0 PUSH1 0x20 DUP3 ADD SWAP1 POP DUP2 DUP2 SUB PUSH1 0x0 DUP4 ADD MSTORE PUSH2 0x55AC DUP2 PUSH2 0x5570 JUMP JUMPDEST SWAP1 POP SWAP2 SWAP1 POP JUMP JUMPDEST PUSH32 0x4475726174696F6E206D7573742062652067726561746572207468616E203000 PUSH1 0x0 DUP3 ADD MSTORE POP JUMP JUMPDEST PUSH1 0x0 PUSH2 0x55E9 PUSH1 0x1F DUP4 PUSH2 0x43CA JUMP JUMPDEST SWAP2 POP PUSH2 0x55F4 DUP3 PUSH2 0x55B3 JUMP JUMPDEST PUSH1 0x20 DUP3 ADD SWAP1 POP SWAP2 SWAP1 POP JUMP JUMPDEST PUSH1 0x0 PUSH1 0x20 DUP3 ADD SWAP1 POP DUP2 DUP2 SUB PUSH1 0x0 DUP4 ADD MSTORE PUSH2 0x5618 DUP2 PUSH2 0x55DC JUMP JUMPDEST SWAP1 POP SWAP2 SWAP1 POP JUMP JUMPDEST PUSH32 0x5075626C6963206B65792063616E6E6F7420626520656D707479000000000000 PUSH1 0x0 DUP3 ADD MSTORE POP JUMP JUMPDEST PUSH1 0x0 PUSH2 0x5655 PUSH1 0x1A DUP4 PUSH2 0x43CA JUMP JUMPDEST SWAP2 POP PUSH2 0x5660 DUP3 PUSH2 0x561F JUMP JUMPDEST PUSH1 0x20 DUP3 ADD SWAP1 POP SWAP2 SWAP1 POP JUMP JUMPDEST PUSH1 0x0 PUSH1 0x20 DUP3 ADD SWAP1 POP DUP2 DUP2 SUB PUSH1 0x0 DUP4 ADD MSTORE PUSH2 0x5684 DUP2 PUSH2 0x5648 JUMP JUMPDEST SWAP1 POP SWAP2 SWAP1 POP JUMP JUMPDEST PUSH1 0x0 PUSH2 0x5696 DUP3 PUSH2 0x3FA3 JUMP JUMPDEST SWAP2 POP PUSH2 0x56A1 DUP4 PUSH2 0x3FA3 JUMP JUMPDEST SWAP3 POP DUP3 DUP3 MUL PUSH2 0x56AF DUP2 PUSH2 0x3FA3 JUMP JUMPDEST SWAP2 POP DUP3 DUP3 DIV DUP5 EQ DUP4 ISZERO OR PUSH2 0x56C6 JUMPI PUSH2 0x56C5 PUSH2 0x4EAB JUMP JUMPDEST JUMPDEST POP SWAP3 SWAP2 POP POP JUMP JUMPDEST PUSH1 0x0 DUP2 MLOAD SWAP1 POP PUSH2 0x56DC DUP2 PUSH2 0x4100 JUMP JUMPDEST SWAP3 SWAP2 POP POP JUMP JUMPDEST PUSH1 0x0 PUSH1 0x20 DUP3 DUP5 SUB SLT ISZERO PUSH2 0x56F8 JUMPI PUSH2 0x56F7 PUSH2 0x406B JUMP JUMPDEST JUMPDEST PUSH1 0x0 PUSH2 0x5706 DUP5 DUP3 DUP6 ADD PUSH2 0x56CD JUMP JUMPDEST SWAP2 POP POP SWAP3 SWAP2 POP POP JUMP JUMPDEST PUSH32 0x496E73756666696369656E7420746F6B656E2062616C616E6365000000000000 PUSH1 0x0 DUP3 ADD MSTORE POP JUMP JUMPDEST PUSH1 0x0 PUSH2 0x5745 PUSH1 0x1A DUP4 PUSH2 0x43CA JUMP JUMPDEST SWAP2 POP PUSH2 0x5750 DUP3 PUSH2 0x570F JUMP JUMPDEST PUSH1 0x20 DUP3 ADD SWAP1 POP SWAP2 SWAP1 POP JUMP JUMPDEST PUSH1 0x0 PUSH1 0x20 DUP3 ADD SWAP1 POP DUP2 DUP2 SUB PUSH1 0x0 DUP4 ADD MSTORE PUSH2 0x5774 DUP2 PUSH2 0x5738 JUMP JUMPDEST SWAP1 POP SWAP2 SWAP1 POP JUMP JUMPDEST PUSH1 0x0 PUSH1 0x60 DUP3 ADD SWAP1 POP PUSH2 0x5790 PUSH1 0x0 DUP4 ADD DUP7 PUSH2 0x4414 JUMP JUMPDEST PUSH2 0x579D PUSH1 0x20 DUP4 ADD DUP6 PUSH2 0x4414 JUMP JUMPDEST PUSH2 0x57AA PUSH1 0x40 DUP4 ADD DUP5 PUSH2 0x4432 JUMP JUMPDEST SWAP5 SWAP4 POP POP POP POP JUMP JUMPDEST PUSH1 0x0 DUP2 MLOAD SWAP1 POP PUSH2 0x57C1 DUP2 PUSH2 0x47A4 JUMP JUMPDEST SWAP3 SWAP2 POP POP JUMP JUMPDEST PUSH1 0x0 PUSH1 0x20 DUP3 DUP5 SUB SLT ISZERO PUSH2 0x57DD JUMPI PUSH2 0x57DC PUSH2 0x406B JUMP JUMPDEST JUMPDEST PUSH1 0x0 PUSH2 0x57EB DUP5 DUP3 DUP6 ADD PUSH2 0x57B2 JUMP JUMPDEST SWAP2 POP POP SWAP3 SWAP2 POP POP JUMP JUMPDEST PUSH32 0x546F6B656E207472616E73666572206661696C65640000000000000000000000 PUSH1 0x0 DUP3 ADD MSTORE POP JUMP JUMPDEST PUSH1 0x0 PUSH2 0x582A PUSH1 0x15 DUP4 PUSH2 0x43CA JUMP JUMPDEST SWAP2 POP PUSH2 0x5835 DUP3 PUSH2 0x57F4 JUMP JUMPDEST PUSH1 0x20 DUP3 ADD SWAP1 POP SWAP2 SWAP1 POP JUMP JUMPDEST PUSH1 0x0 PUSH1 0x20 DUP3 ADD SWAP1 POP DUP2 DUP2 SUB PUSH1 0x0 DUP4 ADD MSTORE PUSH2 0x5859 DUP2 PUSH2 0x581D JUMP JUMPDEST SWAP1 POP SWAP2 SWAP1 POP JUMP JUMPDEST PUSH1 0x0 PUSH2 0x586B DUP3 PUSH2 0x3FA3 JUMP JUMPDEST SWAP2 POP PUSH2 0x5876 DUP4 PUSH2 0x3FA3 JUMP JUMPDEST SWAP3 POP DUP3 DUP3 ADD SWAP1 POP DUP1 DUP3 GT ISZERO PUSH2 0x588E JUMPI PUSH2 0x588D PUSH2 0x4EAB JUMP JUMPDEST JUMPDEST SWAP3 SWAP2 POP POP JUMP JUMPDEST PUSH1 0x0 PUSH1 0x40 DUP3 ADD SWAP1 POP DUP2 DUP2 SUB PUSH1 0x0 DUP4 ADD MSTORE PUSH2 0x58AE DUP2 DUP6 PUSH2 0x43DB JUMP JUMPDEST SWAP1 POP PUSH2 0x58BD PUSH1 0x20 DUP4 ADD DUP5 PUSH2 0x4432 JUMP JUMPDEST SWAP4 SWAP3 POP POP POP JUMP JUMPDEST PUSH32 0x496E73756666696369656E742062616C616E6365000000000000000000000000 PUSH1 0x0 DUP3 ADD MSTORE POP JUMP JUMPDEST PUSH1 0x0 PUSH2 0x58FA PUSH1 0x14 DUP4 PUSH2 0x43CA JUMP JUMPDEST SWAP2 POP PUSH2 0x5905 DUP3 PUSH2 0x58C4 JUMP JUMPDEST PUSH1 0x20 DUP3 ADD SWAP1 POP SWAP2 SWAP1 POP JUMP JUMPDEST PUSH1 0x0 PUSH1 0x20 DUP3 ADD SWAP1 POP DUP2 DUP2 SUB PUSH1 0x0 DUP4 ADD MSTORE PUSH2 0x5929 DUP2 PUSH2 0x58ED JUMP JUMPDEST SWAP1 POP SWAP2 SWAP1 POP JUMP JUMPDEST PUSH1 0x0 PUSH1 0x40 DUP3 ADD SWAP1 POP PUSH2 0x5945 PUSH1 0x0 DUP4 ADD DUP6 PUSH2 0x4414 JUMP JUMPDEST PUSH2 0x5952 PUSH1 0x20 DUP4 ADD DUP5 PUSH2 0x4432 JUMP JUMPDEST SWAP4 SWAP3 POP POP POP JUMP JUMPDEST PUSH32 0x456D657267656E6379207769746864726177616C206661696C65640000000000 PUSH1 0x0 DUP3 ADD MSTORE POP JUMP JUMPDEST PUSH1 0x0 PUSH2 0x598F PUSH1 0x1B DUP4 PUSH2 0x43CA JUMP JUMPDEST SWAP2 POP PUSH2 0x599A DUP3 PUSH2 0x5959 JUMP JUMPDEST PUSH1 0x20 DUP3 ADD SWAP1 POP SWAP2 SWAP1 POP JUMP JUMPDEST PUSH1 0x0 PUSH1 0x20 DUP3 ADD SWAP1 POP DUP2 DUP2 SUB PUSH1 0x0 DUP4 ADD MSTORE PUSH2 0x59BE DUP2 PUSH2 0x5982 JUMP JUMPDEST SWAP1 POP SWAP2 SWAP1 POP JUMP JUMPDEST PUSH32 0x446576696365206E616D652063616E6E6F7420626520656D7074790000000000 PUSH1 0x0 DUP3 ADD MSTORE POP JUMP JUMPDEST PUSH1 0x0 PUSH2 0x59FB PUSH1 0x1B DUP4 PUSH2 0x43CA JUMP JUMPDEST SWAP2 POP PUSH2 0x5A06 DUP3 PUSH2 0x59C5 JUMP JUMPDEST PUSH1 0x20 DUP3 ADD SWAP1 POP SWAP2 SWAP1 POP JUMP JUMPDEST PUSH1 0x0 PUSH1 0x20 DUP3 ADD SWAP1 POP DUP2 DUP2 SUB PUSH1 0x0 DUP4 ADD MSTORE PUSH2 0x5A2A DUP2 PUSH2 0x59EE JUMP JUMPDEST SWAP1 POP SWAP2 SWAP1 POP JUMP JUMPDEST PUSH32 0x4E6F74206F72646572207061727469636970616E740000000000000000000000 PUSH1 0x0 DUP3 ADD MSTORE POP JUMP JUMPDEST PUSH1 0x0 PUSH2 0x5A67 PUSH1 0x15 DUP4 PUSH2 0x43CA JUMP JUMPDEST SWAP2 POP PUSH2 0x5A72 DUP3 PUSH2 0x5A31 JUMP JUMPDEST PUSH1 0x20 DUP3 ADD SWAP1 POP SWAP2 SWAP1 POP JUMP JUMPDEST PUSH1 0x0 PUSH1 0x20 DUP3 ADD SWAP1 POP DUP2 DUP2 SUB PUSH1 0x0 DUP4 ADD MSTORE PUSH2 0x5A96 DUP2 PUSH2 0x5A5A JUMP JUMPDEST SWAP1 POP SWAP2 SWAP1 POP JUMP JUMPDEST PUSH32 0x43616E6E6F742063616E63656C206F7264657220696E2063757272656E742073 PUSH1 0x0 DUP3 ADD MSTORE PUSH32 0x7461747573000000000000000000000000000000000000000000000000000000 PUSH1 0x20 DUP3 ADD MSTORE POP JUMP JUMPDEST PUSH1 0x0 PUSH2 0x5AF9 PUSH1 0x25 DUP4 PUSH2 0x43CA JUMP JUMPDEST SWAP2 POP PUSH2 0x5B04 DUP3 PUSH2 0x5A9D JUMP JUMPDEST PUSH1 0x40 DUP3 ADD SWAP1 POP SWAP2 SWAP1 POP JUMP JUMPDEST PUSH1 0x0 PUSH1 0x20 DUP3 ADD SWAP1 POP DUP2 DUP2 SUB PUSH1 0x0 DUP4 ADD MSTORE PUSH2 0x5B28 DUP2 PUSH2 0x5AEC JUMP JUMPDEST SWAP1 POP SWAP2 SWAP1 POP JUMP JUMPDEST PUSH32 0x526566756E64206661696C656400000000000000000000000000000000000000 PUSH1 0x0 DUP3 ADD MSTORE POP JUMP JUMPDEST PUSH1 0x0 PUSH2 0x5B65 PUSH1 0xD DUP4 PUSH2 0x43CA JUMP JUMPDEST SWAP2 POP PUSH2 0x5B70 DUP3 PUSH2 0x5B2F JUMP JUMPDEST PUSH1 0x20 DUP3 ADD SWAP1 POP SWAP2 SWAP1 POP JUMP JUMPDEST PUSH1 0x0 PUSH1 0x20 DUP3 ADD SWAP1 POP DUP2 DUP2 SUB PUSH1 0x0 DUP4 ADD MSTORE PUSH2 0x5B94 DUP2 PUSH2 0x5B58 JUMP JUMPDEST SWAP1 POP SWAP2 SWAP1 POP JUMP JUMPDEST PUSH1 0x0 PUSH1 0x20 DUP3 ADD SWAP1 POP DUP2 DUP2 SUB PUSH1 0x0 DUP4 ADD MSTORE PUSH2 0x5BB5 DUP2 DUP5 PUSH2 0x43DB JUMP JUMPDEST SWAP1 POP SWAP3 SWAP2 POP POP JUMP JUMPDEST PUSH32 0x4F6E6C79206175746F6D6174696F6E20626F7400000000000000000000000000 PUSH1 0x0 DUP3 ADD MSTORE POP JUMP JUMPDEST PUSH1 0x0 PUSH2 0x5BF3 PUSH1 0x13 DUP4 PUSH2 0x43CA JUMP JUMPDEST SWAP2 POP PUSH2 0x5BFE DUP3 PUSH2 0x5BBD JUMP JUMPDEST PUSH1 0x20 DUP3 ADD SWAP1 POP SWAP2 SWAP1 POP JUMP JUMPDEST PUSH1 0x0 PUSH1 0x20 DUP3 ADD SWAP1 POP DUP2 DUP2 SUB PUSH1 0x0 DUP4 ADD MSTORE PUSH2 0x5C22 DUP2 PUSH2 0x5BE6 JUMP JUMPDEST SWAP1 POP SWAP2 SWAP1 POP JUMP JUMPDEST PUSH32 0x496E76616C6964206F7264657220737461747573000000000000000000000000 PUSH1 0x0 DUP3 ADD MSTORE POP JUMP JUMPDEST PUSH1 0x0 PUSH2 0x5C5F PUSH1 0x14 DUP4 PUSH2 0x43CA JUMP JUMPDEST SWAP2 POP PUSH2 0x5C6A DUP3 PUSH2 0x5C29 JUMP JUMPDEST PUSH1 0x20 DUP3 ADD SWAP1 POP SWAP2 SWAP1 POP JUMP JUMPDEST PUSH1 0x0 PUSH1 0x20 DUP3 ADD SWAP1 POP DUP2 DUP2 SUB PUSH1 0x0 DUP4 ADD MSTORE PUSH2 0x5C8E DUP2 PUSH2 0x5C52 JUMP JUMPDEST SWAP1 POP SWAP2 SWAP1 POP JUMP JUMPDEST PUSH32 0x4F72646572206E6F742079657420657870697265640000000000000000000000 PUSH1 0x0 DUP3 ADD MSTORE POP JUMP JUMPDEST PUSH1 0x0 PUSH2 0x5CCB PUSH1 0x15 DUP4 PUSH2 0x43CA JUMP JUMPDEST SWAP2 POP PUSH2 0x5CD6 DUP3 PUSH2 0x5C95 JUMP JUMPDEST PUSH1 0x20 DUP3 ADD SWAP1 POP SWAP2 SWAP1 POP JUMP JUMPDEST PUSH1 0x0 PUSH1 0x20 DUP3 ADD SWAP1 POP DUP2 DUP2 SUB PUSH1 0x0 DUP4 ADD MSTORE PUSH2 0x5CFA DUP2 PUSH2 0x5CBE JUMP JUMPDEST SWAP1 POP SWAP2 SWAP1 POP JUMP JUMPDEST PUSH32 0x4E487B7100000000000000000000000000000000000000000000000000000000 PUSH1 0x0 MSTORE PUSH1 0x12 PUSH1 0x4 MSTORE PUSH1 0x24 PUSH1 0x0 REVERT JUMPDEST PUSH1 0x0 PUSH2 0x5D3B DUP3 PUSH2 0x3FA3 JUMP JUMPDEST SWAP2 POP PUSH2 0x5D46 DUP4 PUSH2 0x3FA3 JUMP JUMPDEST SWAP3 POP DUP3 PUSH2 0x5D56 JUMPI PUSH2 0x5D55 PUSH2 0x5D01 JUMP JUMPDEST JUMPDEST DUP3 DUP3 DIV SWAP1 POP SWAP3 SWAP2 POP POP JUMP JUMPDEST PUSH1 0x0 PUSH2 0x5D6C DUP3 PUSH2 0x3FA3 JUMP JUMPDEST SWAP2 POP PUSH2 0x5D77 DUP4 PUSH2 0x3FA3 JUMP JUMPDEST SWAP3 POP DUP3 DUP3 SUB SWAP1 POP DUP2 DUP2 GT ISZERO PUSH2 0x5D8F JUMPI PUSH2 0x5D8E PUSH2 0x4EAB JUMP JUMPDEST JUMPDEST SWAP3 SWAP2 POP POP JUMP JUMPDEST PUSH32 0x426F7420726577617264207472616E73666572206661696C6564000000000000 PUSH1 0x0 DUP3 ADD MSTORE POP JUMP JUMPDEST PUSH1 0x0 PUSH2 0x5DCB PUSH1 0x1A DUP4 PUSH2 0x43CA JUMP JUMPDEST SWAP2 POP PUSH2 0x5DD6 DUP3 PUSH2 0x5D95 JUMP JUMPDEST PUSH1 0x20 DUP3 ADD SWAP1 POP SWAP2 SWAP1 POP JUMP JUMPDEST PUSH1 0x0 PUSH1 0x20 DUP3 ADD SWAP1 POP DUP2 DUP2 SUB PUSH1 0x0 DUP4 ADD MSTORE PUSH2 0x5DFA DUP2 PUSH2 0x5DBE JUMP JUMPDEST SWAP1 POP SWAP2 SWAP1 POP JUMP JUMPDEST PUSH32 0x5061796D656E7420746F20646576696365206F776E6572206661696C65640000 PUSH1 0x0 DUP3 ADD MSTORE POP JUMP JUMPDEST PUSH1 0x0 PUSH2 0x5E37 PUSH1 0x1E DUP4 PUSH2 0x43CA JUMP JUMPDEST SWAP2 POP PUSH2 0x5E42 DUP3 PUSH2 0x5E01 JUMP JUMPDEST PUSH1 0x20 DUP3 ADD SWAP1 POP SWAP2 SWAP1 POP JUMP JUMPDEST PUSH1 0x0 PUSH1 0x20 DUP3 ADD SWAP1 POP DUP2 DUP2 SUB PUSH1 0x0 DUP4 ADD MSTORE PUSH2 0x5E66 DUP2 PUSH2 0x5E2A JUMP JUMPDEST SWAP1 POP SWAP2 SWAP1 POP JUMP INVALID LOG2 PUSH5 0x6970667358 0x22 SLT KECCAK256 0xC8 POP RETURN 0xC4 DUP7 0xB2 DUP2 DUP15 0xF7 0xC2 DUP1 SWAP16 NOT 0xE7 SWAP4 0xC2 0xCA PUSH20 0x8D3AC995C02B975DD7957274B19264736F6C6343 STOP ADDMOD SHR STOP CALLER "
        },
        "methodIdentifiers": {
          "admin()": "f851a440",
          "autoCompleteOrder(uint256)": "c010a064",
          "automationBot()": "db362817",
          "botRewardPercentage()": "40746c83",
          "cancelOrder(uint256,string)": "ad7e2181",
          "deviceOrders(uint256,uint256)": "567d107e",
          "devices(uint256)": "10ff8e31",
          "disputedOrders(uint256)": "b91459e9",
          "emergencyWithdraw(uint256)": "5312ea8e",
          "gasCompensation()": "84f5c2d2",
          "getActiveDevices()": "82fe9f7d",
          "getDevice(uint256)": "09f110b1",
          "getDeviceOrders(uint256)": "9e147f78",
          "getExpiredOrders()": "05073069",
          "getOrder(uint256)": "d09ef241",
          "getOrderEscrow(uint256)": "fefa9ba9",
          "getReadyDevices()": "243718d8",
          "getUserDevices(address)": "05f39532",
          "getUserOrders(address)": "63c69f08",
          "getUserProfile(address)": "987ee156",
          "nextDeviceId()": "eb780f42",
          "nextOrderId()": "2a58b330",
          "orderEscrow(uint256)": "b5c139b6",
          "orders(uint256)": "a85c38ef",
          "placeOrder(uint256,string,uint256,string,string)": "25a5a754",
          "registerDevice(string,string,uint256,string[])": "8fa0c57b",
          "registerUser(string,string)": "1d2e4afd",
          "setAutomationBot(address)": "0c54c392",
          "tokenContract()": "55a373d6",
          "updateDeviceCapabilities(uint256,string[])": "d7719ad2",
          "updateDevicePricing(uint256,uint256)": "245982ae",
          "updateDeviceReadiness(uint256,bool)": "341fc110",
          "updateDeviceStatus(uint256,bool)": "d4e33055",
          "updateTokenContract(address)": "989ced26",
          "userDevices(address,uint256)": "d5928be9",
          "userOrders(address,uint256)": "856652e9",
          "users(address)": "a87430ba",
          "withdraw(uint256)": "2e1a7d4d"
        }
      }
    }
  }
}