{
  "_format": "hh-sol-artifact-1",
  "contractName": "MeshMind",
  "sourceName": "contracts/MeshMind.sol",
  "abi": [
    {
      "inputs": [
        {
          "internalType": "address",
          "name": "_tokenContract",
          "type": "address"
        },
        {
          "internalType": "address",
          "name": "_automationBot",
          "type": "address"
        }
      ],
      "stateMutability": "nonpayable",
      "type": "constructor"
    },
    {
      "anonymous": false,
      "inputs": [
        {
          "indexed": false,
          "internalType": "uint256",
          "name": "oldReward",
          "type": "uint256"
        },
        {
          "indexed": false,
          "internalType": "uint256",
          "name": "newReward",
          "type": "uint256"
        }
      ],
      "name": "BotRewardUpdated",
      "type": "event"
    },
    {
      "anonymous": false,
      "inputs": [
        {
          "indexed": true,
          "internalType": "address",
          "name": "oldBot",
          "type": "address"
        },
        {
          "indexed": true,
          "internalType": "address",
          "name": "newBot",
          "type": "address"
        }
      ],
      "name": "BotUpdated",
      "type": "event"
    },
    {
      "anonymous": false,
      "inputs": [
        {
          "indexed": true,
          "internalType": "uint256",
          "name": "deviceId",
          "type": "uint256"
        },
        {
          "indexed": false,
          "internalType": "uint256",
          "name": "newPrice",
          "type": "uint256"
        }
      ],
      "name": "DevicePriceUpdated",
      "type": "event"
    },
    {
      "anonymous": false,
      "inputs": [
        {
          "indexed": true,
          "internalType": "uint256",
          "name": "deviceId",
          "type": "uint256"
        },
        {
          "indexed": false,
          "internalType": "bool",
          "name": "isReady",
          "type": "bool"
        }
      ],
      "name": "DeviceReadinessUpdated",
      "type": "event"
    },
    {
      "anonymous": false,
      "inputs": [
        {
          "indexed": true,
          "internalType": "uint256",
          "name": "deviceId",
          "type": "uint256"
        },
        {
          "indexed": true,
          "internalType": "address",
          "name": "owner",
          "type": "address"
        },
        {
          "indexed": false,
          "internalType": "string",
          "name": "deviceName",
          "type": "string"
        },
        {
          "indexed": false,
          "internalType": "string",
          "name": "deviceIP",
          "type": "string"
        }
      ],
      "name": "DeviceRegistered",
      "type": "event"
    },
    {
      "anonymous": false,
      "inputs": [
        {
          "indexed": true,
          "internalType": "uint256",
          "name": "deviceId",
          "type": "uint256"
        },
        {
          "indexed": false,
          "internalType": "uint256",
          "name": "newReputation",
          "type": "uint256"
        }
      ],
      "name": "DeviceReputationUpdated",
      "type": "event"
    },
    {
      "anonymous": false,
      "inputs": [
        {
          "indexed": true,
          "internalType": "uint256",
          "name": "deviceId",
          "type": "uint256"
        },
        {
          "indexed": false,
          "internalType": "bool",
          "name": "isActive",
          "type": "bool"
        }
      ],
      "name": "DeviceStatusUpdated",
      "type": "event"
    },
    {
      "anonymous": false,
      "inputs": [
        {
          "indexed": true,
          "internalType": "uint256",
          "name": "orderId",
          "type": "uint256"
        },
        {
          "indexed": true,
          "internalType": "address",
          "name": "deviceOwner",
          "type": "address"
        }
      ],
      "name": "OrderAutoAccepted",
      "type": "event"
    },
    {
      "anonymous": false,
      "inputs": [
        {
          "indexed": true,
          "internalType": "uint256",
          "name": "orderId",
          "type": "uint256"
        },
        {
          "indexed": true,
          "internalType": "address",
          "name": "bot",
          "type": "address"
        },
        {
          "indexed": false,
          "internalType": "uint256",
          "name": "botReward",
          "type": "uint256"
        }
      ],
      "name": "OrderAutoCompleted",
      "type": "event"
    },
    {
      "anonymous": false,
      "inputs": [
        {
          "indexed": true,
          "internalType": "uint256",
          "name": "orderId",
          "type": "uint256"
        },
        {
          "indexed": false,
          "internalType": "string",
          "name": "reason",
          "type": "string"
        }
      ],
      "name": "OrderCancelled",
      "type": "event"
    },
    {
      "anonymous": false,
      "inputs": [
        {
          "indexed": true,
          "internalType": "uint256",
          "name": "orderId",
          "type": "uint256"
        },
        {
          "indexed": false,
          "internalType": "uint256",
          "name": "paymentAmount",
          "type": "uint256"
        }
      ],
      "name": "OrderCompleted",
      "type": "event"
    },
    {
      "anonymous": false,
      "inputs": [
        {
          "indexed": true,
          "internalType": "uint256",
          "name": "orderId",
          "type": "uint256"
        },
        {
          "indexed": false,
          "internalType": "string",
          "name": "reason",
          "type": "string"
        }
      ],
      "name": "OrderDisputed",
      "type": "event"
    },
    {
      "anonymous": false,
      "inputs": [
        {
          "indexed": true,
          "internalType": "uint256",
          "name": "orderId",
          "type": "uint256"
        },
        {
          "indexed": true,
          "internalType": "address",
          "name": "user",
          "type": "address"
        },
        {
          "indexed": true,
          "internalType": "uint256",
          "name": "deviceId",
          "type": "uint256"
        },
        {
          "indexed": false,
          "internalType": "string",
          "name": "action",
          "type": "string"
        },
        {
          "indexed": false,
          "internalType": "uint256",
          "name": "amount",
          "type": "uint256"
        }
      ],
      "name": "OrderPlaced",
      "type": "event"
    },
    {
      "anonymous": false,
      "inputs": [
        {
          "indexed": true,
          "internalType": "uint256",
          "name": "orderId",
          "type": "uint256"
        }
      ],
      "name": "OrderStarted",
      "type": "event"
    },
    {
      "anonymous": false,
      "inputs": [
        {
          "indexed": true,
          "internalType": "uint256",
          "name": "orderId",
          "type": "uint256"
        },
        {
          "indexed": true,
          "internalType": "address",
          "name": "recipient",
          "type": "address"
        },
        {
          "indexed": false,
          "internalType": "uint256",
          "name": "amount",
          "type": "uint256"
        }
      ],
      "name": "PaymentReleased",
      "type": "event"
    },
    {
      "anonymous": false,
      "inputs": [
        {
          "indexed": true,
          "internalType": "address",
          "name": "user",
          "type": "address"
        },
        {
          "indexed": false,
          "internalType": "uint256",
          "name": "newReputation",
          "type": "uint256"
        }
      ],
      "name": "ReputationUpdated",
      "type": "event"
    },
    {
      "anonymous": false,
      "inputs": [
        {
          "indexed": true,
          "internalType": "address",
          "name": "user",
          "type": "address"
        },
        {
          "indexed": false,
          "internalType": "string",
          "name": "username",
          "type": "string"
        },
        {
          "indexed": false,
          "internalType": "string",
          "name": "contactInfo",
          "type": "string"
        }
      ],
      "name": "UserRegistered",
      "type": "event"
    },
    {
      "inputs": [],
      "name": "admin",
      "outputs": [
        {
          "internalType": "address",
          "name": "",
          "type": "address"
        }
      ],
      "stateMutability": "view",
      "type": "function"
    },
    {
      "inputs": [
        {
          "internalType": "uint256",
          "name": "orderId",
          "type": "uint256"
        }
      ],
      "name": "autoCompleteOrder",
      "outputs": [],
      "stateMutability": "nonpayable",
      "type": "function"
    },
    {
      "inputs": [],
      "name": "automationBot",
      "outputs": [
        {
          "internalType": "address",
          "name": "",
          "type": "address"
        }
      ],
      "stateMutability": "view",
      "type": "function"
    },
    {
      "inputs": [],
      "name": "botRewardPercentage",
      "outputs": [
        {
          "internalType": "uint256",
          "name": "",
          "type": "uint256"
        }
      ],
      "stateMutability": "view",
      "type": "function"
    },
    {
      "inputs": [
        {
          "internalType": "uint256",
          "name": "orderId",
          "type": "uint256"
        },
        {
          "internalType": "string",
          "name": "reason",
          "type": "string"
        }
      ],
      "name": "cancelOrder",
      "outputs": [],
      "stateMutability": "nonpayable",
      "type": "function"
    },
    {
      "inputs": [
        {
          "internalType": "uint256",
          "name": "",
          "type": "uint256"
        },
        {
          "internalType": "uint256",
          "name": "",
          "type": "uint256"
        }
      ],
      "name": "deviceOrders",
      "outputs": [
        {
          "internalType": "uint256",
          "name": "",
          "type": "uint256"
        }
      ],
      "stateMutability": "view",
      "type": "function"
    },
    {
      "inputs": [
        {
          "internalType": "uint256",
          "name": "",
          "type": "uint256"
        }
      ],
      "name": "devices",
      "outputs": [
        {
          "internalType": "string",
          "name": "deviceName",
          "type": "string"
        },
        {
          "internalType": "string",
          "name": "deviceIP",
          "type": "string"
        },
        {
          "internalType": "address",
          "name": "owner",
          "type": "address"
        },
        {
          "internalType": "bool",
          "name": "isActive",
          "type": "bool"
        },
        {
          "internalType": "bool",
          "name": "isReady",
          "type": "bool"
        },
        {
          "internalType": "uint256",
          "name": "pricePerHour",
          "type": "uint256"
        },
        {
          "internalType": "string",
          "name": "specs",
          "type": "string"
        },
        {
          "internalType": "uint256",
          "name": "totalOrders",
          "type": "uint256"
        },
        {
          "internalType": "uint256",
          "name": "completedOrders",
          "type": "uint256"
        }
      ],
      "stateMutability": "view",
      "type": "function"
    },
    {
      "inputs": [
        {
          "internalType": "uint256",
          "name": "",
          "type": "uint256"
        }
      ],
      "name": "disputedOrders",
      "outputs": [
        {
          "internalType": "bool",
          "name": "",
          "type": "bool"
        }
      ],
      "stateMutability": "view",
      "type": "function"
    },
    {
      "inputs": [],
      "name": "gasCompensation",
      "outputs": [
        {
          "internalType": "uint256",
          "name": "",
          "type": "uint256"
        }
      ],
      "stateMutability": "view",
      "type": "function"
    },
    {
      "inputs": [],
      "name": "getActiveDevices",
      "outputs": [
        {
          "internalType": "uint256[]",
          "name": "",
          "type": "uint256[]"
        }
      ],
      "stateMutability": "view",
      "type": "function"
    },
    {
      "inputs": [
        {
          "internalType": "uint256",
          "name": "deviceId",
          "type": "uint256"
        }
      ],
      "name": "getDevice",
      "outputs": [
        {
          "components": [
            {
              "internalType": "string",
              "name": "deviceName",
              "type": "string"
            },
            {
              "internalType": "string",
              "name": "deviceIP",
              "type": "string"
            },
            {
              "internalType": "address",
              "name": "owner",
              "type": "address"
            },
            {
              "internalType": "bool",
              "name": "isActive",
              "type": "bool"
            },
            {
              "internalType": "bool",
              "name": "isReady",
              "type": "bool"
            },
            {
              "internalType": "uint256",
              "name": "pricePerHour",
              "type": "uint256"
            },
            {
              "internalType": "string[]",
              "name": "capabilities",
              "type": "string[]"
            },
            {
              "internalType": "string",
              "name": "specs",
              "type": "string"
            },
            {
              "internalType": "uint256",
              "name": "totalOrders",
              "type": "uint256"
            },
            {
              "internalType": "uint256",
              "name": "completedOrders",
              "type": "uint256"
            }
          ],
          "internalType": "struct MeshMind.Device",
          "name": "",
          "type": "tuple"
        }
      ],
      "stateMutability": "view",
      "type": "function"
    },
    {
      "inputs": [
        {
          "internalType": "uint256",
          "name": "deviceId",
          "type": "uint256"
        }
      ],
      "name": "getDeviceOrders",
      "outputs": [
        {
          "internalType": "uint256[]",
          "name": "",
          "type": "uint256[]"
        }
      ],
      "stateMutability": "view",
      "type": "function"
    },
    {
      "inputs": [],
      "name": "getExpiredOrders",
      "outputs": [
        {
          "internalType": "uint256[]",
          "name": "",
          "type": "uint256[]"
        }
      ],
      "stateMutability": "view",
      "type": "function"
    },
    {
      "inputs": [
        {
          "internalType": "uint256",
          "name": "orderId",
          "type": "uint256"
        }
      ],
      "name": "getOrder",
      "outputs": [
        {
          "components": [
            {
              "internalType": "uint256",
              "name": "id",
              "type": "uint256"
            },
            {
              "internalType": "address",
              "name": "user",
              "type": "address"
            },
            {
              "internalType": "uint256",
              "name": "deviceId",
              "type": "uint256"
            },
            {
              "internalType": "uint256",
              "name": "amount",
              "type": "uint256"
            },
            {
              "internalType": "uint256",
              "name": "timestamp",
              "type": "uint256"
            },
            {
              "internalType": "string",
              "name": "publicKey",
              "type": "string"
            },
            {
              "internalType": "enum MeshMind.OrderStatus",
              "name": "status",
              "type": "uint8"
            },
            {
              "internalType": "uint256",
              "name": "completionTimestamp",
              "type": "uint256"
            },
            {
              "internalType": "uint256",
              "name": "durationHours",
              "type": "uint256"
            },
            {
              "internalType": "string",
              "name": "taskDetails",
              "type": "string"
            }
          ],
          "internalType": "struct MeshMind.Order",
          "name": "",
          "type": "tuple"
        }
      ],
      "stateMutability": "view",
      "type": "function"
    },
    {
      "inputs": [
        {
          "internalType": "uint256",
          "name": "orderId",
          "type": "uint256"
        }
      ],
      "name": "getOrderEscrow",
      "outputs": [
        {
          "internalType": "uint256",
          "name": "",
          "type": "uint256"
        }
      ],
      "stateMutability": "view",
      "type": "function"
    },
    {
      "inputs": [],
      "name": "getReadyDevices",
      "outputs": [
        {
          "internalType": "uint256[]",
          "name": "",
          "type": "uint256[]"
        }
      ],
      "stateMutability": "view",
      "type": "function"
    },
    {
      "inputs": [
        {
          "internalType": "address",
          "name": "user",
          "type": "address"
        }
      ],
      "name": "getUserDevices",
      "outputs": [
        {
          "components": [
            {
              "internalType": "string",
              "name": "deviceName",
              "type": "string"
            },
            {
              "internalType": "string",
              "name": "deviceIP",
              "type": "string"
            },
            {
              "internalType": "address",
              "name": "owner",
              "type": "address"
            },
            {
              "internalType": "bool",
              "name": "isActive",
              "type": "bool"
            },
            {
              "internalType": "bool",
              "name": "isReady",
              "type": "bool"
            },
            {
              "internalType": "uint256",
              "name": "pricePerHour",
              "type": "uint256"
            },
            {
              "internalType": "string[]",
              "name": "capabilities",
              "type": "string[]"
            },
            {
              "internalType": "string",
              "name": "specs",
              "type": "string"
            },
            {
              "internalType": "uint256",
              "name": "totalOrders",
              "type": "uint256"
            },
            {
              "internalType": "uint256",
              "name": "completedOrders",
              "type": "uint256"
            }
          ],
          "internalType": "struct MeshMind.Device[]",
          "name": "",
          "type": "tuple[]"
        }
      ],
      "stateMutability": "view",
      "type": "function"
    },
    {
      "inputs": [
        {
          "internalType": "address",
          "name": "user",
          "type": "address"
        }
      ],
      "name": "getUserOrders",
      "outputs": [
        {
          "internalType": "uint256[]",
          "name": "",
          "type": "uint256[]"
        }
      ],
      "stateMutability": "view",
      "type": "function"
    },
    {
      "inputs": [
        {
          "internalType": "address",
          "name": "user",
          "type": "address"
        }
      ],
      "name": "getUserProfile",
      "outputs": [
        {
          "components": [
            {
              "internalType": "string",
              "name": "username",
              "type": "string"
            },
            {
              "internalType": "string",
              "name": "contactInfo",
              "type": "string"
            },
            {
              "internalType": "bool",
              "name": "isRegistered",
              "type": "bool"
            }
          ],
          "internalType": "struct MeshMind.UserProfile",
          "name": "",
          "type": "tuple"
        }
      ],
      "stateMutability": "view",
      "type": "function"
    },
    {
      "inputs": [],
      "name": "nextDeviceId",
      "outputs": [
        {
          "internalType": "uint256",
          "name": "",
          "type": "uint256"
        }
      ],
      "stateMutability": "view",
      "type": "function"
    },
    {
      "inputs": [],
      "name": "nextOrderId",
      "outputs": [
        {
          "internalType": "uint256",
          "name": "",
          "type": "uint256"
        }
      ],
      "stateMutability": "view",
      "type": "function"
    },
    {
      "inputs": [
        {
          "internalType": "uint256",
          "name": "",
          "type": "uint256"
        }
      ],
      "name": "orderEscrow",
      "outputs": [
        {
          "internalType": "uint256",
          "name": "",
          "type": "uint256"
        }
      ],
      "stateMutability": "view",
      "type": "function"
    },
    {
      "inputs": [
        {
          "internalType": "uint256",
          "name": "",
          "type": "uint256"
        }
      ],
      "name": "orders",
      "outputs": [
        {
          "internalType": "uint256",
          "name": "id",
          "type": "uint256"
        },
        {
          "internalType": "address",
          "name": "user",
          "type": "address"
        },
        {
          "internalType": "uint256",
          "name": "deviceId",
          "type": "uint256"
        },
        {
          "internalType": "uint256",
          "name": "amount",
          "type": "uint256"
        },
        {
          "internalType": "uint256",
          "name": "timestamp",
          "type": "uint256"
        },
        {
          "internalType": "string",
          "name": "publicKey",
          "type": "string"
        },
        {
          "internalType": "enum MeshMind.OrderStatus",
          "name": "status",
          "type": "uint8"
        },
        {
          "internalType": "uint256",
          "name": "completionTimestamp",
          "type": "uint256"
        },
        {
          "internalType": "uint256",
          "name": "durationHours",
          "type": "uint256"
        },
        {
          "internalType": "string",
          "name": "taskDetails",
          "type": "string"
        }
      ],
      "stateMutability": "view",
      "type": "function"
    },
    {
      "inputs": [
        {
          "internalType": "uint256",
          "name": "deviceId",
          "type": "uint256"
        },
        {
          "internalType": "string",
          "name": "action",
          "type": "string"
        },
        {
          "internalType": "uint256",
          "name": "durationHours",
          "type": "uint256"
        },
        {
          "internalType": "string",
          "name": "taskDetails",
          "type": "string"
        },
        {
          "internalType": "string",
          "name": "publicKey",
          "type": "string"
        }
      ],
      "name": "placeOrder",
      "outputs": [],
      "stateMutability": "nonpayable",
      "type": "function"
    },
    {
      "inputs": [
        {
          "internalType": "string",
          "name": "deviceName",
          "type": "string"
        },
        {
          "internalType": "string",
          "name": "deviceIP",
          "type": "string"
        },
        {
          "internalType": "uint256",
          "name": "pricePerHour",
          "type": "uint256"
        },
        {
          "internalType": "string[]",
          "name": "capabilities",
          "type": "string[]"
        },
        {
          "internalType": "string",
          "name": "specs",
          "type": "string"
        }
      ],
      "name": "registerDevice",
      "outputs": [],
      "stateMutability": "nonpayable",
      "type": "function"
    },
    {
      "inputs": [
        {
          "internalType": "string",
          "name": "username",
          "type": "string"
        },
        {
          "internalType": "string",
          "name": "contactInfo",
          "type": "string"
        }
      ],
      "name": "registerUser",
      "outputs": [],
      "stateMutability": "nonpayable",
      "type": "function"
    },
    {
      "inputs": [
        {
          "internalType": "address",
          "name": "_newBot",
          "type": "address"
        }
      ],
      "name": "setAutomationBot",
      "outputs": [],
      "stateMutability": "nonpayable",
      "type": "function"
    },
    {
      "inputs": [],
      "name": "tokenContract",
      "outputs": [
        {
          "internalType": "contract TokenTransfer",
          "name": "",
          "type": "address"
        }
      ],
      "stateMutability": "view",
      "type": "function"
    },
    {
      "inputs": [
        {
          "internalType": "uint256",
          "name": "deviceId",
          "type": "uint256"
        },
        {
          "internalType": "string[]",
          "name": "capabilities",
          "type": "string[]"
        }
      ],
      "name": "updateDeviceCapabilities",
      "outputs": [],
      "stateMutability": "nonpayable",
      "type": "function"
    },
    {
      "inputs": [
        {
          "internalType": "uint256",
          "name": "deviceId",
          "type": "uint256"
        },
        {
          "internalType": "uint256",
          "name": "newPrice",
          "type": "uint256"
        }
      ],
      "name": "updateDevicePricing",
      "outputs": [],
      "stateMutability": "nonpayable",
      "type": "function"
    },
    {
      "inputs": [
        {
          "internalType": "uint256",
          "name": "deviceId",
          "type": "uint256"
        },
        {
          "internalType": "bool",
          "name": "isReady",
          "type": "bool"
        }
      ],
      "name": "updateDeviceReadiness",
      "outputs": [],
      "stateMutability": "nonpayable",
      "type": "function"
    },
    {
      "inputs": [
        {
          "internalType": "uint256",
          "name": "deviceId",
          "type": "uint256"
        },
        {
          "internalType": "bool",
          "name": "isActive",
          "type": "bool"
        }
      ],
      "name": "updateDeviceStatus",
      "outputs": [],
      "stateMutability": "nonpayable",
      "type": "function"
    },
    {
      "inputs": [
        {
          "internalType": "address",
          "name": "",
          "type": "address"
        },
        {
          "internalType": "uint256",
          "name": "",
          "type": "uint256"
        }
      ],
      "name": "userDevices",
      "outputs": [
        {
          "internalType": "uint256",
          "name": "",
          "type": "uint256"
        }
      ],
      "stateMutability": "view",
      "type": "function"
    },
    {
      "inputs": [
        {
          "internalType": "address",
          "name": "",
          "type": "address"
        },
        {
          "internalType": "uint256",
          "name": "",
          "type": "uint256"
        }
      ],
      "name": "userOrders",
      "outputs": [
        {
          "internalType": "uint256",
          "name": "",
          "type": "uint256"
        }
      ],
      "stateMutability": "view",
      "type": "function"
    },
    {
      "inputs": [
        {
          "internalType": "address",
          "name": "",
          "type": "address"
        }
      ],
      "name": "users",
      "outputs": [
        {
          "internalType": "string",
          "name": "username",
          "type": "string"
        },
        {
          "internalType": "string",
          "name": "contactInfo",
          "type": "string"
        },
        {
          "internalType": "bool",
          "name": "isRegistered",
          "type": "bool"
        }
      ],
      "stateMutability": "view",
      "type": "function"
    },
    {
      "stateMutability": "payable",
      "type": "receive"
    }
  ],
  "bytecode": "0x60806040526005805566038d7ea4c6800060065534801561001f57600080fd5b5060405161615e38038061615e8339818101604052810190610041919061016d565b33600160006101000a81548173ffffffffffffffffffffffffffffffffffffffff021916908373ffffffffffffffffffffffffffffffffffffffff160217905550816000806101000a81548173ffffffffffffffffffffffffffffffffffffffff021916908373ffffffffffffffffffffffffffffffffffffffff16021790555080600260006101000a81548173ffffffffffffffffffffffffffffffffffffffff021916908373ffffffffffffffffffffffffffffffffffffffff16021790555050506101ad565b600080fd5b600073ffffffffffffffffffffffffffffffffffffffff82169050919050565b600061013a8261010f565b9050919050565b61014a8161012f565b811461015557600080fd5b50565b60008151905061016781610141565b92915050565b600080604083850312156101845761018361010a565b5b600061019285828601610158565b92505060206101a385828601610158565b9150509250929050565b615fa2806101bc6000396000f3fe6080604052600436106102085760003560e01c8063856652e911610118578063c010a064116100a0578063d7719ad21161006f578063d7719ad21461081b578063db36281714610844578063eb780f421461086f578063f851a4401461089a578063fefa9ba9146108c55761020f565b8063c010a0641461074f578063d09ef24114610778578063d4e33055146107b5578063d5928be9146107de5761020f565b8063a87430ba116100e7578063a87430ba14610644578063a9e7ecd314610683578063ad7e2181146106ac578063b5c139b6146106d5578063b91459e9146107125761020f565b8063856652e914610547578063987ee156146105845780639e147f78146105c1578063a85c38ef146105fe5761020f565b806325a5a7541161019b57806355a373d61161016a57806355a373d61461044c578063567d107e1461047757806363c69f08146104b457806382fe9f7d146104f157806384f5c2d21461051c5761020f565b806325a5a754146103a45780632a58b330146103cd578063341fc110146103f857806340746c83146104215761020f565b806310ff8e31116101d757806310ff8e31146102e25780631d2e4afd14610327578063243718d814610350578063245982ae1461037b5761020f565b8063050730691461021457806305f395321461023f57806309f110b11461027c5780630c54c392146102b95761020f565b3661020f57005b600080fd5b34801561022057600080fd5b50610229610902565b6040516102369190614013565b60405180910390f35b34801561024b57600080fd5b50610266600480360381019061026191906140a7565b610ac2565b6040516102739190614401565b60405180910390f35b34801561028857600080fd5b506102a3600480360381019061029e919061444f565b610f63565b6040516102b0919061456b565b60405180910390f35b3480156102c557600080fd5b506102e060048036038101906102db91906140a7565b6112ca565b005b3480156102ee57600080fd5b506103096004803603810190610304919061444f565b611420565b60405161031e99989796959493929190614604565b60405180910390f35b34801561033357600080fd5b5061034e600480360381019061034991906147db565b611640565b005b34801561035c57600080fd5b50610365611814565b6040516103729190614013565b60405180910390f35b34801561038757600080fd5b506103a2600480360381019061039d9190614853565b6119b7565b005b3480156103b057600080fd5b506103cb60048036038101906103c69190614893565b611af7565b005b3480156103d957600080fd5b506103e261229b565b6040516103ef9190614962565b60405180910390f35b34801561040457600080fd5b5061041f600480360381019061041a91906149a9565b6122a1565b005b34801561042d57600080fd5b506104366123b1565b6040516104439190614962565b60405180910390f35b34801561045857600080fd5b506104616123b7565b60405161046e9190614a48565b60405180910390f35b34801561048357600080fd5b5061049e60048036038101906104999190614853565b6123db565b6040516104ab9190614962565b60405180910390f35b3480156104c057600080fd5b506104db60048036038101906104d691906140a7565b61240c565b6040516104e89190614013565b60405180910390f35b3480156104fd57600080fd5b506105066124a3565b6040516105139190614013565b60405180910390f35b34801561052857600080fd5b5061053161261a565b60405161053e9190614962565b60405180910390f35b34801561055357600080fd5b5061056e60048036038101906105699190614a63565b612620565b60405161057b9190614962565b60405180910390f35b34801561059057600080fd5b506105ab60048036038101906105a691906140a7565b612651565b6040516105b89190614afa565b60405180910390f35b3480156105cd57600080fd5b506105e860048036038101906105e3919061444f565b6127e9565b6040516105f59190614013565b60405180910390f35b34801561060a57600080fd5b506106256004803603810190610620919061444f565b612854565b60405161063b9a99989796959493929190614b93565b60405180910390f35b34801561065057600080fd5b5061066b600480360381019061066691906140a7565b6129e5565b60405161067a93929190614c3d565b60405180910390f35b34801561068f57600080fd5b506106aa60048036038101906106a59190614d68565b612b2c565b005b3480156106b857600080fd5b506106d360048036038101906106ce9190614e53565b612e1d565b005b3480156106e157600080fd5b506106fc60048036038101906106f7919061444f565b613256565b6040516107099190614962565b60405180910390f35b34801561071e57600080fd5b506107396004803603810190610734919061444f565b61326e565b6040516107469190614eaf565b60405180910390f35b34801561075b57600080fd5b506107766004803603810190610771919061444f565b61328e565b005b34801561078457600080fd5b5061079f600480360381019061079a919061444f565b6138c2565b6040516107ac9190614fba565b60405180910390f35b3480156107c157600080fd5b506107dc60048036038101906107d791906149a9565b613ae1565b005b3480156107ea57600080fd5b5061080560048036038101906108009190614a63565b613bf1565b6040516108129190614962565b60405180910390f35b34801561082757600080fd5b50610842600480360381019061083d9190614fdc565b613c22565b005b34801561085057600080fd5b50610859613cf7565b6040516108669190615038565b60405180910390f35b34801561087b57600080fd5b50610884613d1d565b6040516108919190614962565b60405180910390f35b3480156108a657600080fd5b506108af613d23565b6040516108bc9190615038565b60405180910390f35b3480156108d157600080fd5b506108ec60048036038101906108e7919061444f565b613d49565b6040516108f99190614962565b60405180910390f35b6060600060045467ffffffffffffffff811115610922576109216146b0565b5b6040519080825280602002602001820160405280156109505781602001602082028036833780820191505090505b509050600080600190505b6004548111610a18576000600281111561097857610977614b1c565b5b600c600083815260200190815260200160002060060160009054906101000a900460ff1660028111156109ae576109ad614b1c565b5b1480156109d15750600c6000828152602001908152602001600020600701544210155b15610a0557808383815181106109ea576109e9615053565b5b6020026020010181815250508180610a01906150b1565b9250505b8080610a10906150b1565b91505061095b565b5060008167ffffffffffffffff811115610a3557610a346146b0565b5b604051908082528060200260200182016040528015610a635781602001602082028036833780820191505090505b50905060005b82811015610ab857838181518110610a8457610a83615053565b5b6020026020010151828281518110610a9f57610a9e615053565b5b6020026020010181815250508080600101915050610a69565b5080935050505090565b60606000600960008473ffffffffffffffffffffffffffffffffffffffff1673ffffffffffffffffffffffffffffffffffffffff168152602001908152602001600020805480602002602001604051908101604052809291908181526020018280548015610b4f57602002820191906000526020600020905b815481526020019060010190808311610b3b575b505050505090506000815167ffffffffffffffff811115610b7357610b726146b0565b5b604051908082528060200260200182016040528015610bac57816020015b610b99613d66565b815260200190600190039081610b915790505b50905060005b8251811015610f585760086000848381518110610bd257610bd1615053565b5b6020026020010151815260200190815260200160002060405180610140016040529081600082018054610c0490615128565b80601f0160208091040260200160405190810160405280929190818152602001828054610c3090615128565b8015610c7d5780601f10610c5257610100808354040283529160200191610c7d565b820191906000526020600020905b815481529060010190602001808311610c6057829003601f168201915b50505050508152602001600182018054610c9690615128565b80601f0160208091040260200160405190810160405280929190818152602001828054610cc290615128565b8015610d0f5780601f10610ce457610100808354040283529160200191610d0f565b820191906000526020600020905b815481529060010190602001808311610cf257829003601f168201915b505050505081526020016002820160009054906101000a900473ffffffffffffffffffffffffffffffffffffffff1673ffffffffffffffffffffffffffffffffffffffff1673ffffffffffffffffffffffffffffffffffffffff1681526020016002820160149054906101000a900460ff161515151581526020016002820160159054906101000a900460ff161515151581526020016003820154815260200160048201805480602002602001604051908101604052809291908181526020016000905b82821015610e7f578382906000526020600020018054610df290615128565b80601f0160208091040260200160405190810160405280929190818152602001828054610e1e90615128565b8015610e6b5780601f10610e4057610100808354040283529160200191610e6b565b820191906000526020600020905b815481529060010190602001808311610e4e57829003601f168201915b505050505081526020019060010190610dd3565b505050508152602001600582018054610e9790615128565b80601f0160208091040260200160405190810160405280929190818152602001828054610ec390615128565b8015610f105780601f10610ee557610100808354040283529160200191610f10565b820191906000526020600020905b815481529060010190602001808311610ef357829003601f168201915b5050505050815260200160068201548152602001600782015481525050828281518110610f4057610f3f615053565b5b60200260200101819052508080600101915050610bb2565b508092505050919050565b610f6b613d66565b6008600083815260200190815260200160002060405180610140016040529081600082018054610f9a90615128565b80601f0160208091040260200160405190810160405280929190818152602001828054610fc690615128565b80156110135780601f10610fe857610100808354040283529160200191611013565b820191906000526020600020905b815481529060010190602001808311610ff657829003601f168201915b5050505050815260200160018201805461102c90615128565b80601f016020809104026020016040519081016040528092919081815260200182805461105890615128565b80156110a55780601f1061107a576101008083540402835291602001916110a5565b820191906000526020600020905b81548152906001019060200180831161108857829003601f168201915b505050505081526020016002820160009054906101000a900473ffffffffffffffffffffffffffffffffffffffff1673ffffffffffffffffffffffffffffffffffffffff1673ffffffffffffffffffffffffffffffffffffffff1681526020016002820160149054906101000a900460ff161515151581526020016002820160159054906101000a900460ff161515151581526020016003820154815260200160048201805480602002602001604051908101604052809291908181526020016000905b8282101561121557838290600052602060002001805461118890615128565b80601f01602080910402602001604051908101604052809291908181526020018280546111b490615128565b80156112015780601f106111d657610100808354040283529160200191611201565b820191906000526020600020905b8154815290600101906020018083116111e457829003601f168201915b505050505081526020019060010190611169565b50505050815260200160058201805461122d90615128565b80601f016020809104026020016040519081016040528092919081815260200182805461125990615128565b80156112a65780601f1061127b576101008083540402835291602001916112a6565b820191906000526020600020905b81548152906001019060200180831161128957829003601f168201915b50505050508152602001600682015481526020016007820154815250509050919050565b600160009054906101000a900473ffffffffffffffffffffffffffffffffffffffff1673ffffffffffffffffffffffffffffffffffffffff163373ffffffffffffffffffffffffffffffffffffffff161461135a576040517f08c379a0000000000000000000000000000000000000000000000000000000008152600401611351906151a5565b60405180910390fd5b6000600260009054906101000a900473ffffffffffffffffffffffffffffffffffffffff16905081600260006101000a81548173ffffffffffffffffffffffffffffffffffffffff021916908373ffffffffffffffffffffffffffffffffffffffff1602179055508173ffffffffffffffffffffffffffffffffffffffff168173ffffffffffffffffffffffffffffffffffffffff167fc9e7d530d582d3d5b6157650000f66e1c1e15182323ec64d987298660b77251e60405160405180910390a35050565b600860205280600052604060002060009150905080600001805461144390615128565b80601f016020809104026020016040519081016040528092919081815260200182805461146f90615128565b80156114bc5780601f10611491576101008083540402835291602001916114bc565b820191906000526020600020905b81548152906001019060200180831161149f57829003601f168201915b5050505050908060010180546114d190615128565b80601f01602080910402602001604051908101604052809291908181526020018280546114fd90615128565b801561154a5780601f1061151f5761010080835404028352916020019161154a565b820191906000526020600020905b81548152906001019060200180831161152d57829003601f168201915b5050505050908060020160009054906101000a900473ffffffffffffffffffffffffffffffffffffffff16908060020160149054906101000a900460ff16908060020160159054906101000a900460ff16908060030154908060050180546115b190615128565b80601f01602080910402602001604051908101604052809291908181526020018280546115dd90615128565b801561162a5780601f106115ff5761010080835404028352916020019161162a565b820191906000526020600020905b81548152906001019060200180831161160d57829003601f168201915b5050505050908060060154908060070154905089565b600760003373ffffffffffffffffffffffffffffffffffffffff1673ffffffffffffffffffffffffffffffffffffffff16815260200190815260200160002060020160009054906101000a900460ff16156116d0576040517f08c379a00000000000000000000000000000000000000000000000000000000081526004016116c790615211565b60405180910390fd5b6000825111611714576040517f08c379a000000000000000000000000000000000000000000000000000000000815260040161170b9061527d565b60405180910390fd5b604051806060016040528083815260200182815260200160011515815250600760003373ffffffffffffffffffffffffffffffffffffffff1673ffffffffffffffffffffffffffffffffffffffff1681526020019081526020016000206000820151816000019081611786919061543f565b50602082015181600101908161179c919061543f565b5060408201518160020160006101000a81548160ff0219169083151502179055509050503373ffffffffffffffffffffffffffffffffffffffff167f92822564bab8864c3a47b34e8d23fbce5c46234eb5da261f94087b995ac0f33b8383604051611808929190615511565b60405180910390a25050565b6060600060035467ffffffffffffffff811115611834576118336146b0565b5b6040519080825280602002602001820160405280156118625781602001602082028036833780820191505090505b509050600080600190505b600354811161190d576008600082815260200190815260200160002060020160149054906101000a900460ff1680156118c657506008600082815260200190815260200160002060020160159054906101000a900460ff165b156118fa57808383815181106118df576118de615053565b5b60200260200101818152505081806118f6906150b1565b9250505b8080611905906150b1565b91505061186d565b5060008167ffffffffffffffff81111561192a576119296146b0565b5b6040519080825280602002602001820160405280156119585781602001602082028036833780820191505090505b50905060005b828110156119ad5783818151811061197957611978615053565b5b602002602001015182828151811061199457611993615053565b5b602002602001018181525050808060010191505061195e565b5080935050505090565b813373ffffffffffffffffffffffffffffffffffffffff166008600083815260200190815260200160002060020160009054906101000a900473ffffffffffffffffffffffffffffffffffffffff1673ffffffffffffffffffffffffffffffffffffffff1614611a5c576040517f08c379a0000000000000000000000000000000000000000000000000000000008152600401611a5390615594565b60405180910390fd5b60008211611a9f576040517f08c379a0000000000000000000000000000000000000000000000000000000008152600401611a9690615600565b60405180910390fd5b816008600085815260200190815260200160002060030181905550827f43906d8f4c58ab6e431478557af705438610b39d3ca659c00d9450b0fac19f9d83604051611aea9190614962565b60405180910390a2505050565b33600760008273ffffffffffffffffffffffffffffffffffffffff1673ffffffffffffffffffffffffffffffffffffffff16815260200190815260200160002060020160009054906101000a900460ff16611b87576040517f08c379a0000000000000000000000000000000000000000000000000000000008152600401611b7e9061566c565b60405180910390fd5b6008600087815260200190815260200160002060020160149054906101000a900460ff16611bea576040517f08c379a0000000000000000000000000000000000000000000000000000000008152600401611be1906156d8565b60405180910390fd5b6008600087815260200190815260200160002060020160159054906101000a900460ff16611c4d576040517f08c379a0000000000000000000000000000000000000000000000000000000008152600401611c449061576a565b60405180910390fd5b60008411611c90576040517f08c379a0000000000000000000000000000000000000000000000000000000008152600401611c87906157d6565b60405180910390fd5b6000825111611cd4576040517f08c379a0000000000000000000000000000000000000000000000000000000008152600401611ccb90615842565b60405180910390fd5b6000846008600089815260200190815260200160002060030154611cf89190615862565b90508060008054906101000a900473ffffffffffffffffffffffffffffffffffffffff1673ffffffffffffffffffffffffffffffffffffffff166370a08231336040518263ffffffff1660e01b8152600401611d549190615038565b602060405180830381865afa158015611d71573d6000803e3d6000fd5b505050506040513d601f19601f82011682018060405250810190611d9591906158b9565b1015611dd6576040517f08c379a0000000000000000000000000000000000000000000000000000000008152600401611dcd90615932565b60405180910390fd5b60008054906101000a900473ffffffffffffffffffffffffffffffffffffffff1673ffffffffffffffffffffffffffffffffffffffff166323b872dd3330846040518463ffffffff1660e01b8152600401611e3393929190615952565b6020604051808303816000875af1158015611e52573d6000803e3d6000fd5b505050506040513d601f19601f82011682018060405250810190611e76919061599e565b611eb5576040517f08c379a0000000000000000000000000000000000000000000000000000000008152600401611eac90615a17565b60405180910390fd5b6000600460008154611ec6906150b1565b91905081905590506040518061014001604052808281526020013373ffffffffffffffffffffffffffffffffffffffff16815260200189815260200183815260200142815260200185815260200160006002811115611f2857611f27614b1c565b5b8152602001610e1088611f3b9190615862565b42611f469190615a37565b815260200187815260200186815250600c60008381526020019081526020016000206000820151816000015560208201518160010160006101000a81548173ffffffffffffffffffffffffffffffffffffffff021916908373ffffffffffffffffffffffffffffffffffffffff16021790555060408201518160020155606082015181600301556080820151816004015560a0820151816005019081611fec919061543f565b5060c08201518160060160006101000a81548160ff0219169083600281111561201857612017614b1c565b5b021790555060e082015181600701556101008201518160080155610120820151816009019081612048919061543f565b5090505081600d600083815260200190815260200160002081905550600a6000898152602001908152602001600020819080600181540180825580915050600190039060005260206000200160009091909190915055600b60003373ffffffffffffffffffffffffffffffffffffffff1673ffffffffffffffffffffffffffffffffffffffff16815260200190815260200160002081908060018154018082558091505060019003906000526020600020016000909190919091505560086000898152602001908152602001600020600601600081548092919061212b906150b1565b91905055506000600860008a815260200190815260200160002060020160156101000a81548160ff021916908315150217905550873373ffffffffffffffffffffffffffffffffffffffff16827fcfbbec2971098ff70cd66aa56048d46bdaca6bcfad3231164f23416c323fb62e8a866040516121a9929190615a6b565b60405180910390a46008600089815260200190815260200160002060020160009054906101000a900473ffffffffffffffffffffffffffffffffffffffff1673ffffffffffffffffffffffffffffffffffffffff16817fb7b620164792660fedf119f0852d9ab61696a836cc986d988af14d2a5a46002c60405160405180910390a3807f47bcc645b6943f52356a519ca40878cc505371af5b73b2457595edfe969e1ae660405160405180910390a2877f31bf9276bfbeeb0264279506da13ffbd75afa6ed8d082ebf3e0e8612c0b1586660006040516122899190614eaf565b60405180910390a25050505050505050565b60045481565b813373ffffffffffffffffffffffffffffffffffffffff166008600083815260200190815260200160002060020160009054906101000a900473ffffffffffffffffffffffffffffffffffffffff1673ffffffffffffffffffffffffffffffffffffffff1614612346576040517f08c379a000000000000000000000000000000000000000000000000000000000815260040161233d90615594565b60405180910390fd5b816008600085815260200190815260200160002060020160156101000a81548160ff021916908315150217905550827f31bf9276bfbeeb0264279506da13ffbd75afa6ed8d082ebf3e0e8612c0b15866836040516123a49190614eaf565b60405180910390a2505050565b60055481565b60008054906101000a900473ffffffffffffffffffffffffffffffffffffffff1681565b600a60205281600052604060002081815481106123f757600080fd5b90600052602060002001600091509150505481565b6060600b60008373ffffffffffffffffffffffffffffffffffffffff1673ffffffffffffffffffffffffffffffffffffffff16815260200190815260200160002080548060200260200160405190810160405280929190818152602001828054801561249757602002820191906000526020600020905b815481526020019060010190808311612483575b50505050509050919050565b6060600060035467ffffffffffffffff8111156124c3576124c26146b0565b5b6040519080825280602002602001820160405280156124f15781602001602082028036833780820191505090505b509050600080600190505b6003548111612570576008600082815260200190815260200160002060020160149054906101000a900460ff161561255d578083838151811061254257612541615053565b5b6020026020010181815250508180612559906150b1565b9250505b8080612568906150b1565b9150506124fc565b5060008167ffffffffffffffff81111561258d5761258c6146b0565b5b6040519080825280602002602001820160405280156125bb5781602001602082028036833780820191505090505b50905060005b82811015612610578381815181106125dc576125db615053565b5b60200260200101518282815181106125f7576125f6615053565b5b60200260200101818152505080806001019150506125c1565b5080935050505090565b60065481565b600b602052816000526040600020818154811061263c57600080fd5b90600052602060002001600091509150505481565b612659613dd3565b600760008373ffffffffffffffffffffffffffffffffffffffff1673ffffffffffffffffffffffffffffffffffffffff1681526020019081526020016000206040518060600160405290816000820180546126b390615128565b80601f01602080910402602001604051908101604052809291908181526020018280546126df90615128565b801561272c5780601f106127015761010080835404028352916020019161272c565b820191906000526020600020905b81548152906001019060200180831161270f57829003601f168201915b5050505050815260200160018201805461274590615128565b80601f016020809104026020016040519081016040528092919081815260200182805461277190615128565b80156127be5780601f10612793576101008083540402835291602001916127be565b820191906000526020600020905b8154815290600101906020018083116127a157829003601f168201915b505050505081526020016002820160009054906101000a900460ff1615151515815250509050919050565b6060600a600083815260200190815260200160002080548060200260200160405190810160405280929190818152602001828054801561284857602002820191906000526020600020905b815481526020019060010190808311612834575b50505050509050919050565b600c6020528060005260406000206000915090508060000154908060010160009054906101000a900473ffffffffffffffffffffffffffffffffffffffff16908060020154908060030154908060040154908060050180546128b590615128565b80601f01602080910402602001604051908101604052809291908181526020018280546128e190615128565b801561292e5780601f106129035761010080835404028352916020019161292e565b820191906000526020600020905b81548152906001019060200180831161291157829003601f168201915b5050505050908060060160009054906101000a900460ff169080600701549080600801549080600901805461296290615128565b80601f016020809104026020016040519081016040528092919081815260200182805461298e90615128565b80156129db5780601f106129b0576101008083540402835291602001916129db565b820191906000526020600020905b8154815290600101906020018083116129be57829003601f168201915b505050505090508a565b6007602052806000526040600020600091509050806000018054612a0890615128565b80601f0160208091040260200160405190810160405280929190818152602001828054612a3490615128565b8015612a815780601f10612a5657610100808354040283529160200191612a81565b820191906000526020600020905b815481529060010190602001808311612a6457829003601f168201915b505050505090806001018054612a9690615128565b80601f0160208091040260200160405190810160405280929190818152602001828054612ac290615128565b8015612b0f5780601f10612ae457610100808354040283529160200191612b0f565b820191906000526020600020905b815481529060010190602001808311612af257829003601f168201915b5050505050908060020160009054906101000a900460ff16905083565b33600760008273ffffffffffffffffffffffffffffffffffffffff1673ffffffffffffffffffffffffffffffffffffffff16815260200190815260200160002060020160009054906101000a900460ff16612bbc576040517f08c379a0000000000000000000000000000000000000000000000000000000008152600401612bb39061566c565b60405180910390fd5b6000865111612c00576040517f08c379a0000000000000000000000000000000000000000000000000000000008152600401612bf790615ae7565b60405180910390fd5b60008411612c43576040517f08c379a0000000000000000000000000000000000000000000000000000000008152600401612c3a90615600565b60405180910390fd5b6000600360008154612c54906150b1565b9190508190559050600060086000838152602001908152602001600020905087816000019081612c84919061543f565b5086816001019081612c96919061543f565b50338160020160006101000a81548173ffffffffffffffffffffffffffffffffffffffff021916908373ffffffffffffffffffffffffffffffffffffffff16021790555060018160020160146101000a81548160ff02191690831515021790555060018160020160156101000a81548160ff02191690831515021790555085816003018190555084816004019080519060200190612d35929190613df6565b5083816005019081612d47919061543f565b506000816006018190555060008160070181905550600960003373ffffffffffffffffffffffffffffffffffffffff1673ffffffffffffffffffffffffffffffffffffffff1681526020019081526020016000208290806001815401808255809150506001900390600052602060002001600090919091909150553373ffffffffffffffffffffffffffffffffffffffff16827f4249929f0f688701e8330582f47182dce84e7842e59a08ad806666fc1a5355378a8a604051612e0b929190615511565b60405180910390a35050505050505050565b813373ffffffffffffffffffffffffffffffffffffffff16600c600083815260200190815260200160002060010160009054906101000a900473ffffffffffffffffffffffffffffffffffffffff1673ffffffffffffffffffffffffffffffffffffffff161480612f0557503373ffffffffffffffffffffffffffffffffffffffff1660086000600c600085815260200190815260200160002060020154815260200190815260200160002060020160009054906101000a900473ffffffffffffffffffffffffffffffffffffffff1673ffffffffffffffffffffffffffffffffffffffff16145b612f44576040517f08c379a0000000000000000000000000000000000000000000000000000000008152600401612f3b90615b53565b60405180910390fd5b6000600c600085815260200190815260200160002060060160009054906101000a900460ff16905060006002811115612f8057612f7f614b1c565b5b816002811115612f9357612f92614b1c565b5b14612fd3576040517f08c379a0000000000000000000000000000000000000000000000000000000008152600401612fca90615be5565b60405180910390fd5b6002600c600086815260200190815260200160002060060160006101000a81548160ff0219169083600281111561300d5761300c614b1c565b5b02179055506000600281111561302657613025614b1c565b5b81600281111561303957613038614b1c565b5b036130d357600160086000600c600088815260200190815260200160002060020154815260200190815260200160002060020160156101000a81548160ff021916908315150217905550600c6000858152602001908152602001600020600201547f31bf9276bfbeeb0264279506da13ffbd75afa6ed8d082ebf3e0e8612c0b1586660016040516130ca9190614eaf565b60405180910390a25b6000600d60008681526020019081526020016000205490506000600d60008781526020019081526020016000208190555060008054906101000a900473ffffffffffffffffffffffffffffffffffffffff1673ffffffffffffffffffffffffffffffffffffffff1663a9059cbb600c600088815260200190815260200160002060010160009054906101000a900473ffffffffffffffffffffffffffffffffffffffff16836040518363ffffffff1660e01b8152600401613195929190615c05565b6020604051808303816000875af11580156131b4573d6000803e3d6000fd5b505050506040513d601f19601f820116820180604052508101906131d8919061599e565b613217576040517f08c379a000000000000000000000000000000000000000000000000000000000815260040161320e90615c7a565b60405180910390fd5b847f56d64c06f67a0a2c80b38a9cd2b031e911c22a2c176bea4219adc7f5e3366a92856040516132479190615c9a565b60405180910390a25050505050565b600d6020528060005260406000206000915090505481565b600e6020528060005260406000206000915054906101000a900460ff1681565b600260009054906101000a900473ffffffffffffffffffffffffffffffffffffffff1673ffffffffffffffffffffffffffffffffffffffff163373ffffffffffffffffffffffffffffffffffffffff161461331e576040517f08c379a000000000000000000000000000000000000000000000000000000000815260040161331590615d08565b60405180910390fd5b80600080600281111561333457613333614b1c565b5b600c600084815260200190815260200160002060060160009054906101000a900460ff16600281111561336a57613369614b1c565b5b146133aa576040517f08c379a00000000000000000000000000000000000000000000000000000000081526004016133a190615d74565b60405180910390fd5b6000600c600085815260200190815260200160002090508060070154421015613408576040517f08c379a00000000000000000000000000000000000000000000000000000000081526004016133ff90615de0565b60405180910390fd5b60018160060160006101000a81548160ff021916908360028111156134305761342f614b1c565b5b0217905550600081600201549050600860008281526020019081526020016000206007016000815480929190613465906150b1565b91905055506000600d600087815260200190815260200160002054905060006064600554836134949190615862565b61349e9190615e2f565b9050600081836134ae9190615e60565b90506000600d60008a81526020019081526020016000208190555060008211156135d25760008054906101000a900473ffffffffffffffffffffffffffffffffffffffff1673ffffffffffffffffffffffffffffffffffffffff1663a9059cbb600260009054906101000a900473ffffffffffffffffffffffffffffffffffffffff16846040518363ffffffff1660e01b815260040161354f929190615c05565b6020604051808303816000875af115801561356e573d6000803e3d6000fd5b505050506040513d601f19601f82011682018060405250810190613592919061599e565b6135d1576040517f08c379a00000000000000000000000000000000000000000000000000000000081526004016135c890615ee0565b60405180910390fd5b5b60008054906101000a900473ffffffffffffffffffffffffffffffffffffffff1673ffffffffffffffffffffffffffffffffffffffff1663a9059cbb6008600087815260200190815260200160002060020160009054906101000a900473ffffffffffffffffffffffffffffffffffffffff16836040518363ffffffff1660e01b8152600401613663929190615c05565b6020604051808303816000875af1158015613682573d6000803e3d6000fd5b505050506040513d601f19601f820116820180604052508101906136a6919061599e565b6136e5576040517f08c379a00000000000000000000000000000000000000000000000000000000081526004016136dc90615f4c565b60405180910390fd5b600654471061375a57600260009054906101000a900473ffffffffffffffffffffffffffffffffffffffff1673ffffffffffffffffffffffffffffffffffffffff166108fc6006549081150290604051600060405180830381858888f19350505050158015613758573d6000803e3d6000fd5b505b60016008600086815260200190815260200160002060020160156101000a81548160ff021916908315150217905550600260009054906101000a900473ffffffffffffffffffffffffffffffffffffffff1673ffffffffffffffffffffffffffffffffffffffff16887f2a08a3f5f5fb5be26ad2f474b5b872881ff778103ab2d960d78b3c4a7eee1923846040516137f29190614962565b60405180910390a36008600085815260200190815260200160002060020160009054906101000a900473ffffffffffffffffffffffffffffffffffffffff1673ffffffffffffffffffffffffffffffffffffffff16887f21d71db5be59bb9fa133895586b7404307dd33fb93b16db09dc6f1d9d7d231b0836040516138779190614962565b60405180910390a3837f31bf9276bfbeeb0264279506da13ffbd75afa6ed8d082ebf3e0e8612c0b1586660016040516138b09190614eaf565b60405180910390a25050505050505050565b6138ca613e4f565b600c600083815260200190815260200160002060405180610140016040529081600082015481526020016001820160009054906101000a900473ffffffffffffffffffffffffffffffffffffffff1673ffffffffffffffffffffffffffffffffffffffff1673ffffffffffffffffffffffffffffffffffffffff16815260200160028201548152602001600382015481526020016004820154815260200160058201805461397790615128565b80601f01602080910402602001604051908101604052809291908181526020018280546139a390615128565b80156139f05780601f106139c5576101008083540402835291602001916139f0565b820191906000526020600020905b8154815290600101906020018083116139d357829003601f168201915b505050505081526020016006820160009054906101000a900460ff166002811115613a1e57613a1d614b1c565b5b6002811115613a3057613a2f614b1c565b5b81526020016007820154815260200160088201548152602001600982018054613a5890615128565b80601f0160208091040260200160405190810160405280929190818152602001828054613a8490615128565b8015613ad15780601f10613aa657610100808354040283529160200191613ad1565b820191906000526020600020905b815481529060010190602001808311613ab457829003601f168201915b5050505050815250509050919050565b813373ffffffffffffffffffffffffffffffffffffffff166008600083815260200190815260200160002060020160009054906101000a900473ffffffffffffffffffffffffffffffffffffffff1673ffffffffffffffffffffffffffffffffffffffff1614613b86576040517f08c379a0000000000000000000000000000000000000000000000000000000008152600401613b7d90615594565b60405180910390fd5b816008600085815260200190815260200160002060020160146101000a81548160ff021916908315150217905550827f5e973c889ee216f2a77725af957b9e59773d22adc2f5858803c7b794cba64d5783604051613be49190614eaf565b60405180910390a2505050565b60096020528160005260406000208181548110613c0d57600080fd5b90600052602060002001600091509150505481565b813373ffffffffffffffffffffffffffffffffffffffff166008600083815260200190815260200160002060020160009054906101000a900473ffffffffffffffffffffffffffffffffffffffff1673ffffffffffffffffffffffffffffffffffffffff1614613cc7576040517f08c379a0000000000000000000000000000000000000000000000000000000008152600401613cbe90615594565b60405180910390fd5b81600860008581526020019081526020016000206004019080519060200190613cf1929190613df6565b50505050565b600260009054906101000a900473ffffffffffffffffffffffffffffffffffffffff1681565b60035481565b600160009054906101000a900473ffffffffffffffffffffffffffffffffffffffff1681565b6000600d6000838152602001908152602001600020549050919050565b6040518061014001604052806060815260200160608152602001600073ffffffffffffffffffffffffffffffffffffffff16815260200160001515815260200160001515815260200160008152602001606081526020016060815260200160008152602001600081525090565b604051806060016040528060608152602001606081526020016000151581525090565b828054828255906000526020600020908101928215613e3e579160200282015b82811115613e3d578251829081613e2d919061543f565b5091602001919060010190613e16565b5b509050613e4b9190613eca565b5090565b60405180610140016040528060008152602001600073ffffffffffffffffffffffffffffffffffffffff1681526020016000815260200160008152602001600081526020016060815260200160006002811115613eaf57613eae614b1c565b5b81526020016000815260200160008152602001606081525090565b5b80821115613eea5760008181613ee19190613eee565b50600101613ecb565b5090565b508054613efa90615128565b6000825580601f10613f0c5750613f2b565b601f016020900490600052602060002090810190613f2a9190613f2e565b5b50565b5b80821115613f47576000816000905550600101613f2f565b5090565b600081519050919050565b600082825260208201905092915050565b6000819050602082019050919050565b6000819050919050565b613f8a81613f77565b82525050565b6000613f9c8383613f81565b60208301905092915050565b6000602082019050919050565b6000613fc082613f4b565b613fca8185613f56565b9350613fd583613f67565b8060005b83811015614006578151613fed8882613f90565b9750613ff883613fa8565b925050600181019050613fd9565b5085935050505092915050565b6000602082019050818103600083015261402d8184613fb5565b905092915050565b6000604051905090565b600080fd5b600080fd5b600073ffffffffffffffffffffffffffffffffffffffff82169050919050565b600061407482614049565b9050919050565b61408481614069565b811461408f57600080fd5b50565b6000813590506140a18161407b565b92915050565b6000602082840312156140bd576140bc61403f565b5b60006140cb84828501614092565b91505092915050565b600081519050919050565b600082825260208201905092915050565b6000819050602082019050919050565b600081519050919050565b600082825260208201905092915050565b60005b8381101561413a57808201518184015260208101905061411f565b60008484015250505050565b6000601f19601f8301169050919050565b600061416282614100565b61416c818561410b565b935061417c81856020860161411c565b61418581614146565b840191505092915050565b61419981614069565b82525050565b60008115159050919050565b6141b48161419f565b82525050565b600081519050919050565b600082825260208201905092915050565b6000819050602082019050919050565b60006141f28383614157565b905092915050565b6000602082019050919050565b6000614212826141ba565b61421c81856141c5565b93508360208202850161422e856141d6565b8060005b8581101561426a578484038952815161424b85826141e6565b9450614256836141fa565b925060208a01995050600181019050614232565b50829750879550505050505092915050565b600061014083016000830151848203600086015261429a8282614157565b915050602083015184820360208601526142b48282614157565b91505060408301516142c96040860182614190565b5060608301516142dc60608601826141ab565b5060808301516142ef60808601826141ab565b5060a083015161430260a0860182613f81565b5060c083015184820360c086015261431a8282614207565b91505060e083015184820360e08601526143348282614157565b91505061010083015161434b610100860182613f81565b50610120830151614360610120860182613f81565b508091505092915050565b6000614377838361427c565b905092915050565b6000602082019050919050565b6000614397826140d4565b6143a181856140df565b9350836020820285016143b3856140f0565b8060005b858110156143ef57848403895281516143d0858261436b565b94506143db8361437f565b925060208a019950506001810190506143b7565b50829750879550505050505092915050565b6000602082019050818103600083015261441b818461438c565b905092915050565b61442c81613f77565b811461443757600080fd5b50565b60008135905061444981614423565b92915050565b6000602082840312156144655761446461403f565b5b60006144738482850161443a565b91505092915050565b600061014083016000830151848203600086015261449a8282614157565b915050602083015184820360208601526144b48282614157565b91505060408301516144c96040860182614190565b5060608301516144dc60608601826141ab565b5060808301516144ef60808601826141ab565b5060a083015161450260a0860182613f81565b5060c083015184820360c086015261451a8282614207565b91505060e083015184820360e08601526145348282614157565b91505061010083015161454b610100860182613f81565b50610120830151614560610120860182613f81565b508091505092915050565b60006020820190508181036000830152614585818461447c565b905092915050565b600082825260208201905092915050565b60006145a982614100565b6145b3818561458d565b93506145c381856020860161411c565b6145cc81614146565b840191505092915050565b6145e081614069565b82525050565b6145ef8161419f565b82525050565b6145fe81613f77565b82525050565b600061012082019050818103600083015261461f818c61459e565b90508181036020830152614633818b61459e565b9050614642604083018a6145d7565b61464f60608301896145e6565b61465c60808301886145e6565b61466960a08301876145f5565b81810360c083015261467b818661459e565b905061468a60e08301856145f5565b6146986101008301846145f5565b9a9950505050505050505050565b600080fd5b600080fd5b7f4e487b7100000000000000000000000000000000000000000000000000000000600052604160045260246000fd5b6146e882614146565b810181811067ffffffffffffffff82111715614707576147066146b0565b5b80604052505050565b600061471a614035565b905061472682826146df565b919050565b600067ffffffffffffffff821115614746576147456146b0565b5b61474f82614146565b9050602081019050919050565b82818337600083830152505050565b600061477e6147798461472b565b614710565b90508281526020810184848401111561479a576147996146ab565b5b6147a584828561475c565b509392505050565b600082601f8301126147c2576147c16146a6565b5b81356147d284826020860161476b565b91505092915050565b600080604083850312156147f2576147f161403f565b5b600083013567ffffffffffffffff8111156148105761480f614044565b5b61481c858286016147ad565b925050602083013567ffffffffffffffff81111561483d5761483c614044565b5b614849858286016147ad565b9150509250929050565b6000806040838503121561486a5761486961403f565b5b60006148788582860161443a565b92505060206148898582860161443a565b9150509250929050565b600080600080600060a086880312156148af576148ae61403f565b5b60006148bd8882890161443a565b955050602086013567ffffffffffffffff8111156148de576148dd614044565b5b6148ea888289016147ad565b94505060406148fb8882890161443a565b935050606086013567ffffffffffffffff81111561491c5761491b614044565b5b614928888289016147ad565b925050608086013567ffffffffffffffff81111561494957614948614044565b5b614955888289016147ad565b9150509295509295909350565b600060208201905061497760008301846145f5565b92915050565b6149868161419f565b811461499157600080fd5b50565b6000813590506149a38161497d565b92915050565b600080604083850312156149c0576149bf61403f565b5b60006149ce8582860161443a565b92505060206149df85828601614994565b9150509250929050565b6000819050919050565b6000614a0e614a09614a0484614049565b6149e9565b614049565b9050919050565b6000614a20826149f3565b9050919050565b6000614a3282614a15565b9050919050565b614a4281614a27565b82525050565b6000602082019050614a5d6000830184614a39565b92915050565b60008060408385031215614a7a57614a7961403f565b5b6000614a8885828601614092565b9250506020614a998582860161443a565b9150509250929050565b60006060830160008301518482036000860152614ac08282614157565b91505060208301518482036020860152614ada8282614157565b9150506040830151614aef60408601826141ab565b508091505092915050565b60006020820190508181036000830152614b148184614aa3565b905092915050565b7f4e487b7100000000000000000000000000000000000000000000000000000000600052602160045260246000fd5b60038110614b5c57614b5b614b1c565b5b50565b6000819050614b6d82614b4b565b919050565b6000614b7d82614b5f565b9050919050565b614b8d81614b72565b82525050565b600061014082019050614ba9600083018d6145f5565b614bb6602083018c6145d7565b614bc3604083018b6145f5565b614bd0606083018a6145f5565b614bdd60808301896145f5565b81810360a0830152614bef818861459e565b9050614bfe60c0830187614b84565b614c0b60e08301866145f5565b614c196101008301856145f5565b818103610120830152614c2c818461459e565b90509b9a5050505050505050505050565b60006060820190508181036000830152614c57818661459e565b90508181036020830152614c6b818561459e565b9050614c7a60408301846145e6565b949350505050565b600067ffffffffffffffff821115614c9d57614c9c6146b0565b5b602082029050602081019050919050565b600080fd5b6000614cc6614cc184614c82565b614710565b90508083825260208201905060208402830185811115614ce957614ce8614cae565b5b835b81811015614d3057803567ffffffffffffffff811115614d0e57614d0d6146a6565b5b808601614d1b89826147ad565b85526020850194505050602081019050614ceb565b5050509392505050565b600082601f830112614d4f57614d4e6146a6565b5b8135614d5f848260208601614cb3565b91505092915050565b600080600080600060a08688031215614d8457614d8361403f565b5b600086013567ffffffffffffffff811115614da257614da1614044565b5b614dae888289016147ad565b955050602086013567ffffffffffffffff811115614dcf57614dce614044565b5b614ddb888289016147ad565b9450506040614dec8882890161443a565b935050606086013567ffffffffffffffff811115614e0d57614e0c614044565b5b614e1988828901614d3a565b925050608086013567ffffffffffffffff811115614e3a57614e39614044565b5b614e46888289016147ad565b9150509295509295909350565b60008060408385031215614e6a57614e6961403f565b5b6000614e788582860161443a565b925050602083013567ffffffffffffffff811115614e9957614e98614044565b5b614ea5858286016147ad565b9150509250929050565b6000602082019050614ec460008301846145e6565b92915050565b614ed381614b72565b82525050565b600061014083016000830151614ef26000860182613f81565b506020830151614f056020860182614190565b506040830151614f186040860182613f81565b506060830151614f2b6060860182613f81565b506080830151614f3e6080860182613f81565b5060a083015184820360a0860152614f568282614157565b91505060c0830151614f6b60c0860182614eca565b5060e0830151614f7e60e0860182613f81565b50610100830151614f93610100860182613f81565b50610120830151848203610120860152614fad8282614157565b9150508091505092915050565b60006020820190508181036000830152614fd48184614ed9565b905092915050565b60008060408385031215614ff357614ff261403f565b5b60006150018582860161443a565b925050602083013567ffffffffffffffff81111561502257615021614044565b5b61502e85828601614d3a565b9150509250929050565b600060208201905061504d60008301846145d7565b92915050565b7f4e487b7100000000000000000000000000000000000000000000000000000000600052603260045260246000fd5b7f4e487b7100000000000000000000000000000000000000000000000000000000600052601160045260246000fd5b60006150bc82613f77565b91507fffffffffffffffffffffffffffffffffffffffffffffffffffffffffffffffff82036150ee576150ed615082565b5b600182019050919050565b7f4e487b7100000000000000000000000000000000000000000000000000000000600052602260045260246000fd5b6000600282049050600182168061514057607f821691505b602082108103615153576151526150f9565b5b50919050565b7f4f6e6c792061646d696e00000000000000000000000000000000000000000000600082015250565b600061518f600a8361458d565b915061519a82615159565b602082019050919050565b600060208201905081810360008301526151be81615182565b9050919050565b7f416c726561647920726567697374657265640000000000000000000000000000600082015250565b60006151fb60128361458d565b9150615206826151c5565b602082019050919050565b6000602082019050818103600083015261522a816151ee565b9050919050565b7f557365726e616d652063616e6e6f7420626520656d7074790000000000000000600082015250565b600061526760188361458d565b915061527282615231565b602082019050919050565b600060208201905081810360008301526152968161525a565b9050919050565b60008190508160005260206000209050919050565b60006020601f8301049050919050565b600082821b905092915050565b6000600883026152ff7fffffffffffffffffffffffffffffffffffffffffffffffffffffffffffffffff826152c2565b61530986836152c2565b95508019841693508086168417925050509392505050565b600061533c61533761533284613f77565b6149e9565b613f77565b9050919050565b6000819050919050565b61535683615321565b61536a61536282615343565b8484546152cf565b825550505050565b600090565b61537f615372565b61538a81848461534d565b505050565b5b818110156153ae576153a3600082615377565b600181019050615390565b5050565b601f8211156153f3576153c48161529d565b6153cd846152b2565b810160208510156153dc578190505b6153f06153e8856152b2565b83018261538f565b50505b505050565b600082821c905092915050565b6000615416600019846008026153f8565b1980831691505092915050565b600061542f8383615405565b9150826002028217905092915050565b61544882614100565b67ffffffffffffffff811115615461576154606146b0565b5b61546b8254615128565b6154768282856153b2565b600060209050601f8311600181146154a95760008415615497578287015190505b6154a18582615423565b865550615509565b601f1984166154b78661529d565b60005b828110156154df578489015182556001820191506020850194506020810190506154ba565b868310156154fc57848901516154f8601f891682615405565b8355505b6001600288020188555050505b505050505050565b6000604082019050818103600083015261552b818561459e565b9050818103602083015261553f818461459e565b90509392505050565b7f4e6f7420646576696365206f776e657200000000000000000000000000000000600082015250565b600061557e60108361458d565b915061558982615548565b602082019050919050565b600060208201905081810360008301526155ad81615571565b9050919050565b7f5072696365206d7573742062652067726561746572207468616e203000000000600082015250565b60006155ea601c8361458d565b91506155f5826155b4565b602082019050919050565b60006020820190508181036000830152615619816155dd565b9050919050565b7f55736572206e6f74207265676973746572656400000000000000000000000000600082015250565b600061565660138361458d565b915061566182615620565b602082019050919050565b6000602082019050818103600083015261568581615649565b9050919050565b7f446576696365206973206e6f7420616374697665000000000000000000000000600082015250565b60006156c260148361458d565b91506156cd8261568c565b602082019050919050565b600060208201905081810360008301526156f1816156b5565b9050919050565b7f446576696365206973206e6f7420726561647920746f20616363657074206f7260008201527f6465727300000000000000000000000000000000000000000000000000000000602082015250565b600061575460248361458d565b915061575f826156f8565b604082019050919050565b6000602082019050818103600083015261578381615747565b9050919050565b7f4475726174696f6e206d7573742062652067726561746572207468616e203000600082015250565b60006157c0601f8361458d565b91506157cb8261578a565b602082019050919050565b600060208201905081810360008301526157ef816157b3565b9050919050565b7f5075626c6963206b65792063616e6e6f7420626520656d707479000000000000600082015250565b600061582c601a8361458d565b9150615837826157f6565b602082019050919050565b6000602082019050818103600083015261585b8161581f565b9050919050565b600061586d82613f77565b915061587883613f77565b925082820261588681613f77565b9150828204841483151761589d5761589c615082565b5b5092915050565b6000815190506158b381614423565b92915050565b6000602082840312156158cf576158ce61403f565b5b60006158dd848285016158a4565b91505092915050565b7f496e73756666696369656e7420746f6b656e2062616c616e6365000000000000600082015250565b600061591c601a8361458d565b9150615927826158e6565b602082019050919050565b6000602082019050818103600083015261594b8161590f565b9050919050565b600060608201905061596760008301866145d7565b61597460208301856145d7565b61598160408301846145f5565b949350505050565b6000815190506159988161497d565b92915050565b6000602082840312156159b4576159b361403f565b5b60006159c284828501615989565b91505092915050565b7f546f6b656e207472616e73666572206661696c65640000000000000000000000600082015250565b6000615a0160158361458d565b9150615a0c826159cb565b602082019050919050565b60006020820190508181036000830152615a30816159f4565b9050919050565b6000615a4282613f77565b9150615a4d83613f77565b9250828201905080821115615a6557615a64615082565b5b92915050565b60006040820190508181036000830152615a85818561459e565b9050615a9460208301846145f5565b9392505050565b7f446576696365206e616d652063616e6e6f7420626520656d7074790000000000600082015250565b6000615ad1601b8361458d565b9150615adc82615a9b565b602082019050919050565b60006020820190508181036000830152615b0081615ac4565b9050919050565b7f4e6f74206f72646572207061727469636970616e740000000000000000000000600082015250565b6000615b3d60158361458d565b9150615b4882615b07565b602082019050919050565b60006020820190508181036000830152615b6c81615b30565b9050919050565b7f43616e6e6f742063616e63656c206f7264657220696e2063757272656e74207360008201527f7461747573000000000000000000000000000000000000000000000000000000602082015250565b6000615bcf60258361458d565b9150615bda82615b73565b604082019050919050565b60006020820190508181036000830152615bfe81615bc2565b9050919050565b6000604082019050615c1a60008301856145d7565b615c2760208301846145f5565b9392505050565b7f526566756e64206661696c656400000000000000000000000000000000000000600082015250565b6000615c64600d8361458d565b9150615c6f82615c2e565b602082019050919050565b60006020820190508181036000830152615c9381615c57565b9050919050565b60006020820190508181036000830152615cb4818461459e565b905092915050565b7f4f6e6c79206175746f6d6174696f6e20626f7400000000000000000000000000600082015250565b6000615cf260138361458d565b9150615cfd82615cbc565b602082019050919050565b60006020820190508181036000830152615d2181615ce5565b9050919050565b7f496e76616c6964206f7264657220737461747573000000000000000000000000600082015250565b6000615d5e60148361458d565b9150615d6982615d28565b602082019050919050565b60006020820190508181036000830152615d8d81615d51565b9050919050565b7f4f72646572206e6f742079657420657870697265640000000000000000000000600082015250565b6000615dca60158361458d565b9150615dd582615d94565b602082019050919050565b60006020820190508181036000830152615df981615dbd565b9050919050565b7f4e487b7100000000000000000000000000000000000000000000000000000000600052601260045260246000fd5b6000615e3a82613f77565b9150615e4583613f77565b925082615e5557615e54615e00565b5b828204905092915050565b6000615e6b82613f77565b9150615e7683613f77565b9250828203905081811115615e8e57615e8d615082565b5b92915050565b7f426f7420726577617264207472616e73666572206661696c6564000000000000600082015250565b6000615eca601a8361458d565b9150615ed582615e94565b602082019050919050565b60006020820190508181036000830152615ef981615ebd565b9050919050565b7f5061796d656e7420746f20646576696365206f776e6572206661696c65640000600082015250565b6000615f36601e8361458d565b9150615f4182615f00565b602082019050919050565b60006020820190508181036000830152615f6581615f29565b905091905056fea26469706673582212203f08ea3ca352f167f103aacfd159e320d6a8e664440b98a3c0c040879d22daf564736f6c634300081c0033",
  "linkReferences": {},
  "deployedLinkReferences": {}
}