{
  "_format": "hh-sol-artifact-1",
  "contractName": "TokenTransfer",
  "sourceName": "contracts/TokenTransfer.sol",
  "abi": [
    {
      "inputs": [],
      "stateMutability": "nonpayable",
      "type": "constructor"
    },
    {
      "anonymous": false,
      "inputs": [
        {
          "indexed": true,
          "internalType": "address",
          "name": "user",
          "type": "address"
        },
        {
          "indexed": false,
          "internalType": "uint256",
          "name": "amount",
          "type": "uint256"
        }
      ],
      "name": "Deposit",
      "type": "event"
    },
    {
      "anonymous": false,
      "inputs": [
        {
          "indexed": true,
          "internalType": "address",
          "name": "from",
          "type": "address"
        },
        {
          "indexed": true,
          "internalType": "address",
          "name": "to",
          "type": "address"
        },
        {
          "indexed": false,
          "internalType": "uint256",
          "name": "amount",
          "type": "uint256"
        }
      ],
      "name": "Transfer",
      "type": "event"
    },
    {
      "inputs": [
        {
          "internalType": "address",
          "name": "",
          "type": "address"
        },
        {
          "internalType": "address",
          "name": "",
          "type": "address"
        }
      ],
      "name": "allowances",
      "outputs": [
        {
          "internalType": "uint256",
          "name": "",
          "type": "uint256"
        }
      ],
      "stateMutability": "view",
      "type": "function"
    },
    {
      "inputs": [
        {
          "internalType": "address",
          "name": "spender",
          "type": "address"
        },
        {
          "internalType": "uint256",
          "name": "amount",
          "type": "uint256"
        }
      ],
      "name": "approve",
      "outputs": [
        {
          "internalType": "bool",
          "name": "",
          "type": "bool"
        }
      ],
      "stateMutability": "nonpayable",
      "type": "function"
    },
    {
      "inputs": [
        {
          "internalType": "address",
          "name": "account",
          "type": "address"
        }
      ],
      "name": "balanceOf",
      "outputs": [
        {
          "internalType": "uint256",
          "name": "",
          "type": "uint256"
        }
      ],
      "stateMutability": "view",
      "type": "function"
    },
    {
      "inputs": [
        {
          "internalType": "address",
          "name": "",
          "type": "address"
        }
      ],
      "name": "balances",
      "outputs": [
        {
          "internalType": "uint256",
          "name": "",
          "type": "uint256"
        }
      ],
      "stateMutability": "view",
      "type": "function"
    },
    {
      "inputs": [],
      "name": "deposit",
      "outputs": [],
      "stateMutability": "payable",
      "type": "function"
    },
    {
      "inputs": [],
      "name": "emergencyWithdraw",
      "outputs": [],
      "stateMutability": "nonpayable",
      "type": "function"
    },
    {
      "inputs": [],
      "name": "getContractBalance",
      "outputs": [
        {
          "internalType": "uint256",
          "name": "",
          "type": "uint256"
        }
      ],
      "stateMutability": "view",
      "type": "function"
    },
    {
      "inputs": [],
      "name": "owner",
      "outputs": [
        {
          "internalType": "address",
          "name": "",
          "type": "address"
        }
      ],
      "stateMutability": "view",
      "type": "function"
    },
    {
      "inputs": [],
      "name": "totalSupply",
      "outputs": [
        {
          "internalType": "uint256",
          "name": "",
          "type": "uint256"
        }
      ],
      "stateMutability": "view",
      "type": "function"
    },
    {
      "inputs": [
        {
          "internalType": "address",
          "name": "to",
          "type": "address"
        },
        {
          "internalType": "uint256",
          "name": "amount",
          "type": "uint256"
        }
      ],
      "name": "transfer",
      "outputs": [
        {
          "internalType": "bool",
          "name": "",
          "type": "bool"
        }
      ],
      "stateMutability": "nonpayable",
      "type": "function"
    },
    {
      "inputs": [
        {
          "internalType": "address",
          "name": "from",
          "type": "address"
        },
        {
          "internalType": "address",
          "name": "to",
          "type": "address"
        },
        {
          "internalType": "uint256",
          "name": "amount",
          "type": "uint256"
        }
      ],
      "name": "transferFrom",
      "outputs": [
        {
          "internalType": "bool",
          "name": "",
          "type": "bool"
        }
      ],
      "stateMutability": "nonpayable",
      "type": "function"
    },
    {
      "inputs": [
        {
          "internalType": "uint256",
          "name": "amount",
          "type": "uint256"
        }
      ],
      "name": "withdraw",
      "outputs": [],
      "stateMutability": "nonpayable",
      "type": "function"
    }
  ],
  "bytecode": "0x6080604052348015600f57600080fd5b5033600160006101000a81548173ffffffffffffffffffffffffffffffffffffffff021916908373ffffffffffffffffffffffffffffffffffffffff16021790555061136c806100606000396000f3fe6080604052600436106100a75760003560e01c80636f9fb98a116100645780636f9fb98a146101f457806370a082311461021f5780638da5cb5b1461025c578063a9059cbb14610287578063d0e30db0146102c4578063db2e21bc146102ce576100a7565b8063095ea7b3146100ac57806318160ddd146100e957806323b872dd1461011457806327e235e3146101515780632e1a7d4d1461018e57806355b6ed5c146101b7575b600080fd5b3480156100b857600080fd5b506100d360048036038101906100ce9190610e29565b6102e5565b6040516100e09190610e84565b60405180910390f35b3480156100f557600080fd5b506100fe610372565b60405161010b9190610eae565b60405180910390f35b34801561012057600080fd5b5061013b60048036038101906101369190610ec9565b610378565b6040516101489190610e84565b60405180910390f35b34801561015d57600080fd5b5061017860048036038101906101739190610f1c565b610718565b6040516101859190610eae565b60405180910390f35b34801561019a57600080fd5b506101b560048036038101906101b09190610f49565b610730565b005b3480156101c357600080fd5b506101de60048036038101906101d99190610f76565b6108ac565b6040516101eb9190610eae565b60405180910390f35b34801561020057600080fd5b506102096108d1565b6040516102169190610eae565b60405180910390f35b34801561022b57600080fd5b5061024660048036038101906102419190610f1c565b6108d9565b6040516102539190610eae565b60405180910390f35b34801561026857600080fd5b50610271610921565b60405161027e9190610fc5565b60405180910390f35b34801561029357600080fd5b506102ae60048036038101906102a99190610e29565b610947565b6040516102bb9190610e84565b60405180910390f35b6102cc610b94565b005b3480156102da57600080fd5b506102e3610c95565b005b600081600360003373ffffffffffffffffffffffffffffffffffffffff1673ffffffffffffffffffffffffffffffffffffffff16815260200190815260200160002060008573ffffffffffffffffffffffffffffffffffffffff1673ffffffffffffffffffffffffffffffffffffffff168152602001908152602001600020819055506001905092915050565b60025481565b60008073ffffffffffffffffffffffffffffffffffffffff168373ffffffffffffffffffffffffffffffffffffffff16036103e8576040517f08c379a00000000000000000000000000000000000000000000000000000000081526004016103df9061103d565b60405180910390fd5b816000808673ffffffffffffffffffffffffffffffffffffffff1673ffffffffffffffffffffffffffffffffffffffff168152602001908152602001600020541015610469576040517f08c379a0000000000000000000000000000000000000000000000000000000008152600401610460906110a9565b60405180910390fd5b81600360008673ffffffffffffffffffffffffffffffffffffffff1673ffffffffffffffffffffffffffffffffffffffff16815260200190815260200160002060003373ffffffffffffffffffffffffffffffffffffffff1673ffffffffffffffffffffffffffffffffffffffff168152602001908152602001600020541015610528576040517f08c379a000000000000000000000000000000000000000000000000000000000815260040161051f90611115565b60405180910390fd5b6000821161056b576040517f08c379a000000000000000000000000000000000000000000000000000000000815260040161056290611181565b60405180910390fd5b816000808673ffffffffffffffffffffffffffffffffffffffff1673ffffffffffffffffffffffffffffffffffffffff16815260200190815260200160002060008282546105b991906111d0565b92505081905550816000808573ffffffffffffffffffffffffffffffffffffffff1673ffffffffffffffffffffffffffffffffffffffff168152602001908152602001600020600082825461060e9190611204565b9250508190555081600360008673ffffffffffffffffffffffffffffffffffffffff1673ffffffffffffffffffffffffffffffffffffffff16815260200190815260200160002060003373ffffffffffffffffffffffffffffffffffffffff1673ffffffffffffffffffffffffffffffffffffffff16815260200190815260200160002060008282546106a191906111d0565b925050819055508273ffffffffffffffffffffffffffffffffffffffff168473ffffffffffffffffffffffffffffffffffffffff167fddf252ad1be2c89b69c2b068fc378daa952ba7f163c4a11628f55a4df523b3ef846040516107059190610eae565b60405180910390a3600190509392505050565b60006020528060005260406000206000915090505481565b806000803373ffffffffffffffffffffffffffffffffffffffff1673ffffffffffffffffffffffffffffffffffffffff1681526020019081526020016000205410156107b1576040517f08c379a00000000000000000000000000000000000000000000000000000000081526004016107a8906110a9565b60405180910390fd5b600081116107f4576040517f08c379a00000000000000000000000000000000000000000000000000000000081526004016107eb90611181565b60405180910390fd5b806000803373ffffffffffffffffffffffffffffffffffffffff1673ffffffffffffffffffffffffffffffffffffffff168152602001908152602001600020600082825461084291906111d0565b92505081905550806002600082825461085b91906111d0565b925050819055503373ffffffffffffffffffffffffffffffffffffffff166108fc829081150290604051600060405180830381858888f193505050501580156108a8573d6000803e3d6000fd5b5050565b6003602052816000526040600020602052806000526040600020600091509150505481565b600047905090565b60008060008373ffffffffffffffffffffffffffffffffffffffff1673ffffffffffffffffffffffffffffffffffffffff168152602001908152602001600020549050919050565b600160009054906101000a900473ffffffffffffffffffffffffffffffffffffffff1681565b60008073ffffffffffffffffffffffffffffffffffffffff168373ffffffffffffffffffffffffffffffffffffffff16036109b7576040517f08c379a00000000000000000000000000000000000000000000000000000000081526004016109ae9061103d565b60405180910390fd5b816000803373ffffffffffffffffffffffffffffffffffffffff1673ffffffffffffffffffffffffffffffffffffffff168152602001908152602001600020541015610a38576040517f08c379a0000000000000000000000000000000000000000000000000000000008152600401610a2f906110a9565b60405180910390fd5b60008211610a7b576040517f08c379a0000000000000000000000000000000000000000000000000000000008152600401610a7290611181565b60405180910390fd5b816000803373ffffffffffffffffffffffffffffffffffffffff1673ffffffffffffffffffffffffffffffffffffffff1681526020019081526020016000206000828254610ac991906111d0565b92505081905550816000808573ffffffffffffffffffffffffffffffffffffffff1673ffffffffffffffffffffffffffffffffffffffff1681526020019081526020016000206000828254610b1e9190611204565b925050819055508273ffffffffffffffffffffffffffffffffffffffff163373ffffffffffffffffffffffffffffffffffffffff167fddf252ad1be2c89b69c2b068fc378daa952ba7f163c4a11628f55a4df523b3ef84604051610b829190610eae565b60405180910390a36001905092915050565b60003411610bd7576040517f08c379a0000000000000000000000000000000000000000000000000000000008152600401610bce90611284565b60405180910390fd5b346000803373ffffffffffffffffffffffffffffffffffffffff1673ffffffffffffffffffffffffffffffffffffffff1681526020019081526020016000206000828254610c259190611204565b925050819055503460026000828254610c3e9190611204565b925050819055503373ffffffffffffffffffffffffffffffffffffffff167fe1fffcc4923d04b559f4d29a8bfc6cda04eb5b0d3c460751c2402c5c5cc9109c34604051610c8b9190610eae565b60405180910390a2565b600160009054906101000a900473ffffffffffffffffffffffffffffffffffffffff1673ffffffffffffffffffffffffffffffffffffffff163373ffffffffffffffffffffffffffffffffffffffff1614610d25576040517f08c379a0000000000000000000000000000000000000000000000000000000008152600401610d1c90611316565b60405180910390fd5b600160009054906101000a900473ffffffffffffffffffffffffffffffffffffffff1673ffffffffffffffffffffffffffffffffffffffff166108fc479081150290604051600060405180830381858888f19350505050158015610d8d573d6000803e3d6000fd5b50565b600080fd5b600073ffffffffffffffffffffffffffffffffffffffff82169050919050565b6000610dc082610d95565b9050919050565b610dd081610db5565b8114610ddb57600080fd5b50565b600081359050610ded81610dc7565b92915050565b6000819050919050565b610e0681610df3565b8114610e1157600080fd5b50565b600081359050610e2381610dfd565b92915050565b60008060408385031215610e4057610e3f610d90565b5b6000610e4e85828601610dde565b9250506020610e5f85828601610e14565b9150509250929050565b60008115159050919050565b610e7e81610e69565b82525050565b6000602082019050610e996000830184610e75565b92915050565b610ea881610df3565b82525050565b6000602082019050610ec36000830184610e9f565b92915050565b600080600060608486031215610ee257610ee1610d90565b5b6000610ef086828701610dde565b9350506020610f0186828701610dde565b9250506040610f1286828701610e14565b9150509250925092565b600060208284031215610f3257610f31610d90565b5b6000610f4084828501610dde565b91505092915050565b600060208284031215610f5f57610f5e610d90565b5b6000610f6d84828501610e14565b91505092915050565b60008060408385031215610f8d57610f8c610d90565b5b6000610f9b85828601610dde565b9250506020610fac85828601610dde565b9150509250929050565b610fbf81610db5565b82525050565b6000602082019050610fda6000830184610fb6565b92915050565b600082825260208201905092915050565b7f43616e6e6f74207472616e7366657220746f207a65726f206164647265737300600082015250565b6000611027601f83610fe0565b915061103282610ff1565b602082019050919050565b600060208201905081810360008301526110568161101a565b9050919050565b7f496e73756666696369656e742062616c616e6365000000000000000000000000600082015250565b6000611093601483610fe0565b915061109e8261105d565b602082019050919050565b600060208201905081810360008301526110c281611086565b9050919050565b7f496e73756666696369656e7420616c6c6f77616e636500000000000000000000600082015250565b60006110ff601683610fe0565b915061110a826110c9565b602082019050919050565b6000602082019050818103600083015261112e816110f2565b9050919050565b7f416d6f756e74206d7573742062652067726561746572207468616e2030000000600082015250565b600061116b601d83610fe0565b915061117682611135565b602082019050919050565b6000602082019050818103600083015261119a8161115e565b9050919050565b7f4e487b7100000000000000000000000000000000000000000000000000000000600052601160045260246000fd5b60006111db82610df3565b91506111e683610df3565b92508282039050818111156111fe576111fd6111a1565b5b92915050565b600061120f82610df3565b915061121a83610df3565b9250828201905080821115611232576112316111a1565b5b92915050565b7f4d7573742073656e642053454920746f6b656e73000000000000000000000000600082015250565b600061126e601483610fe0565b915061127982611238565b602082019050919050565b6000602082019050818103600083015261129d81611261565b9050919050565b7f4f6e6c79206f776e65722063616e2063616c6c20746869732066756e6374696f60008201527f6e00000000000000000000000000000000000000000000000000000000000000602082015250565b6000611300602183610fe0565b915061130b826112a4565b604082019050919050565b6000602082019050818103600083015261132f816112f3565b905091905056fea2646970667358221220a414c6b4f58a543d73da97563b83342e727cae6ea33391c40c6105934d47a91564736f6c634300081c0033",
  "linkReferences": {},
  "deployedLinkReferences": {}
}